:020000040800F2
:10000000181800200101000869480008D3370008CB
:1000100065480008A50C0008E55A0008000000002B
:100020000000000000000000000000000151000876
:10003000290D000800000000C14A0008E552000830
:100040001B0100081B0100081B0100081B01000820
:100050001B0100081B0100081B0100081B01000810
:100060001B0100081B0100081B010008C10C00084F
:100070001B0100081B010008D10C0008E10C00085E
:100080001B0100081B0100081B0100081B010008E0
:100090001B0100081B0100081B0100081B010008D0
:1000A0001B0100081B0100081B0100081B010008C0
:1000B0001B0100081B010008755300081B01000804
:1000C000D93700081B0100081B0100081B010008AC
:1000D0001B010008D15A00081B0100081B01000881
:1000E0001B0100081B0100081B010008DFF80CD0F1
:1000F00000F08AFC00480047757E000818180020B0
:100100000648804706480047FEE7FEE7FEE7FEE7B1
:10011000FEE7FEE7FEE7FEE7FEE7FEE773530008B3
:10012000ED0000082DE9F0410024061B254671F181
:10013000000605DA01240027D0EB070067EB010178
:10014000161E73F1000605DA0027D2EB070201251F
:1001500067EB030300F02AFB86460E4617469C46D3
:10016000AC4204D00025D0EB050E65EB010624B1AE
:100170000020D2EB000760EB030C704631463A4694
:100180006346BDE8F081202A04DB203A21FA02F020
:100190000021704721FA02F3D040C2F120029140C1
:1001A000084319467047D2B201E000F8012B491EFE
:1001B000FBD270470022F6E710B513460A46044604
:1001C0001946FFF7F0FF204610BD30B50446002069
:1001D000034600E05B1C934203D2E05CCD5C401B15
:1001E000F8D030BDF0B480EA0102D40F4200B2EB87
:1001F000410F02D20246084611464A0042D0C30DC2
:10020000DDB2C1F3C752AD1A202D35DAC1F31601A4
:1002100041F4000204B15242C5F1200602FA06F18F
:100220002A411044B3EBD05F23D0C4B1012DA0EB21
:10023000C35009DCF0BC4FF0004202EAC352DBB20B
:1002400000F5000000F00DBB400000F1807000EBF5
:10025000C350A0F1807040EAD170490009E049081C
:1002600041EAC071A0EBC35000F50000400800EB6C
:10027000C350F0BC00F0ECBA6142012202EB410134
:10028000001BF6E7F0BC704781F00041AAE780F060
:100290000040A7E780EA010210B502F000434000E9
:1002A00022D04A001FD0010E01EB1261C0F35600AC
:1002B000C2F3560240F4000042F40002A0FB022008
:1002C00000047F39140400D0401C50EA124001D4CD
:1002D0004000491EC2B20C0604EBD010401C40087E
:1002E000802A02D003E0002010BD20F00100002988
:1002F00000DA0020184310BD30B480EA010202F099
:10030000004530F0004221F0004013D090B1C30D01
:10031000D40DC2F31601C0F31600E41A41F4000133
:1003200040F400027D34914201D3641C00E0490096
:10033000002C02DA30BC002070474FF4000000238C
:10034000914201D3891A034340084FEA4101F7D192
:1003500051B1914202D14FF0004105E002D24FF07D
:10036000010101E06FF0010103EBC450284430BCEF
:1003700000F06EBA2DE9FE4F804681EA0300C00FFF
:100380000C46009021F0004123F00045B8EB02003C
:10039000A94105D24046214690461C460B460246DE
:1003A00023F00040104347D0270DC7F30A00C3F3E2
:1003B0000A510290401A019040286BDAC3F31300EF
:1003C00040F4801B0098924620B10023D2EB030A30
:1003D00063EB0B0B01985946C0F14002504600F008
:1003E00016FA06460D4650465946019A00F01EFA86
:1003F00010EB08006141002487EA115284EAE77398
:100400001A4340D0009A62B3019A012A4FEA075278
:1004100015DC001B61EB02014FF0004202EA0752BB
:10042000CDE90042001C41F5801132462B4600F018
:1004300055FA03B0BDE8F08F40462146F9E7001BAE
:1004400061EB0201001C41F5801300185B4120188C
:10045000A2F5001747EB030140EAD570B6196D41CC
:1004600011E06D084FEA360645EAC0754FEA0752BB
:10047000001B61EB0201001C41F5801149084FEAA5
:1004800030000019514132462B4603B0BDE8F04F11
:1004900000F015BA0098012240000023D0EB0202C0
:1004A00063EBE073009821464FEAE074B8EB00007C
:1004B00061EB0401E9E783F000435BE781F0004171
:1004C00058E72DE9FE4F81EA030404F0004421F0CF
:1004D000004100944FF0000B23F0004350EA010468
:1004E0005ED052EA03045BD0C3F30A54C1F30A5549
:1004F0002C44A4F2F3340194A0FB0254C1F3130181
:1005000041F48011C3F3130343F4801301FB02444D
:1005100000FB034E840A970A44EA815447EA835752
:10052000A4FB076802958D0A05FB07854FEA932C0B
:1005300004FB0C542705029D4FEA065847EA16377C
:10054000B5EB08056EEB070C870E920E47EA811794
:1005500042EA8312A7FB0201B6EB0B0164EB000435
:100560002B0D43EA0C335E1844EB1C50DA4651461F
:10057000E7FB0201C5F313044FEA0B3343EA1453BC
:100580004FEA0432019C43EA0603A4F10C040294EE
:10059000009CCDE900B400F0A1F903B0BDE8F08FF4
:1005A00000200146F9E72DE9F04D81EA030404F04B
:1005B000004B21F0004514464FF0000A23F00041A3
:1005C00050EA050220D054EA01021DD0C5F30A57B3
:1005D0000246C5F31303C1F31300C1F30A5640F4F6
:1005E000801543F48013A7EB0608101BD64608F2CB
:1005F000FD3873EB050002D308F1010801E0921801
:100600005B41B8F1000F03DA00200146BDE8F08D30
:1006100000204FF48011064684460EE0171B73EB52
:10062000050705D3121B63EB050306434CEA010CD7
:1006300049084FEA300092185B4150EA0107EDD1BA
:1006400052EA030012D082EA040083EA050108435B
:1006500005D0101BAB4106D20122002306E0002288
:100660004FF0004302E06FF0010253101AEB060056
:100670004CEB085110EB0A0041EB0B01BDE8F04DCB
:1006800000F01DB9C10F80EAE0700844CA07962344
:10069000002100F0E6B896230022114600F0E1B8F0
:1006A00000F0004220F00040C10DC0F3160040F4FD
:1006B00000007F2901DA00207047962903DCC1F190
:1006C0009601C84001E096398840002AF4D04042A3
:1006D000704720F00040C10DC0F3160040F4000048
:1006E0007F2901DA00207047962903DCC1F19601C9
:1006F000C840704796398840704700F0004230F09B
:1007000000400AD0C10D01F56071C0F3160042EA45
:100710000151C2084007114370470020014670474D
:1007200001F0004330B421F0004150EA010206D04C
:100730000A0DA2F56072C1F31301002A02DC30BC7D
:1007400000207047440F44EAC104C100E01830BCE7
:1007500000EBC25000F07CB8002801DBC0F1004083
:10076000002901DBC1F1004181427047002801DB13
:10077000C0F10040002901DBC1F10041884270470F
:1007800030B50B46014600202022012409E021FA61
:1007900002F59D4205D303FA02F5491B04FA02F55E
:1007A0002844151EA2F10102F1DC30BD2DE9F05FF5
:1007B0000546002092469B468846064681464024D0
:1007C0001BE02846414647462246FFF7DCFC5346DD
:1007D0005A46C01A914110D311461846224600F0DD
:1007E00016F82D1A67EB01084F462246012000211A
:1007F00000F00DF817EB00094E41201EA4F1010492
:10080000DFDC484631462A464346BDE8F09F202AB1
:1008100004DB203A00FA02F1002070479140C2F157
:10082000200320FA03F3194390407047202A06DB87
:10083000CB17203A41FA02F043EAE07306E041FAAE
:1008400002F3D040C2F1200291400843194670479C
:100850000029A8BF7047401C490008BF20F00100D4
:10086000704710B4B0FA80FC00FA0CF050EA0104B2
:1008700004BF10BC704749B1CCF1200421FA04F444
:1008800011FA0CF118BF012121430843A3EB0C011D
:10089000CB1D4FEA00614FEA102042BF002010BC80
:1008A000704700EBC35010440029A4BF10BC704730
:1008B000401C490008BF20F0010010BC704710B573
:1008C000141E73F1000408DA401C41F10001921873
:1008D0005B411A4301D120F0010010BD2DE9F04D1C
:1008E00092469B4611B1B1FA81F202E0B0FA80F271
:1008F00020329046FFF78BFF04460F4640EA0A007D
:1009000041EA0B0153465A46084313D0114653EAB5
:10091000010019D0C8F140025046FFF734FC0546EB
:100920000E46504659464246FFF771FF084305D030
:10093000012004E020463946BDE8F08D0020054343
:1009400046EAE0762C4337430A986305E40AA0EBB5
:1009500008000022FD0A44EA47540A3002D500206C
:100960000146E9E7010510196941DDE9084500196B
:100970006941BDE8F04DA2E770B521F000430343A3
:100980000CD0C1F30A550024D5EB040564EB040335
:10099000D617AD1AB34102DB0020014670BD201806
:1009A00041EB025170BDC1F30A52C1F3130140F291
:1009B000FF3341F480119A4202DA00200146704769
:1009C00040F233439A42A2F2334202DC5242FFF732
:1009D000DABBFFF71CBF000030B5041E71F1000444
:1009E00004DB4FF00044404264EB0101141E73F13C
:1009F000000405DB1C464FF00043524263EB040346
:100A0000994208BF904230BD064C074D06E0E068B1
:100A100040F0010394E8070098471034AC42F6D345
:100A2000FFF768FB68A0000888A000082DE9F04DDA
:100A300000231A461B1A8A4103DB00200146BDE849
:100A4000F08DC1F30A52C1F3130141F480154FF048
:100A5000000BD10702D100186D41521E0027044639
:100A600040F2FF11384601EB620A3E4680460246DC
:100A700000204FF48011FFF786FBC2197141BB18AB
:100A800046EB0100B4EB030C75EB000C04D3E41A45
:100A900065EB000517460E46241908F101006D416B
:100AA00080463428E3DDF91946EB0600091BA8410E
:100AB00003D24FF0FF32134601E0002213461BEB36
:100AC000070046EB0A51BDE8F04DFFF7F8BE70B5E0
:100AD00004462068816811F0010F24D0816821F05C
:100AE0000101816000F076FE05462068806810F004
:100AF000010F18D000F06EFE401B02280ED92068AE
:100B0000806810F0010F09D0A06A40F01000A062C8
:100B1000E06A40F00100E062012070BD206880685A
:100B200010F0010FE6D1002070BD00002DE9F05F4C
:100B300005460E46144631462846FFF7A5FB81467A
:100B400021460A480068FFF7A5FB82464946084847
:100B50000068FFF79FFB83465146FFF743FB804643
:100B6000FFF79EFD07463846BDE8F09F680000206D
:100B7000640000202DE9F04104460D461646611937
:100B80000846FFF77FFD2B4908602B492B4800687A
:100B9000FFF780FB29490860294926480068FFF7CC
:100BA00079FB0746254801683846FFF71BFB2349B8
:100BB00008600846016823480068FFF713FB2149D5
:100BC000086021491F480068FFF7D0FD03D21E4886
:100BD0001C49086008E01D491A480068FFF7BCFD81
:100BE00002D21A4817490860194801681548006878
:100BF000FFF750FB07461748016810480068FFF7E9
:100C000049FB80463946FFF7EDFA1349086013495E
:100C10003046FFF7A1FD04D311493046FFF7A6FD8A
:100C200002D20020074908600B480068FFF738FD32
:100C3000BDE8F081840000203333333F880000207A
:100C40009A99993E8C00002000009644000096C4BA
:100C5000740000207000002080000020000048C2C6
:100C6000000048420648808900B205490968C86307
:100C70000348808900B2024909680864704700008F
:100C8000740100200648808900B20549096848635C
:100C90000348808900B202490968886370470000F0
:100CA0007401002000BFFEE710B50246002002E0FC
:100CB000535C0344D8B20B1EA1F10101F8D110BD61
:100CC00010B5024800F09EFA10BD0000DC000020C4
:100CD00010B5024800F096FA10BD00002003002075
:100CE00010B5024800F08EFA10BD0000DC020020B2
:100CF00010B490F840C0012404FA0CFCC46BC4F892
:100D000004C0D0F800C0CCF804304368102B05D0E4
:100D1000036899600068C26010BC704703689A60FD
:100D20000068C16010BC7047704710B50446012CC4
:100D300001D9641E00E000BF204600F09BFB10BDFF
:100D400070B50346D3F8F00308B9002070BDD3F89E
:100D5000F003904201D2D3F8F02300200FE0D3F843
:100D6000E8431C5D0C54D3F8E843641C4FF47A75D7
:100D7000B4FBF5F605FB1644C3F8E843401C90426B
:100D8000EDD3D3F8F003801AC3F8F0031046DDE783
:100D900070B50346D3F8F003B0F57A7F00D20AB9F4
:100DA000002070BDD3F8F003C0F57A70904203D2F2
:100DB000D3F8F003C0F57A7200200FE0D3F8EC43CB
:100DC000641C4FF47A75B4FBF5F605FB1644C3F8C2
:100DD000EC430C5CD3F8EC535C55401C9042EDD3D3
:100DE000D3F8F0031044C3F8F0031046D9E772B605
:100DF00000BFFEE70148B0F9000070470000002086
:100E00000148B0F900007047020000200146034885
:100E1000814201D1024870470020FCE79402002083
:100E20007403002078B44FF0000C0024009490F874
:100E30002420012A14D0012280F824204A681F258A
:100E4000072A10D203685E6B521E02EB82029540A5
:100E500026EA05050E6806FA02F22A435A631FE0E5
:100E600078BC022070470D2A0DD203681E6BD21F7A
:100E700002EB8202954026EA05050E6806FA02F2A8
:100E80002A431A630CE00368DE6A0D3A02EB820221
:100E9000954026EA05050E6806FA02F22A43DA6250
:100EA0000A6807250A2A0DD30368DE680A3A02EBAE
:100EB0004202954026EA05058E6806FA02F22A43A8
:100EC000DA600BE003681E6902EB4202954026EAF5
:100ED00005058E6806FA02F22A431A610A68102A8A
:100EE00001D0112A0BD10268A2F18043B3F59233ED
:100EF0000AD0816A41F0200181624FF0010C80F834
:100F0000244078BC60467047936813F4000FF6D114
:100F1000936843F40003936009681029EFD10949ED
:100F2000094A0968B1FBF2F101EB81014900009126
:100F300000990029E3D00099491E009100990029E9
:100F4000F9D1DCE7A000002040420F002DE9F0417C
:100F5000044600270025002C03D0A06A002618B103
:100F600008E00120BDE8F081E66284F824602046B4
:100F700000F07CF82046FFF7AAFD0146A06A10F0B9
:100F8000100F00D139B1A06A40F01000A062012119
:100F90000846BDE8F081A06A20F4885040F00200C5
:100FA000A062E2696068237B104347EA4302024380
:100FB000A068B0F5807F08D0012806D0002094F802
:100FC00014C0BCF1010F03D00BE04FF48070F6E7C2
:100FD000F3B1A36A43F02003A362E36A43F0010381
:100FE000E3622368D3F804C02CF4694C4CEA000097
:100FF000586020688368DFF86CC003EA0C03134371
:101000008360A068B0F5807F09D0012807D009E08F
:10101000A3695B1E40EA433040F40060E1E7208AA8
:10102000401E05052068C36A23F470032B43C36286
:10103000206880680C4B1840904207D1E662A06A95
:1010400020F0020040F00100A062A1E7A06A20F0B9
:10105000020040F01000A062E06A40F00100E0628F
:10106000012195E7FDF7E1FFFE0E1FFF10B586B0E9
:1010700004460020029003900490059021492068C6
:1010800088423DD100BF2048806940F400701E496D
:1010900088610846806900F40070019000BF00BFBD
:1010A00000BF0846806940F00400886108468069F6
:1010B00000F00400019000BF00BF10200290032048
:1010C000039002A9114800F07FFA11481149086005
:1010D0000020486000210F4881608021C1604900E4
:1010E00001618900416100218161C16100F042F923
:1010F00008B1FFF77CFE00BF06482062446200BFD3
:1011000006B010BD0024014000100240000801405C
:1011100008000240DC00002090F821100022022983
:1011200005D00421816380F82020012070470168E8
:101130000B6823F00E030B6001680B6823F00103BA
:101140000B6090F84030D0F83CC0012101FA03F365
:10115000CCF8043080F8211080F820201046704729
:1011600010B5002490F82110022903D004218163D6
:10117000012437E001680A6822F00E020A60016863
:101180000A6822F001020A60174A0168914201D1FF
:1011900001211CE0154A914201D1102117E0144AA7
:1011A000914201D1891512E0124A914201D189146C
:1011B0000DE0114A914202D14FF4803107E00F4A0D
:1011C000914202D14FF4801101E04FF080710C4A3E
:1011D0005160012180F82110002180F82010416B1E
:1011E00001B18847204610BD080002401C000240A3
:1011F0003000024044000240580002406C000240AF
:10120000000002402DE9F05FC16B0A6801680B68BD
:10121000D0F840C0042404FA0CF414424E4C4F4D54
:101220004F4E504FDFF84081DFF8409131D013F03E
:10123000040F2ED00A6812F0200F03D10A6822F0A2
:1012400004020A600168A14201D1042119E0A94207
:1012500001D1402115E0B14202D14FF4806110E08C
:10126000B94202D14FF480410BE0414502D14FF425
:10127000802106E0494502D14FF4800101E04FF0A2
:1012800080613B4A5160C16A002962D0BDE8F05FCD
:1012900008474FF0020A0AFA0CFA1AEA020F4FF056
:1012A000000A4FF0010B35D013F0020F32D00A685C
:1012B00012F0200F05D10A6822F00A020A6080F8B5
:1012C00021B00168A14201D1022119E0A94201D156
:1012D000202115E0B14202D14FF4007110E0B94273
:1012E00002D14FF400510BE0414502D14FF40031DF
:1012F00006E0494502D14FF4001101E04FF00071C2
:101300001B4A516080F820A0816A002921D0BDE8E5
:10131000F05F0847082404FA0CFC1CEA020F18D0FE
:1013200013F0080F15D00A6822F00E020A6090F838
:101330004010C26B0BFA01F15160C0F838B080F870
:1013400021B080F820A0016B002902D0BDE8F05F39
:101350000847BDE8F09F0000080002401C00024062
:101360003000024044000240580002406C0002403D
:101370000000024010B4002834D01C4A01688B18C9
:101380001B4AA2FB0332120992000264194AC2638B
:10139000022280F821200A686FF30D12D0F808C0ED
:1013A0004368046943EA0C03D0F80CC04CEA040C0F
:1013B00043EA0C03D0F814C043EA0C03D0F818C079
:1013C00043EA0C03D0F81CC043EA0C031A430A603A
:1013D00000218163012280F8212080F8201010BCB8
:1013E0000020704710BC012070470000F8FFFDBFCF
:1013F000CDCCCCCC0000024070B50446002594F85A
:10140000200001280DD0012084F8200094F821C08C
:101410000020BCF1010F06D084F8200002252846E8
:1014200070BD022070BD4FF0020C84F821C0A06393
:101430002068D0F800C02CF0010CC0F800C0204695
:10144000FFF756FCE06A28B12068016841F00E0100
:10145000016009E02068016821F004010160206852
:10146000016841F00A0101602068016841F0010152
:101470000160D4E770B5044600F0ACF90546B4F15C
:10148000FF3F02D004480078044400F0A3F9401B59
:10149000A042FAD370BD0000940000202DE9F04F67
:1014A000002200297DD0DFF81881DFF818A108F1AB
:1014B000040909F1040B0F27012393400B40002B73
:1014C00076D022F0030C0CF1804404F58034D4F87B
:1014D00008C095072E0F07FA06F505EA0C0EA0F1D5
:1014E000804CBCF5843C37D0A0F1804CBCF5863CE8
:1014F00035D0A0F1804CBCF5883C33D0A0F1804CB5
:10150000BCF58A3C31D04FF0040C0CFA06FCF445D3
:101510001DD1D8F800C02CEA030CC8F800C0D9F8D7
:1015200000C02CEA030CC9F800C0DAF800C02CEAAD
:10153000030CCAF800C0DBF800C02CEA030CCBF89F
:1015400000C0D4F808C02CEA050CC4F808C0B3F5F4
:10155000807F0DD284460DE04FF0000CD5E74FF0B0
:10156000010CD2E74FF0020CCFE74FF0030CCCE7B1
:1015700000F1040C02D24FEA820403E0A2F1080455
:101580004FEA8404DCF8005007FA04F625EA060660
:101590004FF0040505FA04F446EA0404CCF80040D0
:1015A00001E00BE004E0D0F80CC02CEA0303C360B8
:1015B00002F1010231FA02F37FF47EAFBDE8F08F51
:1015C000000401400C0401402DE9F84F4FF0000CDD
:1015D00000230A68002A7DD0DFF8DC810F27A8F1FC
:1015E000040A08F10409AAF1040B012202FA0CF61C
:1015F0000A683240B2426ED1DFF8C0E14C68A4EB19
:101600000E0574452BD00DDC032C34D005DC34B32F
:10161000012C19D0022C2FD11BE0112C16D0122C2A
:101620002AD119E0B5F5881F19D006DCB5F5803F41
:1016300015D0B5F5801F1FD111E0B5F5001F0ED0F4
:10164000B5F5041F18D10AE0CB6815E0CB681B1D67
:1016500012E0CB6808330FE0CB680C330CE08B68EA
:1016600023B1012B04D00823466105E0042303E0E5
:101670000823066100E00023B2F5807F01D2054611
:1016800001E000F1040502D24FEA8C0403E0ACF162
:1016900008044FEA84042E6807FA04FE26EA0E06C0
:1016A00003FA04F446EA04042C604C6814F0805FEA
:1016B00079D0434CA56945F00105A561A46904F002
:1016C000010400942CF0030404F1804404F58034F8
:1016D000A66801E06EE066E04FEA8C754FEA15758A
:1016E00007FA05FE26EA0E0EA0F18046B6F584360E
:1016F0001ED0A0F18046B6F586361BD0A0F18046FC
:10170000B6F5883618D0A0F18046B6F58A3615D0E1
:10171000042606FA05F545EA0E05A5604C6814F4A2
:10172000801F0DD0D8F800401443C8F800400CE0EA
:101730000026EEE70126ECE70226EAE70326E8E7C3
:10174000D8F800409443C8F800404C6814F4001FD7
:1017500005D0D9F800401443C9F8004004E0D9F896
:1017600000409443C9F800404C6814F4003F05D091
:10177000DAF800401443CAF8004004E0DAF8004008
:101780009443CAF800404C6814F4803F05D0DBF85D
:1017900000402243CBF8002005E0DBF8004024EABB
:1017A0000202CBF800200CF1010C0A6832FA0CF2AC
:1017B0007FF41BAFBDE8F88F080401400000111052
:1017C00000100240002A01D0016170470904016144
:1017D00070470000014880687047000094000020B6
:1017E000704710B50446002C14D0242084F83D0026
:1017F0002068016821F001010160204600F0A4FB8F
:101800000020206484F83D00206384F83E0084F8C2
:101810003C0010BD012010BD2DE9F04104462168B7
:101820004E694F68002594F83E0016F4807F0BD077
:1018300017F4807F08D001256FF480724A61216817
:101840000A6842F400420A6016F4007F08D017F4D8
:10185000807F05D045F0020522686FF40071516168
:1018600016F4806F25D017F4807F22D0628D94F813
:101870003D10236B202808D13AB9212910D02929FD
:101880000ED0282901D1212B0AD022686FF4806163
:10189000516145F00405102806D0402804D008E026
:1018A000204602F021FA04E02068016841F400714A
:1018B000016016F4006F08D017F4807F05D045F062
:1018C000080521686FF400604861002D07D0206C86
:1018D000284320642046BDE8F04102F023B8BDE86B
:1018E000F081000010B50446206C58B12046FFF787
:1018F00078FF204600F00AF803492068884201D1A9
:1019000002F03AFE10BD00000054004070B50446DD
:10191000002C04D094F83D00002510B106E0012011
:1019200070BD84F83C50204600F02EFB242084F843
:101930003D002068016821F0010101602068016814
:1019400041F4004101602068016821F40041016018
:1019500000F0A6FD544B6168994203D85349884270
:1019600003D304E05249884201D2012070BD51499D
:10197000B0FBF1F12268D2F804C02CF03F0C4CEA25
:10198000010CC2F804C062689A4201D84A1C07E000
:101990004FF4967251434FF47A72B1FBF2F14A1C44
:1019A0002168D1F820C02CF03F0C42EA0C020A62F8
:1019B0006168994210D84900401EB0FBF1F2521CF8
:1019C000C2F30B02042A01D2042026E0B0FBF1F09E
:1019D000401CC0F30B0020E0A268002A50D001EBAD
:1019E000C10303EB0113A0F1010CBCFBF3F35B1C7F
:1019F00043F480431B051B0D4AD0002A4AD001EB5B
:101A0000C10202EB0111401EB0FBF1F0401CC0F31B
:101A10000B0040F4804040F400402168CA6922F085
:101A2000FF0222F44F421043C861216AE06901437A
:101A30002068026822F0C00211430160E168206959
:101A400001432068826822F0FF0222F4034211431E
:101A50008160A169606901432068C26822F0FF02C9
:101A60001143C1602068016841F0010101602564F3
:101A7000202084F83D00256384F83E50002070BD8E
:101A800001EB4103A0F1010CBCFBF3F35B1CB1E7DC
:101A90000120C2E701EB4101401EB0FBF1F0401C08
:101AA000C0F30B00B7E70000A086010080841E0091
:101AB00000093D0040420F00704700002DE9FF4F34
:101AC00083B00446DDF84490DDF84080129E8A46DB
:101AD000934600270297FFF77DFE054694F83D00E8
:101AE000202803D007B00220BDE8F08F192301227F
:101AF000B4492046009502F072F918B107B00220EF
:101B0000BDE8F08F94F83C00012808D0012084F84B
:101B10003C002068016811F0010F04D007E007B015
:101B20000220BDE8F08F016841F0010101602068EA
:101B3000016821F400610160222084F83D0040200A
:101B400084F83E002764C4F82480A4F82A90608DAD
:101B500020859D48E062019500965A4651462046F0
:101B6000069B01F0AFFF18B107B00120BDE8F08F70
:101B7000208D68B3012834D0022842D02068016843
:101B800041F4806101602068416980690190208D85
:101B90004FF02008002800F00B81DFF830B2DFF8AA
:101BA000309246F2A81A208D032800F2D680012830
:101BB00037D002284DD033460022594620460095A2
:101BC00002F00DF9002872D007B00120BDE8F08FB7
:101BD0002068416981690191016841F400710160E7
:101BE000D5E72068016821F48061016072B6206841
:101BF000416981690191016841F40071016062B637
:101C0000C5E72068016841F40061016072B6206890
:101C1000416981690191016821F48061016062B6C6
:101C2000B5E72A463146204602F0C4F918B107B09C
:101C30000120BDE8F08F20680069616A0870606A61
:101C4000401C6062208D401E2085608D401E608596
:101C5000AAE03346002259462046009502F0BFF81C
:101C600018B107B00120BDE8F08F72B62068016896
:101C700041F40071016020680069616A0870606A5F
:101C8000401C6062218D491E2185618D491E618540
:101C900062B6216809690170606A401C6062208D2B
:101CA000401E2085608D401E60857DE0FFE7206836
:101CB000016821F48061016072B620680069616A80
:101CC0000870606A401C6062208D401E2085608D17
:101CD000401E6085D9F80000B0FBFAF0C0EBC000F0
:101CE00000EB800002900298401E0290029820B300
:101CF0002068406910F0040FF5D02068016841F4B5
:101D00000071016020680069616A0870606A401CA7
:101D10006062218D491E2185618D491E618562B6F3
:101D2000216809690170606A401C6062208D401E54
:101D30002085608D401E608536E0276384F83D80F5
:101D400084F83E70206C40F02000206462B684F875
:101D50003C7007B00120BDE8F08F2A46314620468E
:101D600002F028F918B107B00120BDE8F08F206813
:101D70000069616A0870606A411C6162208D401EC2
:101D80002085608D401E60852068426912F0040F36
:101D90000AD000690870606A401C6062208D401E95
:101DA0002085608D401E6085208D00287FF4FBAE6D
:101DB00084F83D8084F83E7084F83C7007B00020C1
:101DC000BDE8F08F020010000000FFFF04000100DA
:101DD000A00000202DE9FF4F83B004468A469346B9
:101DE000DDF84490DDF84080129EFFF7F3FC0546D5
:101DF00094F83D00202803D007B00220BDE8F08F02
:101E0000192301224E492046009501F0E8FF18B140
:101E100007B00220BDE8F08F94F83C00012808D0FC
:101E2000012084F83C002068016811F0010F04D003
:101E300007E007B00220BDE8F08F016841F0010122
:101E400001602068016821F400610160212084F8AC
:101E50003D00402084F83E0000272764C4F8248019
:101E6000A4F82A90608D20853648E062019500969E
:101E70005A4651462046069B01F0CEFE18B107B0E7
:101E80000120BDE8F08F208D002836D02A4631464B
:101E9000204602F0D2F858B1206C042804D1206802
:101EA000016841F40071016007B00120BDE8F08FC6
:101EB000606A216800780861606A00F1010CC4F86A
:101EC00024C0208D401E80B22085618D491E618511
:101ED0002368596911F0040F0CD058B19CF8000028
:101EE0001861606A401C6062208D401E2085608DF4
:101EF000401E6085208D0028C8D12A4631462046E4
:101F000001F03AFF58B1206C042804D12068016820
:101F100041F40071016007B00120BDE8F08F206836
:101F2000016841F400710160202084F83D0084F8CC
:101F30003E7084F83C7007B00020BDE8F08F0000D0
:101F4000020010000000FFFF10B504460B49206896
:101F5000884211D10A48C06920F400100849C861BC
:101F600089150848FFF79AFA4FF400710548FFF702
:101F700095FA202000F0BEF810BD0000005400408B
:101F800000100240000C014010B586B0044600204D
:101F900002900390049005901E492068884237D132
:101FA00000BF1D48806940F008001B498861084651
:101FB000806900F00800019000BF00BF4FF440703E
:101FC0000290122003900320059002A91348FFF706
:101FD000FBFA00BF1249486840F0E06040F00200A0
:101FE000486000BF00BF0C48C06940F400100A49B7
:101FF000C8610846C06900F40010019000BF00BF2E
:1020000000221146202000F095F8202000F084F8EE
:1020100006B010BD0054004000100240000C01400A
:1020200000000140704700000248816802781144B6
:10203000816070479400002010B50748016841F0A6
:1020400010010160032000F0A9F8002000F006F85C
:1020500000F026F8002010BD0020024070B50446B4
:102060000D4D4FF47A712878B1FBF0F00B490968F7
:10207000B1FBF0F000F072FC08B1012070BD102C33
:1020800007D200222146501E00F054F86C60002058
:1020900070BD012070BD000094000020A000002051
:1020A00008B500BF1148806940F001000F49886100
:1020B0000846806900F00100009000BF00BF00BF2B
:1020C0000846C06940F08050C8610846C06900F009
:1020D0008050009000BF00BF00BF0549486820F055
:1020E000E06040F00070486000BF08BD0010024092
:1020F0000000014000280EDB00F01F01012202FA5F
:1021000001F14009800000F1E020C0F88011BFF328
:102110004F8FBFF36F8F704700280ADB00F01F015D
:10212000012202FA01F14009800000F1E020C0F82C
:102130000011704710B4184B1B68C3F30223C3F19E
:10214000070CBCF1040F01D94FF0040C1C1D072C27
:1021500001D2002300E0DB1E012404FA0CFCACF1E8
:10216000010C0CEA0101994004FA03F35B1E1A40CA
:102170001143002806DB00F1E020090180F800147B
:1021800010BC704700F00F0000F1E020090180F85A
:10219000141D10BC704700000CED00E000F00700BB
:1021A000064A11684FF6FF03194041EA002040F04B
:1021B000FD7040F080601060704700000CED00E0A2
:1021C000BFF34F8F05480168054A01F4E0611143F0
:1021D0000160BFF34F8F00BFFDE700000CED00E092
:1021E0000400FA052DE9F8430446DFF81C81207845
:1021F00010F0010F6CD00027D8F81C0010F0805FA1
:102200000BD1D8F81C0040F08050C8F81C00D8F85A
:102210001C0000F08050009001273C4D286810F40D
:10222000807F16D1286840F480702860FFF7D2FACA
:102230000646286810F4807F0BD1FFF7CBFA801B8D
:10224000642802D90320BDE8F883286810F4807F51
:10225000F3D0D8F8200000F4407048B3A18801F40E
:102260004071814224D0D8F8200020F440702849E1
:1022700001220A6000220A60C8F8200010F0010F55
:1022800016D0FFF7A7FA0546D8F8200010F0020F85
:102290000ED141F28836FFF79DFA401BB04202D9B9
:1022A0000320BDE8F883D8F8200010F0020FF2D028
:1022B000D8F82000616820F440700843C8F8200076
:1022C000012F05D1D8F81C0020F08050C8F81C0060
:1022D000207810F0020F07D0D8F80400A16820F48D
:1022E00040400843C8F80400207810F0100F07D0D1
:1022F000D8F80400E16820F480000843C8F804001E
:102300000020BDE8F883000000100240007000408B
:10231000400442422DE9F04704460D46002C17D0F8
:10232000DFF85C81D8F8000000F00700A84212D264
:10233000D8F8000020F007002843C8F80000D8F8BB
:10234000000000F00700A84205D00120BDE8F0879A
:102350000120BDE8F08720684A4E10F0020F14D02B
:1023600010F0040F03D0706840F4E06070602078D3
:1023700010F0080F03D0706840F46050706070680F
:1023800020F0F001A06808437060207810F0010F81
:102390003AD06068012806D002280BD0316811F0CD
:1023A000020F27D00AE0316811F4003F06D1012066
:1023B000BDE8F087316811F0007F18D0716821F016
:1023C000030108437060FFF705FA0746706861680B
:1023D00000F00C00B0EB810F16D041F28839FFF706
:1023E000F9F9C01B484508D90320BDE8F087012052
:1023F000BDE8F0870120BDE8F0877068616800F0F3
:102400000C00B0EB810FEAD1D8F8000000F0070013
:10241000A8420FD9D8F8000020F007002843C8F8D8
:102420000000D8F8000000F00700A84202D0012008
:10243000BDE8F087207810F0040F05D07068E168DF
:1024400020F4E06008437060207810F0080F06D098
:102450007068216920F4605040EAC100706000F0AB
:102460003FF87168084AC1F30311515CC84007493D
:10247000086007480068FFF7F1FD0020BDE8F0871D
:1024800000200240001002400A9F0008A000002027
:10249000980000200148006870470000A00000205C
:1024A00000B5FFF7F7FF04494968044AC1F3022168
:1024B000515CC84000BD0000001002401A9F000897
:1024C00000B5FFF7E7FF04494968044AC1F3C22198
:1024D000515CC84000BD0000001002401A9F000877
:1024E0000E4B59680E4801F00C02042A11D0082A3C
:1024F0000FD10C48C1F38342805C11F4803F09D0B6
:102500005968094AC1F34041515C054A5043B0FB48
:10251000F1F0704705494843704700000010024041
:1025200000127A00FA9E0008F89E000800093D009B
:102530002DE9F84F0446002C0FD02078F84D10F00C
:10254000010F6CD0686800F00C0004280CD068689B
:1025500000F00C00082803D010E00120BDE8F88F3F
:10256000686810F4803F09D0286810F4003F56D006
:102570006068002853D10120BDE8F88F6068B0F58D
:10258000803F15D0C8B1B0F5A02F1FD0286820F427
:1025900080302860286820F480202860606858B364
:1025A000FFF718F90646286810F4003F17D036E008
:1025B000286840F480302860F0E7286820F48030F4
:1025C0002860286820F480202860E7E7286840F425
:1025D00080202860286840F480302860DEE7FFF71C
:1025E000F9F8801B642802D90320BDE8F88F286819
:1025F00010F4003FF3D012E0FFF7ECF8064628682D
:1026000010F4003F0BD0FFF7E5F8801B642802D9D7
:102610000320BDE8F88F286810F4003FF3D120783C
:10262000C04F10F0020F4FF0010B4FF0000854D0D4
:10263000686810F00C0F14D0686800F00C000828CF
:1026400003D1686810F4803F0BD0206978B3C7F8D5
:1026500000B0FFF7BFF80646286810F0020F12D04E
:102660001DE0286810F0020F05D02069012802D073
:102670000120BDE8F88F2868616920F0F80040EA81
:10268000C100286029E0FFF7A5F8801B022802D9C5
:102690000320BDE8F88F286810F0020FF3D02868F7
:1026A000616920F0F80040EAC100286015E0FFE70A
:1026B000C7F80080FFF78EF80646286810F0020F72
:1026C0000BD0FFF787F8801B022802D90320BDE852
:1026D000F88F286810F0020FF3D1207810F0080F5F
:1026E00030D09148A169C1B1C0F800B0FFF772F8CD
:1026F0000646686A10F0020F0BD1FFF76BF8801BDB
:10270000022802D90320BDE8F88F686A10F0020F92
:10271000F3D0012002F0DCFC14E0C0F80080FFF7E9
:1027200059F80646686A10F0020F0BD0FFF752F80E
:10273000801B022802D90320BDE8F88F686A10F0D8
:10274000020FF3D1207810F0040F6FD00026E86953
:1027500010F0805F08D1E86940F08050E861E869D6
:1027600000F0805000900126DFF8C0A1DAF80000E8
:1027700010F4807F1BD1DAF8000040F48070CAF8B2
:102780000000FFF727F88146DAF8000010F4807F98
:102790000DD1FFF71FF8A0EB0900642802D9032030
:1027A000BDE8F88FDAF8000010F4807FF1D0E0681F
:1027B000012816D0D0B1052821D0286A20F00100C8
:1027C0002862286A20F004002862E06841F2883A12
:1027D00068B3FEF7FFFF8146286A10F0020F17D09A
:1027E0003AE0286A40F001002862EEE7286A20F00B
:1027F00001002862286A20F004002862E5E7286AC0
:1028000040F004002862286A40F001002862DCE7FA
:10281000FEF7E0FFA0EB0900504502D90320BDE818
:10282000F88F286A10F0020FF2D015E01AE0FFE7E7
:10283000FEF7D0FF8146286A10F0020F0CD0FEF799
:10284000C9FFA0EB0900504502D90320BDE8F88F6D
:10285000286A10F0020FF2D1012E03D1E86920F0AE
:102860008050E861E069E8B3696801F00C0108296B
:102870005ED0022810D0C7F86080FEF7ABFF044698
:10288000286810F0007F66D0FEF7A4FF001B022826
:1028900041D90320BDE8F88FC7F86080FEF79AFFA2
:1028A0000646286810F0007F0BD0FEF793FF801BD0
:1028B000022802D90320BDE8F88F286810F0007FB5
:1028C000F3D1206AB0F5803F05D16868A16820F493
:1028D000003008436860616A206A0843696821F42F
:1028E000741100E037E008436860C7F860B0FEF795
:1028F00071FF0446286810F0007F2CD1FEF76AFFB4
:10290000001B022802D90320BDE8F88F286810F0C8
:10291000007FF3D01FE0286810F0007FB4D11AE0E8
:102920000010024000004242800442420070004019
:1029300001280DD06868226A00F48031914204D1E8
:10294000616A00F47010884205D00120BDE8F88F5C
:102950000120BDE8F88F0020BDE8F88F401EB0F1DF
:10296000807F01D3012070474FF0E0214861044A85
:10297000F020107000208861072008610020704757
:1029800023ED00E07047704790F83C20012A2CD0DE
:10299000012280F83C20CA680023D1F808C022F444
:1029A000407242EA0C02D1F804C022F4806242EA8A
:1029B0000C02D1F800C022F4006242EA0C02D1F805
:1029C00010C022F4805242EA0C02D1F814C022F462
:1029D000005242EA0C02C96922F4804211430268A3
:1029E000516480F83C30002070470220704730B4BA
:1029F00090F83C20012A30D0012480F83C4002228B
:102A000080F83D200268D2F804C093682CF0700C66
:102A10000D6845EA0C0CC2F804C00268A2F1804CB3
:102A2000BCF5963C0CD0B2F1804F09D0A2F1804C9D
:102A3000BCF5806C04D0A2F1804CBCF5006C04D1D4
:102A400023F0800349681943916080F83D400021DC
:102A500080F83C1030BC0020704730BC022070472A
:102A600010B50446002C03D094F83D0010B107E0E7
:102A7000012010BD002084F83C00204600F01EF824
:102A8000022084F83D00211D206802F07BFC01201B
:102A900084F8460084F83E0084F83F0084F8400043
:102AA00084F8410084F8420084F8430084F844002C
:102AB00084F8450084F83D00002010BD38B5044678
:102AC0001649206888420DD100BF1548806940F43E
:102AD0000060134988610846806900F40060009036
:102AE00000BF19E00F492068884215D100BF0C488B
:102AF000C06940F004000A49C8610846C06900F096
:102B00000400009000BF00BF002211461E20FFF706
:102B100011FB1E20FFF700FB38BD0000002C014018
:102B2000001002400008004090F83D10012901D03B
:102B300001207047022180F83D100168CA6842F008
:102B40000102CA600068A0F18041B1F5963112D04F
:102B5000B0F1804F0FD0A0F18041B1F580610AD073
:102B6000A0F18041B1F5006105D0016841F001019B
:102B7000016000207047816801F007010629F8D044
:102B8000016841F001010160F3E770B504460025DA
:102B900094F83C00012818D0012684F83C600220FB
:102BA00084F83D002068826822F0770222F47F4298
:102BB00082600868502839D00EDC202854D006DC0A
:102BC000002851D0102811D14EE0022070BD3028CD
:102BD0004AD040280AD13DE0602831D070280DD07D
:102BE000B0F5805F03D0B0F5005F13D0012584F805
:102BF0003D60002084F83C00284670BDCB684A68E0
:102C00008968206802F009FC2068816841F077013A
:102C10008160ECE7CB684A688968206802F0FDFBB8
:102C20002068816841F480418160E0E7CA684968B2
:102C3000206802F0C8FC5021206802F0F9FBD6E7BA
:102C4000CA684968206802F0D1FC6021206802F05F
:102C5000EFFBCCE7CA684968206802F0B4FC402169
:102C6000206802F0E5FBC2E722680146104602F048
:102C7000DFFBBCE770B504460D46002C03D094F88A
:102C80003D0010B107E0012070BD002084F83C0039
:102C9000204600F057F8022084F83D002068816843
:102CA00021F0070121F480418160211D206802F09C
:102CB00069FB206881688269036AD5F800C04CEA24
:102CC000010122F0030222F44072AE69D5F808C077
:102CD00042EA06224CEA020222F00C0222F440628E
:102CE00022F0F00222F47042EE69D5F80CC042EAFC
:102CF00006224CEA0202D5F810C02E6A4FEA0C1CDC
:102D00004CEA063C4CEA020223F02203D5F804C048
:102D10006D6943EA05134CEA030381602068826110
:102D200020680362012084F8460084F83E0084F89D
:102D30003F0084F8420084F8430084F83D000020FE
:102D400070BD000010B586B00446002002900390CC
:102D5000049005902068B0F1804F25D100BF28482D
:102D6000C06940F001002649C8610846C06900F00A
:102D70000100019000BF00BF00BF0846806940F01D
:102D8000040088610846806900F00400019000BFDB
:102D900000BF03200290002003900120049002A9AC
:102DA0001848FEF711FC28E017492068884224D112
:102DB00000BF1348C06940F002001149C8610846CD
:102DC000C06900F00200019000BF00BF00BF0846CC
:102DD000806940F0040088610846806900F00400C2
:102DE000019000BF00BFC02002900020039001208E
:102DF000049002A90348FEF7E7FB06B010BD0000EF
:102E000000100240000801400004004030B50446B4
:102E100094F83E0094F83F2094F8423094F843C070
:102E20000225002904D004290DD001281ED116E066
:102E3000012801D1012B01D0012030BD84F83E5082
:102E400084F842501CE0012A02D1BCF1010F01D0EC
:102E5000012030BD84F83F5084F8435010E0012A2F
:102E600004D1012B02D1BCF1010F01D0012030BDF2
:102E700084F83E5084F83F5084F8425084F8435020
:102E800091B1042916D001220021206802F0B6FA7F
:102E900001220421206802F0B1FA2068016841F0A3
:102EA00001010160002030BD01220021206802F0F4
:102EB000A5FAF2E701220421206802F09FFAECE76C
:102EC000704770B50446206801694FF0000511F0A5
:102ED000020F17D0C16811F0020F13D0E91E016173
:102EE000012020772068806910F0030F03D020466E
:102EF000FFF7E6FF05E0204600F0CAF8204600F0A4
:102F000063F925772068016911F0040F18D0C168B2
:102F100011F0040F14D06FF004010161022020773A
:102F20002068806910F4407F03D02046FFF7C8FF77
:102F300005E0204600F0ACF8204600F045F9257782
:102F40002068016911F0080F18D0C16811F0080F4E
:102F500014D06FF008010161042020772068C06957
:102F600010F0030F03D02046FFF7AAFF05E020462C
:102F700000F08EF8204600F027F9257720680169D7
:102F800011F0100F18D0C16811F0100F14D06FF0AD
:102F900010010161082020772068C06910F4407F8B
:102FA00003D02046FFF78CFF05E0204600F070F8C4
:102FB000204600F009F925772068016911F0010F1A
:102FC00009D0C16811F0010F05D06FF00101016156
:102FD000204600F053F92068016911F0800F09D0F4
:102FE000C16811F0800F05D06FF0800101612046AB
:102FF000FFF7C8FC2068016911F0400F09D0C168D3
:1030000011F0400F05D06FF040010161204600F043
:1030100045F92068016911F0200F0BD0C16811F04B
:10302000200F07D06FF0200101612046BDE87040FD
:10303000FFF7A9BC70BD000010B586B004460020A3
:1030400002900390049005900E492068884217D1A1
:1030500000BF0D48806940F004000B4988610846B4
:10306000806900F00400019000BF00BF4FF4706061
:10307000029002200390059002A90448FEF7A4FAEA
:1030800006B010BD002C01400010024000080140B5
:10309000704770B504460D46002694F83C000128A0
:1030A0000FD0012084F83C006AB1042A1FD0082AFE
:1030B00032D00C2A44D00126002084F83C0030464F
:1030C00070BD022070BD2946206802F0B9F9206861
:1030D000816941F0080181612068816921F0040162
:1030E0008161206881692A6911438161E4E7294689
:1030F000206802F0D9F92068816941F4006181619A
:103100002068816921F480618161206881692A6970
:1031100041EA02218161CFE72946206802F0F8F9EF
:103120002068C16941F00801C1612068C16921F0CE
:103130000401C1612068C1692A691143C161BBE70B
:103140002946206802F018FA2068C16941F400613C
:10315000C1612068C16921F48061C1612068C169D1
:103160002A6941EA0221C161A6E710B50446002C94
:1031700003D094F83D0010B107E0012010BD0020FD
:1031800084F83C00204600F01EF8022084F83D0040
:10319000211D206802F0F6F8012084F8460084F82A
:1031A0003E0084F83F0084F8400084F8410084F831
:1031B000420084F8430084F8440084F8450084F811
:1031C0003D00002010BD70477047000010B5044658
:1031D000002909D004290AD008290BD094F841000D
:1031E00001280AD0012010BD94F83E00F8E794F8B9
:1031F0003F00F5E794F84000F2E7022089B3042984
:1032000033D0082934D084F841000122206802F02C
:10321000F5F819492068884203D1426C42F4004213
:1032200042642068884212D0B0F1804F0FD0A0F1E4
:103230008041B1F580610AD0A0F18041B1F5006113
:1032400005D0016841F001010160002010BD8168D6
:1032500001F007010629F8D0016841F00101016081
:10326000F3E7FFE784F83E00CFE784F83F00CCE7C0
:1032700084F84000C9E70000002C014010B5044666
:1032800005492068884205D101F0C8FB01F03AFBEE
:1032900001F0A0FB10BD000000080040704770471F
:1032A00010B5044605492068884203D004492068C7
:1032B000884202D1204601F0DDFB10BD00380140FC
:1032C00000440040F8B5044622681068D16853698C
:1032D00000F00F0CBCF1000F0AD110F0200F07D046
:1032E00011F0200F04D02046BDE8F84002F0A6BA45
:1032F0000025BCF1000F75D003F0010C01F49076AD
:103300005CEA06066ED010F0010F06D011F4807F43
:1033100003D0626C42F00102626410F0040F06D028
:1033200013F0010F03D0626C42F00202626410F0ED
:10333000020F06D013F0010F03D0626C42F00402BA
:10334000626410F0080F08D001F0200252EA0C026B
:1033500003D0626C42F008026264626C002A35D0CD
:1033600010F0200F05D011F0200F02D0204602F0FF
:1033700065FA20684069C0F38010616C11F0080F95
:1033800000D148B3204602F0F0F92068406910F0FF
:10339000400F1CD02068143050E8001F21F040017D
:1033A00040E80012002AF5D1E06B60B15E4941634C
:1033B000E06BFDF7D5FE002808D0E06B416B01B053
:1033C000BDE8F04008472046FFF76AFFF8BD2046F9
:1033D000FFF766FFF8BD05E0FFE72046FFF760FF57
:1033E0006564F8BD236B012B7DD110F0100F7AD0EE
:1033F00011F0100F77D010685068009050694FF0AE
:10340000200310F0400F4FF0020643D0E16B086834
:10341000406880B20028E4D0A28D8242E1D9E085E4
:10342000886920282DD020680C3050E8001F21F436
:10343000807140E80012002AF5D12068143050E86D
:10344000001F21F0010140E80012002AF5D1206898
:10345000143050E8001F21F0400140E80012002A1B
:10346000F5D184F84230256320680C3050E8001F05
:1034700021F0100140E80012002AF5D1E06BFDF7C1
:103480004BFE6663A08DE18D401A81B22046FFF7A6
:1034900006FFF8BDA08DE18D401A81B2E08D0028B5
:1034A000F7D00029F5D020680C3050E8002F22F426
:1034B000907240E8002CBCF1000FF4D12068143069
:1034C00050E8002F22F0010240E8002CBCF1000F70
:1034D000F4D184F84230256320680C3050E8002F86
:1034E00022F0100200E008E040E80023002BF3D1B6
:1034F00066632046FFF7D3FEF8BD10F0800F07D0BB
:1035000011F0800F04D02046BDE8F84002F0B0BAB8
:1035100010F0400FF0D011F0400FEDD02046BDE884
:10352000F84002F049B900001556000870B504468D
:10353000002C04D094F84100002510B106E00120D1
:1035400070BD84F84050204600F024F8242084F810
:1035500041002068C16821F40051C160204602F09A
:10356000D3F92068016921F4904101612068416923
:1035700021F02A0141612068C16841F40051C16015
:103580006564202084F8410084F8420065630020CF
:1035900070BD000010B586B0044600200290039074
:1035A000049005903C492068884273D100BF3B4895
:1035B000806940F48040394988610846806900F498
:1035C0008040019000BF00BF00BF0846806940F006
:1035D000080088610846806900F00800019000BF7B
:1035E00000BF40200290022003900320059002A912
:1035F0002B48FDF7E9FF8020029000200390049003
:1036000002A92748FDF7E0FF00BF2649486840F0BF
:10361000E06040F00400486000BF23482349086090
:10362000002048600021214881608021C160002184
:1036300001614161202181610021C161FDF79AFE94
:1036400008B1FDF7D4FB00BF1848E063446200BF37
:1036500015481438164908601020486000211448A5
:1036600081608021C1600021016141618161C1618E
:10367000FDF780FE08B1FDF7BAFB00BF0C48A06360
:10368000446200BF002211462520FEF753FD25208D
:10369000FEF742FD06B010BD0038014000100240A8
:1036A000000C01400000014058000240DC020020F4
:1036B0002003002090F84230202B01D002207047D8
:1036C00021B11AB10023036302F082B901207047CF
:1036D00010B5044605492068884203D00449206893
:1036E000884202D1204601F036FD10BD003801406D
:1036F0000044004010B5044605492068884203D0C4
:1037000004492068884202D1204601F024FD10BD02
:10371000003801400044004037B5044694F84100A9
:10372000202802D003B0022030BD0199002933D0F7
:10373000002A31D02162A284E28400206064212327
:1037400084F84130D4F838C0154BCCF82830D4F880
:1037500038C0144BCCF82C30D4F838C0124BCCF80D
:103760003030A36B58632068134600F1040C6246A6
:10377000A06BFDF741FE21686FF0400008602068F3
:10378000143050E8001F41F0800140E80012002A88
:10379000F5D103B0002030BD03B0012030BD0000E2
:1037A0001D570008615700082556000810B504464B
:1037B00005492068884203D004492068884202D124
:1037C000204601F06DF910BD003801400044004072
:1037D000704700BFFEE7000010B50248FEF71CF876
:1037E00010BD0000200100202DE9FE4F04460D46CB
:1037F00016461F46DDE90D9ADDF830803B4632461D
:10380000294620468DE80007FEF758F910B9002038
:10381000BDE8FE8F0120FBE72DE9FE4F04460D4673
:1038200016461F46DDE90D9ADDF830803B463246EC
:10383000294620468DE80007FEF7CCFA10B9002093
:10384000BDE8FE8F0120FBE708B50022406A90F832
:103850003D302F4946F2A81C0968B1FBFCF1C1EBD1
:10386000C10101EB810100910099002934D0009938
:10387000491E00910168096811F4007FF4D1416B81
:1038800001B18A62816B01B18A620168D1F800C01E
:103890002CF4806CC1F800C04285416B01B14A63D1
:1038A000816B01B14A630168D1F800C02CF0010CB2
:1038B000C1F800C090F83DC02021BCF1600F10D0CD
:1038C0004FF0280C3CEA030313D080F83D1080F839
:1038D0003E20FEF707F808BD016C41F020010164AD
:1038E000CDE780F83D1080F83E200264FDF778FFB8
:1038F00008BD01680B6843F001030B6001680B68A9
:1039000043F480630B60026380F83DC0E1E7000090
:10391000A00000200068416911F0800F01D0002153
:103920000161704770B5044694F83D0094F83E106C
:10393000102901D0402906D1222804D121680A6823
:1039400022F400620A60282131EA00024FF00005EB
:103950004FF0200605D02168496811F4006F04D0AB
:1039600009E0256384F83D1006E0602803D084F860
:103970003D6084F83E5025632068416811F4006F73
:1039800035D0416821F400614160606B90F82120DE
:103990003D49012A0FD04163606BFDF7E1FB28B37D
:1039A0002068016821F00101016084F83D60606BCE
:1039B000416B88472CE0A06B4163A06BFDF7D0FB07
:1039C000A0B12068416911F0400F05D00069616A1B
:1039D0000870606A401C60622068016821F0010183
:1039E000016084F83D60A06B416B884710E094F85B
:1039F0003D10602914D0416911F0400F05D00069D5
:103A0000616A0870606A401C60622046FDF76AFFC8
:103A1000206C00F0010100F0020211431CD115E0FE
:103A200084F83D602564416911F0400F05D00069BC
:103A3000616A0870606A401C60622068016821F059
:103A4000010101602046FDF7CBFEE1E710F0040F15
:103A500002D110F0080F04D02068416821F4E06121
:103A6000416094F83D00216C11F0040F0BD0282820
:103A700009D10648E062256384F83D6084F83E5031
:103A80002046FEF719F870BD493800080000FFFF16
:103A900001684A6912F4806F11D06FF480624A6144
:103AA00000210163202280F83D2080F83E10026C46
:103AB00042F00402026480F83C10012070470020AC
:103AC000704700002DE9F84F0446DDF828A00B9D53
:103AD0000F4690461E462068016841F480610160EF
:103AE0002068016841F480710160534600224FF064
:103AF00001112046009500F072F94FF4007948B1A9
:103B00002068006810F4807F01D0C4F84090032042
:103B1000BDE8F88F216807F0FE000861DFF8F4B017
:103B20002B4652465946204600F0CEF910B10120EE
:103B3000BDE8F88F20684169806900902A465146A7
:103B4000204600F07AFA50B1206C042804D1206895
:103B5000016841F4007101600120BDE8F88F304632
:103B600008F0FF0601280DD021684FEA18200861EF
:103B70002A465146204600F060FA70B1206C0428B5
:103B800003D007E02068066109E02068016841F47D
:103B9000007101600120BDE8F88F206806612A46A7
:103BA0005146204600F049FA50B1206C042804D157
:103BB0002068016841F4007101600120BDE8F88FC0
:103BC0002068016841F480710160534600224FF083
:103BD00001112046009500F002F948B12068006804
:103BE00010F4807F01D0C4F840900320BDE8F88F26
:103BF0002168F8B240F0010008612B465246594650
:103C0000204600F061F910B10120BDE8F88F0020D6
:103C1000BDE8F88F020001002DE9F8430446DDF805
:103C20002090099F0D46164698462068016841F489
:103C3000807101604B4600224FF001112046009731
:103C400000F0CDF850B12068006810F4807F02D0F9
:103C50004FF4007020640320BDE8F883216805F06C
:103C6000FE0008613B464A461E49204600F02CF9FA
:103C700010B10120BDE8F883206841698069009097
:103C80003A464946204600F0D8F950B1206C042845
:103C900004D12068016841F4007101600120BDE891
:103CA000F883F5B2B8F1010F0CD02168300A086131
:103CB0003A464946204600F0C0F970B1206C04280D
:103CC00003D007E02068056109E02068016841F43D
:103CD000007101600120BDE8F883206805610020C3
:103CE000BDE8F8830200010070B5044694F83D1069
:103CF000E26A00232025DFF87CC020686FF480662C
:103D0000082A01D0202A01D1282903D0212917D03F
:103D1000466170BDC4F82CC0416821F4E061416087
:103D2000206846612068016821F480610160236396
:103D300084F83D5084F83E302046FDF7BDFE70BD4E
:103D4000C4F82CC02121216384F83D5084F83E3012
:103D5000416821F4E06141602068466120680168A3
:103D600021F4806101602046FFF7D4FD2046FEF774
:103D700059F970BD0000FFFF70B504460D461646A8
:103D80002068406910F0040F18D12046FFF780FE2C
:103D900008B1012070BDB5F1FF3F0AD0FDF71AFD53
:103DA000801BA84200D825B92068406910F0040F94
:103DB00006D02068406910F0040FE6D0002070BDE6
:103DC00000202063202184F83D1084F83E00216CFF
:103DD00041F02001216484F83C00012070BD2DE9F0
:103DE000F0470446DDF820900D4617461E46C5F301
:103DF00007482068B8F1010F13D0806925EA000058
:103E00000004000C17D00020B8424DD1B6F1FF3F9E
:103E10003DD0FDF7DFFCA0EB0900B0420DD866B144
:103E200035E0406925EA00000004000C01D00020C4
:103E3000EAE70120E8E70120E6E7B8F1010F19D031
:103E40002068806925EA00000004000C1DD00020D5
:103E5000B8421CD100202063202184F83D1084F852
:103E60003E00216C41F02001216484F83C000120D7
:103E7000BDE8F0872068406925EA00000004000CD6
:103E800001D00020E4E70120E2E70120E0E7B8F1FB
:103E9000010F0CD02068806925EA00000004000CA6
:103EA00010D00020B842B1D00020BDE8F0872068D3
:103EB000406925EA00000004000C01D00020F1E771
:103EC0000120EFE70120EDE72DE9F04704460D461C
:103ED00016469846C5F307472068012F26D080690B
:103EE00025EA00000004000C59D04FF000094FF003
:103EF000200A2068406910F4806F1ED02068016895
:103F000041F40071016021686FF480604861C4F879
:103F1000309084F83DA084F83E90206C40F004007E
:103F2000206484F83C900120BDE8F087406925EAD0
:103F300000000004000C32D0D7E7B6F1FF3F25D0D7
:103F4000FDF748FCA0EB0800B04200D8F6B9012FFD
:103F500015D02068806925EA00000004000C15D007
:103F6000C4F8309084F83DA084F83E90206C40F076
:103F70002000206484F83C900120BDE8F087206890
:103F8000406925EA00000004000CE9D1012F09D0A6
:103F90002068806925EA00000004000CA9D10020F7
:103FA000BDE8F0872068406925EA00000004000CA5
:103FB0009FD1F4E72DE9F04104460D4616462068EE
:103FC000406910F0400F27D100274FF020082068EB
:103FD000406910F0100F0FD020686FF010014161A0
:103FE000276384F83D8084F83E70206C206484F858
:103FF0003C700120BDE8F081FDF7ECFB801BA8427E
:1040000000D825B92068406910F0400F07D020681B
:10401000406910F0400FDAD00020BDE8F08127633E
:1040200084F83D8084F83E70206C40F020002064CD
:1040300084F83C700120BDE8F08170B504460D465F
:1040400016462068406910F0800F18D12046FFF70F
:104050001FFD08B1012070BDB5F1FF3F0AD0FDF78B
:10406000B9FB801BA84200D825B92068406910F030
:10407000800F06D02068406910F0800FE6D0002045
:1040800070BD00202063202184F83D1084F83E009C
:10409000216C41F02001216484F83C00012070BDB6
:1040A00000B5064800F065F8054800F062F80548DC
:1040B00000F05FF8044800F05CF800BD3E0000200E
:1040C00042000020460000204A00002010B50021D8
:1040D0000A48FFF77BF804210848FFF777F8082122
:1040E0000648FFF773F80C210448FFF76FF800202B
:1040F00001F09AF8002001F0BFF810BD7401002013
:1041000010B53C210348FEF781FE3C210248FEF732
:104110007DFE10BDBC010020040200200021C0F87B
:10412000E813491EC0F8EC130021C0F8F0137047E3
:1041300070B504460D4625600020C4F8EC07C4F8AD
:10414000040884F81C08201DFFF7E8FF04F57E70C2
:10415000FFF7E4FF20680068C06840F010002168A5
:104160000968C860142204F5FE612068FFF7A2FA0E
:1041700070BD002101808170C170704710B58368E7
:104180000B40BBB91388142B05DB1388B3F5167FDE
:1041900001DA012393701388B3F5167F01DB012345
:1041A000D370138841F27074A34207DA13885B1C42
:1041B000138003E0002313809370D37010BD2DE9AA
:1041C000FC4104460D4616466B4606223B216820FC
:1041D00000F0A0F80746BFB99DF801009DF8001057
:1041E00040EA012000B220809DF803009DF80210F3
:1041F00040EA012000B228809DF805009DF80410D7
:1042000040EA012000B230803846BDE8FC8108B5A4
:104210006B4602223B21682000F07CF89DF80100EB
:104220009DF8001040EA012000B208BD08B56B46B9
:1042300002223D21682000F06DF89DF801009DF8F4
:10424000001040EA012000B208BD08B56B4602220A
:104250003F21682000F05EF89DF801009DF80010F5
:1042600040EA012000B208BD2DE9FC4104460D469C
:1042700016466B4606224321682000F04BF807469D
:10428000BFB99DF801009DF8001040EA012000B27E
:1042900020809DF803009DF8021040EA012000B242
:1042A00028809DF805009DF8041040EA012000B226
:1042B00030803846BDE8FC8108B56B4602224321B8
:1042C000682000F027F89DF801009DF8001040EAF2
:1042D000012000B208BD08B56B46022245216820C6
:1042E00000F018F89DF801009DF8001040EA012048
:1042F00000B208BD08B56B4602224721682000F0D5
:1043000009F89DF801009DF8001040EA012000B274
:1043100008BD0000FEB504460D4616461F46642043
:10432000CDE900760290012000EB440103462A46C5
:104330000348FFF759FA08B10120FEBD0020FCE751
:1043400020010020FEB504460D4616461F46642097
:10435000CDE900760290002040EA440101232A467C
:104360000348FFF759FA08B10120FEBD0020FCE721
:10437000200100200EB5002000900190029013480B
:104380001349086000211248816001210173002156
:1043900001754FF46021C16100200D494860012181
:1043A0000B480161FCF7D2FD08B1FCF720FD0420A9
:1043B0000090012001900720029069460448FCF714
:1043C00031FD08B1FCF713FD0EBD000000240140D3
:1043D000AC00002008B500BF1248406940F0010061
:1043E000104948610846406900F00100009000BF94
:1043F00000BF002211460B20FDF79CFE0B20FDF7AD
:104400008BFE002211460E20FDF794FE0E20FDF7D4
:1044100083FE002211460F20FDF78CFE0F20FDF7D2
:104420007BFE08BD0010024000B585B00020019061
:1044300002900390049000BF4A48806940F0100049
:10444000484988610846806900F01000009000BF6C
:1044500000BF00BF0846806940F020008861084620
:10446000806900F02000009000BF00BF00BF084638
:10447000806940F0040088610846806900F004000B
:10448000009000BF00BF00BF0846806940F00800F0
:1044900088610846806900F00800009000BF00BFF6
:1044A00000224FF400513048FDF78CF90022202102
:1044B0002E48FDF787F9012230212D48FDF782F9BA
:1044C0004FF4005001900120029000200390022040
:1044D000049001A92448FDF777F8202001900120DD
:1044E0000290002003900120049001A91F48FDF7CD
:1044F0006BF8012001901F4802900020039001A951
:104500001B48FDF761F84FF44060019012200290C3
:104510000320049001A91648FDF756F84FF47040A7
:10452000019000200290039001A91148FDF74CF87A
:104530004FF4805001900F4802900020039001A991
:104540000A48FDF741F83020019001200290002038
:1045500003900220049001A90548FDF735F805B045
:1045600000BD0000001002400010014000080140A2
:10457000000C01400000211010B50B480B490860E9
:104580000B484860002109488160C1604FF48041B8
:104590000161002141618161C1610162FDF7B6F9EC
:1045A00008B1FCF724FC10BD00540040200100209D
:1045B000801A060000B595B000201190129013905B
:1045C00014900F9010901C2108A8FBF7F3FD2021F8
:1045D0006846FBF7EFFD37483749086047204860D9
:1045E00000213548816040F2E731C160002101615E
:1045F000416180218161FEF733FA08B1FCF7F7FBD6
:104600004FF48050119011A92B48FEF7BEFA08B163
:10461000FCF7EDFB2848FEF7A8FD08B1FCF7E7FB27
:1046200000200F9010900FA92348FEF7E0F908B181
:10463000FCF7DDFB60200890002009900A900B90A9
:104640000C900D900E90002208A91B48FEF721FD4A
:1046500008B1FCF7CCFB042208A91748FEF719FDA6
:1046600008B1FCF7C4FB082208A91348FEF711FDA6
:1046700008B1FCF7BCFB0C2208A90F48FEF709FDA6
:1046800008B1FCF7B4FB0020009001900290039069
:1046900004904FF4005005900020079069460648AA
:1046A000FEF772F908B1FCF7A2FB0348FEF7C4FC61
:1046B00015B000BD002C01407401002000B58BB086
:1046C000242102A8FBF776FD0020009001904FF016
:1046D0008040194908600020486000211648816028
:1046E0004FF6FF71C16000210161816103200290DA
:1046F0000020039001200490002005900F200690D8
:104700000020079001200890002009900F200A90B7
:1047100002A90948FEF7AEFA08B1FCF768FB0020D1
:104720000090019069460448FEF761F908B1FCF772
:104730005EFB0BB000BD0000BC01002000B58BB0DB
:10474000242102A8FBF736FD0020009001901948B3
:1047500019490860002048600021174881604FF621
:10476000FF71C1600021016181610320029000207E
:10477000039001200490002005900F200690002057
:10478000079001200890002009900F200A9002A9AC
:104790000948FEF76FFA08B1FCF729FB00200090EA
:1047A000019069460448FEF722F908B1FCF71FFBA7
:1047B0000BB000BD000400400402002000B587B02B
:1047C00000200390049005900690019002901548F7
:1047D000154908604720486000211348816040F275
:1047E000E731C1600021016180218161FEF738F964
:1047F00008B1FCF7FCFA4FF48050039003A90A4873
:10480000FEF7C3F908B1FCF7F2FA0020019002901C
:1048100001A90548FEF7EBF808B1FCF7E8FA07B084
:1048200000BD0000000800404C02002010B50B48FD
:104830000B4908604FF41650486000210848816019
:10484000C16001610C21416100218161C161FEF7FC
:104850006DFE08B1FCF7CBFA10BD00000038014036
:104860009402002000BFFEE700BFFEE77CB52148B0
:10487000008864283DDB00201E4908801E48B0F9EE
:104880000000FBF7FFFE05461C492846FBF734FDF8
:1048900005462C460F208DF8000001208DF8010000
:1048A000200E8DF80200200C8DF80300200A8DF8F0
:1048B0000400E0B28DF805000621684600F0D2FB46
:1048C0000F4804680F208DF8000002208DF80100C9
:1048D000200E8DF80200200C8DF80300200A8DF8C0
:1048E0000400E0B28DF805000621684600F0BAFB2E
:1048F00000BF7CBD600000205C0000200000C842BA
:10490000500000202DE9F04729480088401C284924
:10491000088028480088401C2649088008460088EE
:10492000012842DB00200880234A2449244803F060
:1049300019FBFFF7D0FC234908800846B0F90000B6
:10494000FBF7A0FE07463A461F4801681C4800686E
:10495000FCF7ECF88146FCF753FA00EB80004700C7
:10496000FCF748FA00EB80004FEA4008144839464B
:1049700002684046FCF7FEF8484404B22546264645
:1049800012490F480068FBF7F1FE05D910490C48A1
:104990000068FBF7E1FE01D800250026284600F05C
:1049A00043FC304600F068FC00BFBDE8F087000023
:1049B00060000020900000205800002054000020DB
:1049C000500000205C0000206C00002000004842E5
:1049D000000048C200B50C4A4FF400410B48FFF7F5
:1049E000CDFB0B4A4FF480410848FFF7C7FB094A4B
:1049F0004FF400510548FFF7C1FB074A4FF48051BF
:104A00000248FFF7BBFB00BD3E000020000C014048
:104A100042000020460000204A0000201048008884
:104A2000401C0F49088008460088052817DB002035
:104A300008800C480068406A404200B20A49088079
:104A4000002008490968486208480068406A4042F6
:104A500000B207490880002004490968486270478D
:104A600004000020BC0100200000002004020020FF
:104A70000200002070B505462846FCF7C7F9044639
:104A800004B970BD2068406C40B10020C4F804082F
:104A9000142204F5FE612068FEF70CFE00BFF0E76B
:104AA00070B505462846FCF7B1F9044604B970BD57
:104AB000002084F81C08204600F07EFB00BFF6E7CB
:104AC000704700002DE9F04F8FB0342102A8FBF7AA
:104AD00071FB322202A9F84800F01EFB074617B905
:104AE0000FB0BDE8F08F0024A6E202A8005D7D288B
:104AF00000D0A0E2641C254605E002A8405D7D28A8
:104B000000D102E06D1CBD42F7D300BF6D1E291B12
:104B100002AA1019FCF7C8F802A9495D884201D021
:104B20002C4688E202AE10E002A8005D7E2807D184
:104B3000601C044602A9085C203006F8010B03E063
:104B400002A8005D06F8010B641CAC42ECD92C46AF
:104B500002A8321A02A9D84800F049FB9DF80800C3
:104B60000B2879D2DFE800F006090A172E4952B661
:104B7000F2F1F000FDF724FB5BE25AE29DF8090038
:104B800010B9FCF76FF805E09DF80900012801D184
:104B9000FCF778F84DE29DF80B009DF80A1040EA0A
:104BA00001200FFA80F89DF8090018B9404600F07E
:104BB0003BFB06E09DF80900012802D1404600F0C9
:104BC0005BFB36E29DF8090018B9FCF713F9019078
:104BD00006E09DF80900012802D1FCF711F90190C7
:104BE000BDF8041088B200F085FA00B201900222EC
:104BF00001A9B14800F0FBFA1BE203F0CBFA0190E7
:104C0000012201A9AC4800F0F2FA12E29DF8090075
:104C100018BB01AA911E6846FFF7D1FABDF8001033
:104C200088B200F067FA00B2ADF80000BDF80210DB
:104C300088B200F05FFA00B2ADF80200BDF80410CF
:104C400088B200F057FA00B2ADF8040006226946B7
:104C5000994800F0CCFA3CE0EAE19DF8090001280F
:104C60000FD1FFF7D4FA0190BDF8041088B200F01C
:104C700041FA00B20190022201A98F4800F0B7FA70
:104C800027E09DF8090002280FD1FFF7CFFA019025
:104C9000BDF8041088B200F02DFA00B20190022293
:104CA00001A9854800F0A3FA13E09DF80900032844
:104CB0000FD1FFF7CAFA0190BDF8041088B200F0D6
:104CC00019FA00B20190022201A97B4800F08FFA84
:104CD00000BFAEE19DF8090010BB01AA911E684615
:104CE000FFF7C2FABDF8001088B200F003FA00B274
:104CF000ADF80000BDF8021088B200F0FBF900B278
:104D0000ADF80200BDF8041088B200F0F3F900B26B
:104D1000ADF8040006226946674800F068FA3EE0F4
:104D20009DF80900012812D1FFF7C6FA0190BDF8DD
:104D3000041088B200F0DEF900B20190022201A94D
:104D40005D4800F054FA2AE005E184E028E09DF88F
:104D5000090002280FD1FFF7BEFA0190BDF8041038
:104D600088B200F0C7F900B20190022201A95248AE
:104D700000F03DFA13E09DF8090003280FD1FFF77A
:104D8000B9FA0190BDF8041088B200F0B3F900B28E
:104D90000190022201A9484800F029FA00BF48E129
:104DA000464947480068FBF775FA8346FBF778FCED
:104DB0000FFA80F8414943480068FBF76BFA8346D5
:104DC000FBF76EFC0FFA80F93C493F480068FBF79F
:104DD00061FA8346FBF764FC0FFA80FA9DF809003C
:104DE00018B19DF8090001280CD14FEA18208DF860
:104DF000040008F0FF008DF80500022201A92E48EA
:104E000000F0F5F99DF8090018B19DF80900022895
:104E10000CD14FEA19208DF8040009F0FF008DF83D
:104E20000500022201A9244800F0E1F99DF80900DB
:104E300018B19DF8090003280CD14FEA1A208DF80B
:104E400004000AF0FF008DF80500022201A91A48AB
:104E500000F0CDF9EDE09DF80900F8BB9DF80B10CE
:104E60009DF80A2041EA022108B2FBF70BFC8046BC
:104E70001249FBF741FA154908609DF80D109DF89D
:104E80000C2041EA022108B2FBF7FCFB80461049E6
:104E9000FBF732FA0F4908609DF80F109DF80E20BD
:104EA00041EA022108B2FBF7EDFB80460849FBF717
:104EB00023FA094908604DE07403002000002041F6
:104EC0005000002054000020580000206400002002
:104ED0000000C8426C00002068000020FFE79DF839
:104EE000090001280FD19DF80B109DF80A2041EA16
:104EF000022108B2FBF7C6FB80465249FBF7FCF9DA
:104F00005149086026E09DF8090002280FD19DF85C
:104F10000B109DF80A2041EA022108B2FBF7B2FB10
:104F200080464A49FBF7E8F94949086012E09DF8D4
:104F3000090003280ED19DF80B109DF80A2041EAC4
:104F4000022108B2FBF79EFB80464049FBF7D4F9EB
:104F5000404908606DE09DF8090068BB9DF80B10A2
:104F60009DF80A2041EA022108B2FBF78BFB80463C
:104F70003649FBF7C1F9384908609DF80D109DF8D6
:104F80000C2041EA022108B2FBF77CFB80462F4946
:104F9000FBF7B2F9314908609DF80F109DF80E201B
:104FA00041EA022108B2FBF76DFB80462749FBF777
:104FB000A3F92B4908603AE09DF8090001280FD1B8
:104FC0009DF80B109DF80A2041EA022108B2FBF778
:104FD00059FB80461D49FBF78FF91F49086026E001
:104FE0009DF8090002280FD19DF80B109DF80A20AA
:104FF00041EA022108B2FBF745FB80461349FBF763
:105000007BF91649086012E09DF8090003280ED1CB
:105010009DF80B109DF80A2041EA022108B2FBF727
:1050200031FB80460949FBF767F90D49086000E04C
:1050300000BF00BF00BF641CBC42FFF456AD00BF00
:105040004EE5000000002041640000200000C8423E
:105050006C00002068000020700000207400002018
:105060007C000020F0B58DB005460F462E2101A82A
:10507000FBF7A0F81448006800900DF1010400202F
:1050800011E0295C7D2902D0295C7E2907D17E218F
:1050900004F8011B295C203904F8011B02E0295C9B
:1050A00004F8011B401CB842EBD36846261A31466F
:1050B000401CFBF7F9FD0DF80600721C6946034819
:1050C00000F095F80DB0F0BDF49E000874030020C8
:1050D00081B007494FF4FA520968B1FBF2F1484335
:1050E000009000BF0098411E0091FAD201B07047B5
:1050F000A00000200146080ACAB240EA0220704718
:105100007047000010B502490248FFF711F810BDC2
:10511000940200207403002070B504460E46154624
:1051200024B11EB115B1D4F8EC0708B9002070BD48
:10513000D4F8EC07A84201D2D4F8EC57D4F8EC0725
:10514000401BC4F8EC072A463146201DFBF7F8FD4A
:1051500005462846EBE770B506463046FBF756FE97
:10516000044604B970BD2068C06B00684068C0F197
:105170001405D4F80408A84200D1F3E7D4F80408D1
:10518000A8420BD9D4F80408C0F11402034604F570
:10519000FE601918201DFBF7FBFD09E0D4F8040898
:1051A0002A1A034604F5FE601918201DFBF7F0FDCE
:1051B000C4F8045800BFD5E770B50446D4F8E857E2
:1051C00005B970BD142D00D91425012084F81C08E0
:1051D0002A4604F6080104F57E70FBF7B1FDAAB279
:1051E00004F608012068FEF797FA00BFE9E770B5FA
:1051F00004460E46154634B12EB125B1D4F8E80761
:10520000B0F57A7F01D3002070BD2A46314604F5FF
:105210007E70FBF7BDFD054694F81C0810B92046CA
:10522000FFF7CAFF2846EFE71249898909B2814290
:1052300003DA1049898908B209E00E49898909B25F
:105240004942814203DD0B498989494208B200285D
:1052500007DB0021074A1268D16306490968086420
:1052600007E04142034A1268D1630021014A1268F3
:1052700011647047740100201249898909B2814282
:1052800003DA1049898908B209E00E49898909B20F
:105290004942814203DD0B498989494208B200280D
:1052A00007DB0021074A12685163064909688863D1
:1052B00007E04142034A126851630021014A126823
:1052C000916370477401002000B503461846FBF750
:1052D0009DFD024602B900BDD2F8F403C2F8EC0706
:1052E00000BFF8E710B5FCF79FFE10BD00B593B006
:1052F000282109A8FAF75EFF142104A8FAF75AFF3B
:105300000020009001900290039001200990000479
:105310000A9000200B9001200D9002201090C103F4
:1053200011914FF4E011129109A8FDF701F908B1AC
:10533000FBF75DFD0F2004900220059000200690F1
:105340004FF48060079000200890022104A8FCF729
:10535000E1FF08B1FBF74BFD022000904FF4404005
:1053600002906846FCF73EFF08B1FBF740FD13B022
:1053700000BD704710B50248FDF7A3FD10BD000049
:105380004C02002030B40268194B1A4CDFF868C098
:10539000984206D0B0F1804F03D0A04201D06045C2
:1053A00003D122F070024D682A43984206D0B0F132
:1053B000804F03D0A04201D0604505D122F4407255
:1053C000D1F80CC04CEA0202D1F814C022F08002DD
:1053D00042EA0C0202608A68C2620A6882629842EB
:1053E00001D1096901630121416130BC70470000AE
:1053F000002C0140000400400008004001F01F01A3
:1054000001238B40D0F820C02CEA03030362036A17
:1054100002FA01F1194301627047D0F808C02CF478
:105420007F4C42EA0322114341EA0C01816070473C
:10543000826822F07002114341F0070181607047D9
:1054400010B4036A026A22F0010202624268D0F8D4
:1054500018C02CF0700C2CF0030C0C6844EA0C0CF7
:1054600023F002038C6823430E4CA04206D123F0A4
:105470000803CC6844EA030323F0040309D122F4AF
:10548000807222F400724C6944EA02028C6944EA98
:1054900002024260C0F818C049684163036210BC50
:1054A00070470000002C014010B4036A026A22F029
:1054B000100202624268D0F818C02CF4E04C2CF4C0
:1054C000407C0C684CEA042C23F020038C6843EAEF
:1054D00004130E4CA04206D123F08003CC6843EAAB
:1054E000041323F0400309D122F4806222F4006205
:1054F0004C6942EA84028C6942EA84024260C0F844
:1055000018C049688163036210BC7047002C0140D9
:1055100010B4036A026A22F4807202624268D0F810
:105520001CC02CF0700C2CF0030C0C6844EA0C0C22
:1055300023F400738C6843EA04230E4CA04206D186
:1055400023F40063CC6843EA042323F4806309D185
:1055500022F4805222F400524C6942EA04128C690F
:1055600042EA04124260C0F81CC04968C163036289
:1055700010BC7047002C014010B4036A026A22F488
:10558000805202624268D0F81CC02CF4E04C2CF42B
:10559000407C0C684CEA042C23F400538C6843EAEA
:1055A0000433A0F18044B4F5963404D122F480424F
:1055B0004C6942EA84124260C0F81CC04968016428
:1055C000036210BC7047036AD0F820C02CF0010CB5
:1055D000C0F820C0D0F818C02CF0F00C4CEA021231
:1055E00023F00A031943826101627047036AD0F80D
:1055F00020C02CF0100CC0F820C0D0F818C02CF43B
:10560000704C4CEA023223F0A00343EA011182619C
:105610000162704710B5406A0021C185C184FDF761
:105620003FFE10BD70B5446A20684069C0F3C010E9
:1056300094F841100025212904D118B1E5842046B1
:1056400000F0C7F820684069C0F3801094F8421059
:10565000222904D118B1E585204600F086F8606C57
:1056600040F0100060642046FDF71AFE70BD10B5D2
:105670000146486A096809684FF0000311F0200FDD
:1056800032D1C38501680C3151E8002F22F48072B9
:1056900041E8002CBCF1000FF4D10168143151E84D
:1056A000002F22F0010241E8002CBCF1000FF4D1E0
:1056B0000168143151E8002F22F0400241E8002C2B
:1056C000BCF1000FF4D1202180F84210016B0129B8
:1056D0000AD101680C3151E8002F22F0100241E894
:1056E000002CBCF1000FF4D14363016B012902D0FF
:1056F000FDF7EEFF10BD818DFDF7D1FD10BD10B59A
:10570000406A01214163016B012902D0FDF7F2FFDC
:1057100010BD818D4908FDF7C2FD10BD10B50146D1
:10572000486A0968096811F0200F02D0FEF73EF8B8
:1057300010BD0021C1840168143151E8002F22F00E
:10574000800241E80023002BF5D101680C3151E8BB
:10575000002F42F0400241E80023002BF5D110BD9C
:1057600010B5406AFEF734F810BD01680C3151E8FD
:10577000002F22F4907241E80023002BF5D101683C
:10578000143151E8002F22F0010241E80023002BE0
:10579000F5D1016B012909D101680C3151E8002FC5
:1057A00022F0100241E80023002BF5D1202180F8DF
:1057B000421000210163704710B50168CA6822F0E9
:1057C0004002CA60202180F84110FDF7EFFF002061
:1057D00010BD01680C3151E8002F22F0C00241E8F1
:1057E0000023002BF5D1202180F8411070470000E4
:1057F00038B504462068006800F01000102818D161
:1058000000BF002000902068006800902068406879
:10581000009000BF00BF07492068884203D00649B6
:105820002068884205D12046FFF795FC2046FFF707
:105830004BFD38BD003801400044004008B590F8E9
:105840004210222901D0022008BD8268B2F5805F93
:1058500001D1016929B1816AB2F5805F1DD052B1D1
:105860000BE0816A02685268C2F308020A80816A0A
:10587000891C816209E002697AB10268526802F00B
:105880007F020A70816A491C8162C18D491E090428
:10589000090CC18505D0002008BD026852680A7055
:1058A000F0E70168CA6822F02002CA600168CA688D
:1058B00022F48072CA6001684A6922F001024A61DA
:1058C000202180F8421000214163026B012A03D09D
:1058D000FDF7FEFE002008BD016301680C3151E8B0
:1058E000002F22F0100241E80023002BF5D10168BF
:1058F0000A6812F0100F02D00A6849680091818D81
:10590000FDF7CDFCE6E7000070B5044620680169AC
:10591000E26821F44051114301612169A068084304
:10592000616901432068C26822F4037222F4A05224
:105930001143C16020684169A26921F4407111439B
:1059400041612068A0F18041B1F59C313AD0FCF76B
:10595000A7FD00EBC00101EB001061681B4A890044
:10596000B0FBF1F3A2FB0353B0FBF1FC5B096FF05A
:1059700018056B430CEB83034FF0320C0CEB031355
:10598000A2FB03535B0903F0F005B0FBF1F3A2FBAC
:1059900003635B0905EB0313B0FBF1F5B0FBF1F01A
:1059A000A2FB001040096FF01801484305EB80008E
:1059B0000CEB0010A2FB00102168C0F34310184448
:1059C000886070BDFCF77CFDC3E700001F85EB51CC
:1059D00017B581B004461346029AA262A38500203F
:1059E0006064222184F84210D4F83CC01D49CCF8F0
:1059F0002810D4F83CC01C49CCF82C10D4F83CC07A
:105A00001A49CCF83010E16B48632068011DE06B47
:105A1000FBF7F2FC2068016840680090206948B1FB
:105A200020680C3050E8001F41F4807140E80012FB
:105A3000002AF5D12068143050E8001F41F0010120
:105A400040E80012002AF5D12068143050E8001F09
:105A500041F0400140E80012002AF5D104B00020D6
:105A600010BD00006F560008FF56000825560008BC
:105A700090F84110212901D0022070478168B1F5CA
:105A8000805F01D1016961B1016A4A1C026202684A
:105A900009785160C18C491E0904090CC1840AD0DF
:105AA00013E0016A02680988C1F308015160016AC4
:105AB000891C0162EEE70168CA6822F08002CA60B0
:105AC0000068C16841F04001C160002070470000DB
:105AD00010B50348FFF78CFE0148FDF7F3FB10BD3E
