:020000040800F2
:10000000980E0020010100087F2B0008CB2100087A
:100010007D2B00086D010008693700080000000012
:10002000000000000000000000000000512E000849
:10003000C101000800000000292E0008852F0008DB
:100040001B0100081B0100081B0100081B01000820
:100050001B0100081B0100081B0100081B01000810
:100060001B0100081B0100081B0100081B01000800
:100070001B0100081B010008710100087D01000838
:100080001B0100081B0100081B0100081B010008E0
:100090001B0100081B0100081B0100081B010008D0
:1000A0001B010008E92F00081B0100081B010008C4
:1000B000F52F00081B0100081B0100081B010008A8
:1000C0001B0100081B0100081B0100081B010008A0
:1000D0001B010008513700081B0100081B01000824
:1000E0000F0200081B0100081B010008DFF80CD0FC
:1000F00000F02AF800480047DD370008980E00207D
:100100000648804706480047FEE7FEE7FEE7FEE7B1
:10011000FEE7FEE7FEE7FEE7FEE7FEE7E72F000863
:10012000ED000008D2B201E000F8012B491EFBD21D
:1001300070470022F6E710B513460A4604461946F2
:10014000FFF7F0FF204610BD064C074D06E0E068C3
:1001500040F0010394E8070098471034AC42F6D30E
:10016000FFF7C8FF2042000840420008FEE70000F9
:10017000014800F0F7B80000F4010020014800F049
:10018000F1B80000B001002010B490F840C0012484
:1001900004FA0CFCC46BC4F804C0D0F800C0CCF85E
:1001A00004304368102B05D0036899600068C26072
:1001B00010BC704703689A600068C16010BC70474B
:1001C0007047000070B5D0F8F03333B1934200D2DD
:1001D0001A4600234FF47A7410E0002070BD00BF6F
:1001E000D0F8E853455DCD54D0F8E8536D1CB5FB0D
:1001F000F4F604FB16555B1CC0F8E8539342EFD3AA
:10020000D0F8F013891AC0F8F013104670BD10B57D
:100210004FF4804000F0F4F9BDE810404FF4004086
:1002200000F0EEB970B5D0F8F0334FF47A75AB4208
:1002300007D232B1C3F57A73934200D21A46002333
:100240000EE0002070BD00BFD0F8EC43641CB4FB8E
:10025000F5F605FB1644C0F8EC43CE5C06555B1C76
:100260009342F1D3D0F8F0131144C0F8F0131046C4
:1002700070BD72B6FEE790F821100022022905D069
:100280000421816380F820200120704701680B68F9
:1002900023F00E030B6001680B6823F001030B6071
:1002A00090F84030D0F83CC0012101FA03F3CCF8BB
:1002B000043080F8211080F820201046704700009C
:1002C00010B5002490F82110022903D00421816385
:1002D000012437E001680A6822F00E020A60016812
:1002E0000A6822F001020A60174A0168914201D1AE
:1002F00001211CE0154A914201D1102117E0144A56
:10030000914201D1891512E0124A914201D189141A
:100310000DE0114A914202D14FF4803107E00F4ABB
:10032000914202D14FF4801101E04FF080710C4AEC
:100330005160012180F82110002180F82010416BCC
:1003400001B18847204610BD080002401C00024051
:100350003000024044000240580002406C0002405D
:10036000000002402DE9F05FC16B0A6801680B686C
:10037000D0F840C0042404FA0CF414424E4C4F4D03
:100380004F4E504FDFF84081DFF8409131D013F0ED
:10039000040F2ED00A6812F0200F03D10A6822F051
:1003A00004020A600168A14201D1042119E0A942B6
:1003B00001D1402115E0B14202D14FF4806110E03B
:1003C000B94202D14FF480410BE0414502D14FF4D4
:1003D000802106E0494502D14FF4800101E04FF051
:1003E00080613B4A5160C16A002962D0BDE8F05F7C
:1003F00008474FF0020A0AFA0CFA1AEA020F4FF005
:10040000000A4FF0010B35D013F0020F32D00A680A
:1004100012F0200F05D10A6822F00A020A6080F863
:1004200021B00168A14201D1022119E0A94201D104
:10043000202115E0B14202D14FF4007110E0B94221
:1004400002D14FF400510BE0414502D14FF400318D
:1004500006E0494502D14FF4001101E04FF0007170
:100460001B4A516080F820A0816A002921D0BDE894
:10047000F05F0847082404FA0CFC1CEA020F18D0AD
:1004800013F0080F15D00A6822F00E020A6090F8E7
:100490004010C26B0BFA01F15160C0F838B080F81F
:1004A00021B080F820A0016B002902D0BDE8F05FE8
:1004B0000847BDE8F09F0000080002401C00024011
:1004C0003000024044000240580002406C000240EC
:1004D0000000024010B4002834D01C4A01688B1878
:1004E0001B4AA2FB0332120992000264194AC2633A
:1004F000022280F821200A686FF30D12D0F808C09C
:100500004368046943EA0C03D0F80CC04CEA040CBD
:1005100043EA0C03D0F814C043EA0C03D0F818C027
:1005200043EA0C03D0F81CC043EA0C031A430A60E8
:1005300000218163012280F8212080F8201010BC66
:100540000020704710BC012070470000F8FFFDBF7D
:10055000CDCCCCCC0000024070B50446002594F808
:10056000200001280DD0012084F8200094F821C03B
:100570000020BCF1010F06D084F820000225284697
:1005800070BD022070BD4FF0020C84F821C0A06342
:100590002068D0F800C02CF0010CC0F800C0204644
:1005A000FFF7F2FDE06A28B12068016841F00E0112
:1005B000016009E02068016821F004010160206801
:1005C000016841F00A0101602068016841F0010101
:1005D0000160D4E770B5044600F032F90546B4F185
:1005E000FF3F02D004480078044400F029F9401B82
:1005F000A042FAD370BD00002000002002F0CABB68
:1006000010B504490A68024202D00860FFF7F6FFFD
:1006100010BD0000140401402DE9F84F4FF0000C0C
:1006200000230A68002A7DD0DFF8DC810F27A8F1BB
:10063000040A08F10409AAF1040B012202FA0CF6DB
:100640000A683240B2426ED1DFF8C0E14C68A4EBD8
:100650000E0574452BD00DDC032C34D005DC34B3EF
:10066000012C19D0022C2FD11BE0112C16D0122CEA
:100670002AD119E0B5F5881F19D006DCB5F5803F01
:1006800015D0B5F5801F1FD111E0B5F5001F0ED0B4
:10069000B5F5041F18D10AE0CB6815E0CB681B1D27
:1006A00012E0CB6808330FE0CB680C330CE08B68AA
:1006B00023B1012B04D00823466105E0042303E0A5
:1006C0000823066100E00023B2F5807F01D20546D1
:1006D00001E000F1040502D24FEA8C0403E0ACF122
:1006E00008044FEA84042E6807FA04FE26EA0E0680
:1006F00003FA04F446EA04042C604C6814F0805FAA
:1007000079D0434CA56945F00105A561A46904F0C1
:10071000010400942CF0030404F1804404F58034B7
:10072000A66801E06EE066E04FEA8C754FEA157549
:1007300007FA05FE26EA0E0EA0F18046B6F58436CD
:100740001ED0A0F18046B6F586361BD0A0F18046BB
:10075000B6F5883618D0A0F18046B6F58A3615D0A1
:10076000042606FA05F545EA0E05A5604C6814F462
:10077000801F0DD0D8F800401443C8F800400CE0AA
:100780000026EEE70126ECE70226EAE70326E8E783
:10079000D8F800409443C8F800404C6814F4001F97
:1007A00005D0D9F800401443C9F8004004E0D9F856
:1007B00000409443C9F800404C6814F4003F05D051
:1007C000DAF800401443CAF8004004E0DAF80040C8
:1007D0009443CAF800404C6814F4803F05D0DBF81D
:1007E00000402243CBF8002005E0DBF8004024EA7B
:1007F0000202CBF800200CF1010C0A6832FA0CF26C
:100800007FF41BAFBDE8F88F080401400000111011
:10081000001002408068084201D00120704700208B
:100820007047C26821EA0203114043EA01410161B5
:100830007047002A01D001617047090401617047C7
:1008400001488068704700002000002070B5044611
:10085000002C04D094F83D00002510B106E00120E2
:1008600070BD84F83C50204600F00CFB242084F836
:100870003D002068016821F00101016020680168E5
:1008800041F4004101602068016821F400410160E9
:1008900000F0B8FC544B6168994203D85349884230
:1008A00003D304E05249884201D2012070BD51496E
:1008B000B0FBF1F12268D2F804C02CF03F0C4CEAF6
:1008C000010CC2F804C062689A4201D84A1C07E0D1
:1008D0004FF4967251434FF47A72B1FBF2F14A1C15
:1008E0002168D1F820C02CF03F0C42EA0C020A62C9
:1008F0006168994210D84900401EB0FBF1F2521CC9
:10090000C2F30B02042A01D2042026E0B0FBF1F06E
:10091000401CC0F30B0020E0A268002A50D001EB7D
:10092000C10303EB0113A0F1010CBCFBF3F35B1C4F
:1009300043F480431B051B0D4AD0002A4AD001EB2B
:10094000C10202EB0111401EB0FBF1F0401CC0F3EC
:100950000B0040F4804040F400402168CA6922F056
:10096000FF0222F44F421043C861216AE06901434B
:100970002068026822F0C00211430160E16820692A
:1009800001432068826822F0FF0222F403421143EF
:100990008160A169606901432068C26822F0FF029A
:1009A0001143C1602068016841F0010101602564C4
:1009B000202084F83D00256384F83E50002070BD5F
:1009C00001EB4103A0F1010CBCFBF3F35B1CB1E7AD
:1009D0000120C2E701EB4101401EB0FBF1F0401CD9
:1009E000C0F30B00B7E70000A086010080841E0062
:1009F00000093D0040420F002DE9FF4F83B004463F
:100A0000DDF84490DDF84080129E8A469346002728
:100A10000297FFF715FF054694F83D00202803D004
:100A200007B00220BDE8F08F19230122B449204607
:100A3000009501F02AFD18B107B00220BDE8F08F43
:100A400094F83C00012808D0012084F83C0020687C
:100A5000016811F0010F04D007E007B00220BDE8E3
:100A6000F08F016841F0010101602068016821F404
:100A700000610160222084F83D00402084F83E009F
:100A80002764C4F82480A4F82A90608D20859D48AE
:100A9000E062019500965A4651462046069B01F0B9
:100AA000AFFB18B107B00120BDE8F08F208D68B30F
:100AB000012834D0022842D02068016841F48061C6
:100AC00001602068416980690190208D4FF0200805
:100AD000002800F00B81DFF830B2DFF8309246F2E8
:100AE000A81A208D032800F2D680012837D00228CA
:100AF0004DD03346002259462046009501F0C5FCF2
:100B0000002872D007B00120BDE8F08F206841694D
:100B100081690191016841F400710160D5E72068A5
:100B2000016821F48061016072B6206841698169C1
:100B30000191016841F40071016062B6C5E7206867
:100B4000016841F40061016072B620684169816901
:100B50000191016821F48061016062B6B5E72A461F
:100B60003146204601F07CFD18B107B00120BDE8F8
:100B7000F08F20680069616A0870606A401C6062DA
:100B8000208D401E2085608D401E6085AAE0334682
:100B9000002259462046009501F077FC18B107B0B5
:100BA0000120BDE8F08F72B62068016841F4007141
:100BB000016020680069616A0870606A401C6062B8
:100BC000218D491E2185618D491E618562B621688E
:100BD00009690170606A401C6062208D401E20859A
:100BE000608D401E60857DE0FFE72068016821F48C
:100BF0008061016072B620680069616A0870606A8D
:100C0000401C6062208D401E2085608D401E6085E6
:100C1000D9F80000B0FBFAF0C0EBC00000EB800098
:100C200002900298401E0290029820B3206840690A
:100C300010F0040FF5D02068016841F400710160E4
:100C400020680069616A0870606A401C6062218DDA
:100C5000491E2185618D491E618562B62168096939
:100C60000170606A401C6062208D401E2085608D8E
:100C7000401E608536E0276384F83D8084F83E702E
:100C8000206C40F02000206462B684F83C7007B00D
:100C90000120BDE8F08F2A463146204601F0E0FCF5
:100CA00018B107B00120BDE8F08F20680069616AC3
:100CB0000870606A411C6162208D401E2085608D35
:100CC000401E60852068426912F0040F0AD0006956
:100CD0000870606A401C6062208D401E2085608D17
:100CE000401E6085208D00287FF4FBAE84F83D8097
:100CF00084F83E7084F83C7007B00020BDE8F08FA7
:100D0000020010000000FFFF040001002C00002082
:100D10002DE9FF4F83B004468A469346DDF84490A0
:100D2000DDF84080129EFFF78BFD054694F83D00EC
:100D3000202803D007B00220BDE8F08F192301223C
:100D40004E492046009501F0A0FB18B107B00220E3
:100D5000BDE8F08F94F83C00012808D0012084F809
:100D60003C002068016811F0010F04D007E007B0D3
:100D70000220BDE8F08F016841F0010101602068A8
:100D8000016821F400610160212084F83D004020C9
:100D900084F83E0000272764C4F82480A4F82A9031
:100DA000608D20853648E062019500965A4651468E
:100DB0002046069B01F0CEFA18B107B00120BDE82D
:100DC000F08F208D002836D02A463146204601F08B
:100DD0008AFC58B1206C042804D12068016841F4D1
:100DE0000071016007B00120BDE8F08F606A2168E2
:100DF00000780861606A00F1010CC4F824C0208DFD
:100E0000401E80B22085618D491E61852368596925
:100E100011F0040F0CD058B19CF800001861606A02
:100E2000401C6062208D401E2085608D401E6085C4
:100E3000208D0028C8D12A463146204601F0F2FA1A
:100E400058B1206C042804D12068016841F4007175
:100E5000016007B00120BDE8F08F2068016841F40F
:100E600000710160202084F83D0084F83E7084F811
:100E70003C7007B00020BDE8F08F000002001000B9
:100E80000000FFFF30B585B0002100910191029173
:100E900003911E4D03681E4C122103221D48AB42D4
:100EA00016D1A36943F00803A361A369039203F079
:100EB00008030493C023CDE900316946FFF7ACFB7A
:100EC000E06940F40010E061E06900F4001019E00E
:100ED000114DAB4217D1A36943F00803A361A36985
:100EE000039203F0080304934FF44063CDE900310B
:100EF0006946FFF791FBE06940F48000E061E0693A
:100F000000F48000049005B030BD000000540040A3
:100F100000100240000C0140005800400248816867
:100F200002781144816070472000002010B5074806
:100F3000016841F010010160032000F08BF80020EF
:100F400000F006F800F026F8002010BD0020024056
:100F500070B504460D4D4FF47A712878B1FBF0F06E
:100F60000B490968B1FBF0F000F0AAFB08B10120C1
:100F700070BD102C07D200222146501E00F036F81A
:100F80006C60002070BD012070BD000020000020BA
:100F90002C0000200C4808B5816941F001018161F5
:100FA000816901F001010091C16941F08051C16185
:100FB000C06900F0805000900448416821F0E06171
:100FC00041F00071416008BD001002400000014086
:100FD00000280ADB00F01F01012202FA01F140099A
:100FE000800000F1E020C0F80011704710B4184BE9
:100FF0001B68C3F30223C3F1070CBCF1040F01D932
:101000004FF0040C1C1D072C01D2002300E0DB1E56
:10101000012404FA0CFCACF1010C0CEA010199402A
:1010200004FA03F35B1E1A401143002806DB00F1AB
:10103000E020090180F8001410BC704700F00F0098
:1010400000F1E020090180F8141D10BC7047000079
:101050000CED00E000F00700064A11684FF6FF03B0
:10106000194041EA002040F0FD7040F080601060BF
:10107000704700000CED00E02DE9F04704460D46F6
:10108000002C17D0DFF85C81D8F8000000F00700D2
:10109000A84212D2D8F8000020F007002843C8F870
:1010A0000000D8F8000000F00700A84205D0012099
:1010B000BDE8F0870120BDE8F08720684A4E10F0B7
:1010C000020F14D010F0040F03D0706840F4E060F9
:1010D0007060207810F0080F03D0706840F4605002
:1010E0007060706820F0F001A0680843706020789C
:1010F00010F0010F3AD06068012806D002280BD00A
:10110000316811F0020F27D00AE0316811F4003F76
:1011100006D10120BDE8F087316811F0007F18D0BA
:10112000716821F0030108437060FFF789FB0746EF
:101130007068616800F00C00B0EB810F16D041F2CE
:101140008839FFF77DFBC01B484508D90320BDE85F
:10115000F0870120BDE8F0870120BDE8F0877068C6
:10116000616800F00C00B0EB810FEAD1D8F8000004
:1011700000F00700A8420FD9D8F8000020F00700BF
:101180002843C8F80000D8F8000000F00700A84283
:1011900002D00120BDE8F087207810F0040F05D0C0
:1011A0007068E16820F4E06008437060207810F017
:1011B000080F06D07068216920F4605040EAC10031
:1011C000706000F03FF87168084AC1F30311515C88
:1011D000C8400749086007480068FFF7B9FE0020CB
:1011E000BDE8F087002002400010024006420008DF
:1011F0002C000020240000200148006870470000F7
:101200002C00002000B5FFF7F7FF04494968044AA5
:10121000C1F30221515CC84000BD00000010024033
:101220001642000800B5FFF7E7FF04494968044A81
:10123000C1F3C221515CC84000BD00000010024053
:10124000164200080E4B59680E4801F00C02042AA1
:1012500011D0082A0FD10C48C1F38342805C11F4ED
:10126000803F09D05968094AC1F34041515C054AA1
:101270005043B0FBF1F07047054948437047000008
:101280000010024000127A00F6410008F441000804
:1012900000093D002DE9F84F0446002C0FD02078BE
:1012A000F84D10F0010F6CD0686800F00C000428B5
:1012B0000CD0686800F00C00082803D010E0012072
:1012C000BDE8F88F686810F4803F09D0286810F4F2
:1012D000003F56D06068002853D10120BDE8F88F48
:1012E0006068B0F5803F15D0C8B1B0F5A02F1FD011
:1012F000286820F480302860286820F48020286046
:10130000606858B3FFF79CFA0646286810F4003F5F
:1013100017D036E0286840F480302860F0E728686D
:1013200020F480302860286820F480202860E7E7D7
:10133000286840F480202860286840F480302860C5
:10134000DEE7FFF77DFA801B642802D90320BDE8A1
:10135000F88F286810F4003FF3D012E0FFF770FA1E
:101360000646286810F4003F0BD0FFF769FA801B8F
:10137000642802D90320BDE8F88F286810F4003FE4
:10138000F3D12078C04F10F0020F4FF0010B4FF057
:10139000000854D0686810F00C0F14D0686800F092
:1013A0000C00082803D1686810F4803F0BD0206936
:1013B00078B3C7F800B0FFF743FA0646286810F084
:1013C000020F12D01DE0286810F0020F05D020692E
:1013D000012802D00120BDE8F88F2868616920F05B
:1013E000F80040EAC100286029E0FFF729FA801BD5
:1013F000022802D90320BDE8F88F286810F0020FF8
:10140000F3D02868616920F0F80040EAC100286044
:1014100015E0FFE7C7F80080FFF712FA06462868D4
:1014200010F0020F0BD0FFF70BFA801B022802D935
:101430000320BDE8F88F286810F0020FF3D1207860
:1014400010F0080F30D09148A169C1B1C0F800B0C8
:10145000FFF7F6F90646686A10F0020F0BD1FFF7A6
:10146000EFF9801B022802D90320BDE8F88F686AD3
:1014700010F0020FF3D0012001F0D8FC14E0C0F806
:101480000080FFF7DDF90646686A10F0020F0BD006
:10149000FFF7D6F9801B022802D90320BDE8F88F98
:1014A000686A10F0020FF3D1207810F0040F6FD0AB
:1014B0000026E86910F0805F08D1E86940F08050AC
:1014C000E861E86900F0805000900126DFF8C0A1D3
:1014D000DAF8000010F4807F1BD1DAF8000040F445
:1014E0008070CAF80000FFF7ABF98146DAF8000017
:1014F00010F4807F0DD1FFF7A3F9A0EB0900642859
:1015000002D90320BDE8F88FDAF8000010F4807FDC
:10151000F1D0E068012816D0D0B1052821D0286A82
:1015200020F001002862286A20F004002862E068A8
:1015300041F2883A68B3FFF783F98146286A10F0D0
:10154000020F17D03AE0286A40F001002862EEE767
:10155000286A20F001002862286A20F0040028622E
:10156000E5E7286A40F004002862286A40F001009C
:101570002862DCE7FFF764F9A0EB0900504502D9C7
:101580000320BDE8F88F286A10F0020FF2D015E0B2
:101590001AE0FFE7FFF754F98146286A10F0020FBE
:1015A0000CD0FFF74DF9A0EB0900504502D90320FC
:1015B000BDE8F88F286A10F0020FF2D1012E03D196
:1015C000E86920F08050E861E069E8B3696801F0FB
:1015D0000C0108295ED0022810D0C7F86080FFF700
:1015E0002FF90446286810F0007F66D0FFF728F92D
:1015F000001B022841D90320BDE8F88FC7F860809E
:10160000FFF71EF90646286810F0007F0BD0FFF7A1
:1016100017F9801B022802D90320BDE8F88F28683B
:1016200010F0007FF3D1206AB0F5803F05D16868E3
:10163000A16820F4003008436860616A206A0843AA
:10164000696821F4741100E037E008436860C7F866
:1016500060B0FFF7F5F80446286810F0007F2CD141
:10166000FFF7EEF8001B022802D90320BDE8F88F2F
:10167000286810F0007FF3D01FE0286810F0007F8A
:10168000B4D11AE0001002400000424280044242FD
:101690000070004001280DD06868226A00F4803193
:1016A000914204D1616A00F47010884205D0012093
:1016B000BDE8F88F0120BDE8F88F0020BDE8F88F65
:1016C000401EB0F1807F01D3012070474FF0E02130
:1016D0004861044AF02010700020886107200861EA
:1016E0000020704723ED00E07047704730B490F859
:1016F0003C20012A30D0012480F83C40022280F8AE
:101700003D200268D2F804C093682CF0700C0D687C
:1017100045EA0C0CC2F804C00268A2F1804CBCF58A
:10172000963C0CD0B2F1804F09D0A2F1804CBCF5B0
:10173000806C04D0A2F1804CBCF5006C04D123F085
:10174000800349681943916080F83D40002180F88A
:101750003C1030BC0020704730BC0220704710B5F0
:101760000446002C03D094F83D0010B107E001209E
:1017700010BD002084F83C00204600F01FF8022035
:1017800084F83D00211D206801F03AFC012084F816
:10179000460084F83E0084F83F0084F8400084F856
:1017A000410084F8420084F8430084F8440084F83F
:1017B000450084F83D00002010BD000008B5154A22
:1017C0000168154891420ED1816941F4006181613F
:1017D0008069002200F40060009011461920FFF794
:1017E00005FC192010E0B1F1804F11D1C16941F021
:1017F0000101C161C069002200F0010000901146A2
:101800001C20FFF7F3FB1C20BDE80840FFF7E0BBFE
:1018100008BD0000002C01400010024090F83D106F
:10182000012901D001207047022180F83D10016894
:10183000CA6842F00102CA600068A0F18041B1F5B7
:10184000963112D0B0F1804F0FD0A0F18041B1F5A8
:1018500080610AD0A0F18041B1F5006105D0016836
:1018600041F00101016000207047816801F007012B
:101870000629F8D0016841F001010160F3E770B575
:101880000446002594F83C00012818D0012684F86D
:101890003C60022084F83D002068826822F07702D4
:1018A00022F47F4282600868502839D00EDC20285C
:1018B00054D006DC002851D0102811D14EE002206F
:1018C00070BD30284AD040280AD13DE0602831D090
:1018D00070280DD0B0F5805F03D0B0F5005F13D055
:1018E000012584F83D60002084F83C00284670BD46
:1018F000CB684A688968206801F0CDFB2068816860
:1019000041F077018160ECE7CB684A68896820681C
:1019100001F0C1FB2068816841F480418160E0E70B
:10192000CA684968206801F08CFC5021206801F0E9
:10193000BDFBD6E7CA684968206801F095FC6021C4
:10194000206801F0B3FBCCE7CA684968206801F061
:1019500078FC4021206801F0A9FBC2E7226801461B
:10196000104601F0A3FBBCE7704770B50446206841
:1019700001694FF0000511F0020F17D0C16811F096
:10198000020F13D0E91E01610120207720688069D1
:1019900010F0030F03D02046FFF7E6FF05E02046D6
:1019A00000F0C2F8204600F05BF925772068016955
:1019B00011F0040F18D0C16811F0040F14D06FF0AB
:1019C00004010161022020772068806910F4407FC3
:1019D00003D02046FFF7C8FF05E0204600F0A4F83A
:1019E000204600F03DF925772068016911F0080FC5
:1019F00018D0C16811F0080F14D06FF00801016110
:101A0000042020772068C06910F0030F03D020461F
:101A1000FFF7AAFF05E0204600F086F8204600F018
:101A20001FF925772068016911F0100F18D0C168DF
:101A300011F0100F14D06FF0100101610820207711
:101A40002068C06910F4407F03D02046FFF78CFF68
:101A500005E0204600F068F8204600F001F92577FF
:101A60002068016911F0010F09D0C16811F0010F60
:101A700005D06FF001010161204600F04BF92068AC
:101A8000016911F0800F09D0C16811F0800F05D0F5
:101A90006FF0800101612046FFF726FE2068016992
:101AA00011F0400F09D0C16811F0400F05D06FF060
:101AB00040010161204600F037F92068016911F00A
:101AC000200F0BD0C16811F0200F07D06FF020015C
:101AD00001612046BDE87040FFF707BE70BD000001
:101AE00000B585B000210091019102910391006839
:101AF000B0F1804F11D10A48816941F00401816140
:101B00008069694600F0040004900F2000900220D4
:101B1000019003900348FEF77FFD05B000BD000073
:101B20000010024000080140704770B504460D46A1
:101B3000002694F83C0001280FD0012084F83C00D6
:101B40006AB1042A1FD0082A32D00C2A44D00126B8
:101B5000002084F83C00304670BD022070BD29464C
:101B6000206801F0ABFA2068816941F008018161C9
:101B70002068816921F004018161206881692A69F6
:101B800011438161E4E72946206801F0CBFA20681F
:101B9000816941F4006181612068816921F480617B
:101BA0008161206881692A6941EA02218161CFE768
:101BB0002946206801F0EAFA2068C16941F008016D
:101BC000C1612068C16921F00401C1612068C16957
:101BD0002A691143C161BBE72946206801F00AFB6D
:101BE0002068C16941F40061C1612068C16921F4C4
:101BF0008061C1612068C1692A6941EA0221C1612D
:101C0000A6E710B50446002C03D094F83D0010B1AF
:101C100007E0012010BD002084F83C00204600F0C1
:101C20001EF8022084F83D00211D206801F0E8F92B
:101C3000012084F8460084F83E0084F83F0084F8D0
:101C4000400084F8410084F8420084F8430084F89E
:101C5000440084F8450084F83D00002010BD704722
:101C60007047000010B50446002909D004290AD0A5
:101C700008290BD094F8410001280AD0012010BD9A
:101C800094F83E00F8E794F83F00F5E794F8400038
:101C9000F2E7022089B3042933D0082934D084F82C
:101CA00041000122206801F0E7F9194920688842C3
:101CB00003D1426C42F4004242642068884212D050
:101CC000B0F1804F0FD0A0F18041B1F580610AD012
:101CD000A0F18041B1F5006105D0016841F001013A
:101CE0000160002010BD816801F007010629F8D0CD
:101CF000016841F001010160F3E7FFE784F83E006D
:101D0000CFE784F83F00CCE784F84000C9E7000043
:101D1000002C014000680349884202D10A2001F0EA
:101D20005FB87047002C0140704770477047000053
:101D3000F8B5044622681068D168536900F00F0CAA
:101D4000BCF1000F0AD110F0200F07D011F0200FC6
:101D500004D02046BDE8F84001F0B0BB0025BCF13E
:101D6000000F75D003F0010C01F490765CEA0606D2
:101D70006ED010F0010F06D011F4807F03D0626C9A
:101D800042F00102626410F0040F06D013F0010F5C
:101D900003D0626C42F00202626410F0020F06D0BF
:101DA00013F0010F03D0626C42F00402626410F081
:101DB000080F08D001F0200252EA0C0203D0626C36
:101DC00042F008026264626C002A35D010F0200FE5
:101DD00005D011F0200F02D0204601F06FFB2068E3
:101DE0004069C0F38010616C11F0080F00D148B356
:101DF000204601F00CFB2068406910F0400F1CD019
:101E00002068143050E8001F21F0400140E8001223
:101E1000002AF5D1E06B60B15E494163E06BFEF7EB
:101E20004FFA002808D0E06B416B01B0BDE8F040EC
:101E300008472046FFF77AFFF8BD2046FFF776FFF8
:101E4000F8BD05E0FFE72046FFF770FF6564F8BDC9
:101E5000236B012B7DD110F0100F7AD011F0100FF1
:101E600077D010685068009050694FF0200310F050
:101E7000400F4FF0020643D0E16B0868406880B223
:101E80000028E4D0A28D8242E1D9E085886920282B
:101E90002DD020680C3050E8001F21F4807140E8FC
:101EA0000012002AF5D12068143050E8001F21F0FC
:101EB000010140E80012002AF5D12068143050E8F2
:101EC000001F21F0400140E80012002AF5D184F8FB
:101ED0004230256320680C3050E8001F21F01001CB
:101EE00040E80012002AF5D1E06BFEF7C4F9666302
:101EF000A08DE18D401A81B22046FFF716FFF8BD94
:101F0000A08DE18D401A81B2E08D0028F7D0002924
:101F1000F5D020680C3050E8002F22F4907240E891
:101F2000002CBCF1000FF4D12068143050E8002FD1
:101F300022F0010240E8002CBCF1000FF4D184F83B
:101F40004230256320680C3050E8002F22F0100248
:101F500000E008E040E80023002BF3D16663204650
:101F6000FFF7E3FEF8BD10F0800F07D011F0800FEF
:101F700004D02046BDE8F84001F0BABB10F0400F95
:101F8000F0D011F0400FEDD02046BDE8F84001F050
:101F900065BA0000B932000870B50446002C04D0C0
:101FA00094F84100002510B106E0012070BD84F8CE
:101FB0004050204600F024F8242084F84100206896
:101FC000C16821F40051C160204601F0DDFA2068AB
:101FD000016921F4904101612068416921F02A01E1
:101FE00041612068C16841F40051C16065642020EE
:101FF00084F8410084F842006563002070BD000051
:10200000F0B585B000240646009401940294039430
:1020100000682D49884255D12C48816941F480419E
:102020008161816901F480410491816941F0040179
:1020300081618069264D00F0040004904FF4007027
:102040000090022001900320039069462846FEF785
:10205000E3FA2815CDE90004694628460294FEF704
:10206000DBFA1D4D1B488027C5E90004C5E902477E
:1020700020202C61C5E905402846EC61FEF72AFACC
:1020800008B1FEF7F6F8F5636E62134D114844355A
:10209000143801C5102091C50F4845F81049443047
:1020A0006C61AC61EC61FEF715FA08B1FEF7E1F87E
:1020B000B5630022114625206E62FEF797FF2520AA
:1020C000FEF786FF05B0F0BD003801400010024069
:1020D0000008014058000240B001002090F8423052
:1020E000202B01D00220704721B11AB100230363D5
:1020F00001F0AEBA0120704700680349884201D15F
:1021000000F0DEBE7047000000380140006803495F
:10211000884201D100F0D4BE704700000038014071
:1021200037B5044694F84100202802D003B00220BD
:1021300030BD0199002933D0002A31D02162A28418
:10214000E28400206064212384F84130D4F838C050
:10215000154BCCF82830D4F838C0144BCCF82C30C0
:10216000D4F838C0124BCCF83030A36B58632068D9
:10217000134600F1040C6246A06BFEF7EDF92168EE
:102180006FF0400008602068143050E8001F41F0F4
:10219000800140E80012002AF5D103B0002030BDD4
:1021A00003B0012030BD0000C13300080534000831
:1021B000C932000800680349884201D100F02CBEF2
:1021C00070470000003801407047FEE701684A6927
:1021D00012F4806F11D06FF480624A6100210163B4
:1021E000202280F83D2080F83E10026C42F004026C
:1021F000026480F83C100120704700207047000006
:102200002DE9F84F0446DDF828A00B9D0F469046B7
:102210001E462068016841F4806101602068016801
:1022200041F480710160534600224FF001112046B5
:10223000009500F02AF94FF4007948B12068006851
:1022400010F4807F01D0C4F840900320BDE8F88FDF
:10225000216807F0FE000861DFF8F4B02B46524613
:102260005946204600F086F910B10120BDE8F88FEC
:1022700020684169806900902A465146204600F056
:1022800032FA50B1206C042804D12068016841F46E
:10229000007101600120BDE8F88F304608F0FF06AC
:1022A00001280DD021684FEA182008612A465146BE
:1022B000204600F018FA70B1206C042803D007E023
:1022C0002068066109E02068016841F4007101603E
:1022D0000120BDE8F88F206806612A465146204655
:1022E00000F001FA50B1206C042804D12068016884
:1022F00041F4007101600120BDE8F88F2068016899
:1023000041F480710160534600224FF001112046D4
:10231000009500F0BAF848B12068006810F4807F9A
:1023200001D0C4F840900320BDE8F88F2168F8B2CE
:1023300040F0010008612B4652465946204600F005
:1023400019F910B10120BDE8F88F0020BDE8F88F21
:10235000020001002DE9F8430446DDF82090099FB2
:102360000D46164698462068016841F48071016068
:102370004B4600224FF001112046009700F085F8EF
:1023800050B12068006810F4807F02D04FF40070D4
:1023900020640320BDE8F883216805F0FE00086191
:1023A0003B464A461E49204600F0E4F810B10120A1
:1023B000BDE8F88320684169806900903A46494643
:1023C000204600F090F950B1206C042804D1206818
:1023D000016841F4007101600120BDE8F883F5B2A5
:1023E000B8F1010F0CD02168300A08613A4649461D
:1023F000204600F078F970B1206C042803D007E083
:102400002068056109E02068016841F400710160FD
:102410000120BDE8F883206805610020BDE8F8834D
:102420000200010070B504460D461646206840695A
:1024300010F0040F18D12046FFF7C8FE08B10120A4
:1024400070BDB5F1FF3F0AD0FEF7FAF9801BA84234
:1024500000D825B92068406910F0040F06D0206824
:10246000406910F0040FE6D0002070BD002020630A
:10247000202184F83D1084F83E00216C41F02001B9
:10248000216484F83C00012070BD2DE9F04704462A
:10249000DDF820900D4617461E46C5F30748206814
:1024A000B8F1010F13D0806925EA00000004000C88
:1024B00017D00020B8424DD1B6F1FF3F3DD0FEF716
:1024C000BFF9A0EB0900B0420DD866B135E0406914
:1024D00025EA00000004000C01D00020EAE70120FA
:1024E000E8E70120E6E7B8F1010F19D0206880691C
:1024F00025EA00000004000C1DD00020B8421CD1C9
:1025000000202063202184F83D1084F83E00216CD7
:1025100041F02001216484F83C000120BDE8F087EF
:102520002068406925EA00000004000C01D000206A
:10253000E4E70120E2E70120E0E7B8F1010F0CD069
:102540002068806925EA00000004000C10D00020FB
:10255000B842B1D00020BDE8F0872068406925EA84
:1025600000000004000C01D00020F1E70120EFE79B
:102570000120EDE72DE9F04704460D461646984642
:10258000C5F307472068012F26D0806925EA00009F
:102590000004000C59D04FF000094FF0200A2068C9
:1025A000406910F4806F1ED02068016841F400710A
:1025B000016021686FF480604861C4F8309084F84D
:1025C0003DA084F83E90206C40F00400206484F824
:1025D0003C900120BDE8F087406925EA0000000436
:1025E000000C32D0D7E7B6F1FF3F25D0FEF728F92F
:1025F000A0EB0800B04200D8F6B9012F15D0206832
:10260000806925EA00000004000C15D0C4F8309061
:1026100084F83DA084F83E90206C40F020002064B7
:1026200084F83C900120BDE8F0872068406925EAE5
:1026300000000004000CE9D1012F09D02068806956
:1026400025EA00000004000CA9D10020BDE8F087B5
:102650002068406925EA00000004000C9FD1F4E7DF
:102660002DE9F04104460D4616462068406910F0F9
:10267000400F27D100274FF020082068406910F054
:10268000100F0FD020686FF010014161276384F8AC
:102690003D8084F83E70206C206484F83C700120FA
:1026A000BDE8F081FEF7CCF8801BA84200D825B920
:1026B0002068406910F0400F07D02068406910F092
:1026C000400FDAD00020BDE8F081276384F83D8018
:1026D00084F83E70206C40F02000206484F83C7048
:1026E0000120BDE8F08170B504460D46164620680D
:1026F000406910F0800F18D12046FFF767FD08B140
:10270000012070BDB5F1FF3F0AD0FEF799F8801B9C
:10271000A84200D825B92068406910F0800F06D083
:102720002068406910F0800FE6D0002070BD0020C6
:102730002063202184F83D1084F83E00216C41F094
:102740002001216484F83C00012070BD00214A1E54
:10275000E0E9FA128160704710B580216B2000F02B
:1027600083F8642001F035F800216B2000F07CF83C
:10277000032000F044F8002000F03CF8322000F084
:102780005BF80021382000F06FF800216A2000F08B
:102790006BF80021232000F067F88021372000F03B
:1027A00063F8752000F012F8682801D0012010BDF0
:1027B00001216B2000F058F800216C2000F054F843
:1027C000322000F039F8002010BD00001FB54FF492
:1027D0008073012203A98DE80E0013460246D12121
:1027E0000348FEF709F99DF80C0004B010BD000085
:1027F00030000020C006010E1C2000F035B8C006D5
:10280000010E1B2000F030B8BC2801D3012110E0DC
:10281000622801D302210CE02A2801D3032108E019
:10282000142801D3042104E00A2801D3052100E083
:1028300006211A2000F018B810B504464FF47A703B
:10284000844201D9044602E0042C00D20424B0FBE7
:10285000F4F0401EC1B2192000F006F86008BDE88F
:102860001040FFF7D1BF000003B583B04FF4807371
:10287000012204A98DE80E0013460246D021044827
:10288000FEF746FA002800D0012005B000BD000088
:10289000300000200D4808B5416941F00101416157
:1028A0004069002200F00100009011460E20FEF762
:1028B0009DFB0E20FEF78CFB002211460F20FEF739
:1028C00095FBBDE808400F20FEF782BB00100240D8
:1028D00070B586B000242A480094019402940394B1
:1028E000816941F020018161816901F02001049139
:1028F000816941F004018161816901F00401049161
:10290000816941F00801816180691E4E00F0080074
:102910004FF480550490002229463046FDF789FF88
:102920000320CDE902400095012569460195304616
:10293000FDF772FE4FF4404000901348CDE90104CA
:1029400069463046FDF768FE4FF41060CDE900049B
:1029500069460E480294FDF75FFE4FF440708DE823
:10296000310069463046FDF757FE00221146282007
:10297000FEF73CFB2820FEF72BFB06B070BD0000E5
:1029800000100240000C014000001110000801403E
:102990000D4810B50B4901600C49416000214FF40E
:1029A00080428160C0E9031241618161C1610162BD
:1029B000FDF74CFF002803D0BDE81040FDF759BCDF
:1029C00010BD00000054004030000020A08601002F
:1029D0000D4810B50B4901600C49416000214FF4CE
:1029E00080428160C0E9031241618161C16101627D
:1029F000FDF72CFF002803D0BDE81040FDF739BCDF
:102A000010BD00000058004084000020801A06001D
:102A100010B586B0002418480094019402940394E1
:102A200004941449059401604721C0E9011440F25F
:102A3000E731C0E903148021C0E90541FEF78FFEAC
:102A400008B1FDF716FC4FF48050009069460A4823
:102A5000FEF715FF08B1FDF70CFC049404A9064825
:102A60000594FEF743FE002801D0FDF702FC06B0F6
:102A700010BD0000002C0140D800002010B58EB021
:102A800000240794089409940A940B941C21684626
:102A90000C94FDF74EFB2A484FF08041016047211E
:102AA000C0E9011440F2E731C0E9031480218161DB
:102AB000FEF755FE08B1FDF7DCFB4FF480500790A0
:102AC00007A91F48FEF7DBFE08B1FDF7D2FB1C4843
:102AD000FFF797F808B1FDF7CCFB0B940BA918484A
:102AE0000C94FEF703FE08B1FDF7C3FB6020CDE9AF
:102AF000000402940022694611480494FFF715F877
:102B000008B1FDF7B6FB042269460D48FFF70DF842
:102B100008B1FDF7AEFB082269460948FFF705F842
:102B200008B1FDF7A6FB0C2269460548FEF7FDFF3C
:102B300008B1FDF79EFB0248FEF7D2FF0EB010BDB4
:102B4000200100200C4810B50A4901604FF4E13122
:102B50004160002181600C22C160C0E904128161E2
:102B6000C161FFF719FA002803D0BDE81040FDF756
:102B700080BB10BD0038014068010020FEE7FEE781
:102B800070B5002404F1B000C0B2002100F0FCF8E0
:102B90000021084600F0F8F80021102000F0F4F8B9
:102BA00000250121002000F0EFF86D1CEDB2802D12
:102BB000F7D3641CE4B2042CE4D370BD10B54FF419
:102BC000FA70FDF707FD0021AE2000F0DDF80021CE
:102BD000084600F0D9F80021102000F0D5F80021B7
:102BE000084600F0D1F80021B02000F0CDF8002117
:102BF000812000F0C9F80021662000F0C5F800210E
:102C0000A12000F0C1F80021A62000F0BDF80021AD
:102C1000A82000F0B9F800211F2000F0B5F800212D
:102C2000C82000F0B1F80021D32000F0ADF8002159
:102C3000084600F0A9F80021D52000F0A5F80021F1
:102C4000802000F0A1F80021D92000F09DF800219B
:102C50001F2000F099F80021DA2000F095F80021FB
:102C6000084600F091F80021DB2000F08DF80021EB
:102C7000402000F089F800218D2000F085F8002127
:102C8000142000F081F80021AF2000F07DF8BDE8AD
:102C90001040FFF775BF10B50446B031C8B200212F
:102CA00000F072F8102040EA1410002100F06CF8D7
:102CB00004F00F00BDE81040002100F065B80000EE
:102CC0002DE9F041203A00240D468046D6B27F28F7
:102CD00003D900208D1C8046EDB2082B294610D068
:102CE000FFF7D9FF164906EB460001EB400501212D
:102CF000285D00F049F8641CE4B2062CF7D3BDE867
:102D0000F081FFF7C8FF0F4F04EB06100121385C7C
:102D100000F03AF8641CE4B2082CF5D36D1CE9B25B
:102D20004046FFF7B8FF002404EB061038440121A9
:102D3000007A00F029F8641CE4B2082CF4D3DEE732
:102D40005C380008843A00082DE9F0471E4690469A
:102D5000894605460024C3F180070FE03346494603
:102D60002846FFF7ADFFA819C5B2AF4204DA09F152
:102D70000200002500F0FF09641CE4B218F80420EA
:102D8000002AEBD1BDE8F08709B100F001BD00F0E9
:102D9000EDBC000010B5104A104CB0F5804F0BD0C0
:102DA000B0F5004F14D191151046FDF733FD002802
:102DB00060880ED0401C0DE04FF400611046FDF716
:102DC00029FD0028208801D0401C00E0401E208002
:102DD00010BD401E608010BD0008014000000020B2
:102DE00070B50B4C2089401C80B2A0F54071208149
:102DF000E7390CD1002525814FF480510548FDF7B6
:102E000010FD2088A08025806088E080658070BDEE
:102E100000000020000C014002490020087000F072
:102E20006BB800000C0000207047000081B007491B
:102E30004FF4FA520968B1FBF2F14843009000BF29
:102E40000098411E0091FAD201B070472C0000207A
:102E50007047000010B50A48FFF778FC0948FFF7F3
:102E600075FC0A49084808610168CA6842F0100206
:102E7000CA60BDE810400A220549FFF72FB90000DB
:102E80009C02002090060020680100200C00002019
:102E9000840A002068B161B1074B5A684AB18A427E
:102EA00000D21146521A5A600A4601460348FDF7FD
:102EB00089B90020704700000C0000209C0200200F
:102EC00030B50A4D2869C06B006840680849C0F1F8
:102ED0000A04A8680144844202D2C0F10A0200E058
:102EE000221A0448FDF79EF9AC6030BD0C000020AA
:102EF000840A00209C02002070B50C48D0F8F043F2
:102F0000002C11D00A2C00D90A24094D0120224698
:102F1000287008490548FDF755F9A2B22869BDE8AF
:102F200070400449FFF7FCB870BD00009006002017
:102F30000C0000208E0A002010B530B129B10A4AD9
:102F4000D2F8F023B2F57A7F01D3002010BD0A46F3
:102F500001460548FDF766F904460448007808B9BB
:102F6000FFF7CAFF204610BD900600200C0000208D
:102F700002480349D0F8F003486070479C020020E3
:102F80000C000020FDF7CABF30B58FB0282168467D
:102F9000FDF7CFF814210AA8FDF7CBF801210804AA
:102FA000CDE900100024029402250491CDE90750D8
:102FB0004FF4E01009906846FEF76CF908B172B65C
:102FC000FEE70F20CDE90A054FF48060CDE90C4003
:102FD00002210AA80E94FEF74FF8002801D072B61D
:102FE000FEE70FB030BD70470148FEF7BEBC0000E1
:102FF000D80000200148FEF7B8BC000020010020E6
:1030000030B40268194B1A4CDFF868C0984206D0F9
:10301000B0F1804F03D0A04201D0604503D122F02F
:1030200070024D682A43984206D0B0F1804F03D019
:10303000A04201D0604505D122F44072D1F80CC005
:103040004CEA0202D1F814C022F0800242EA0C02DB
:1030500002608A68C2620A688262984201D1096984
:1030600001630121416130BC70470000002C014028
:10307000000400400008004001F01F0101238B40C4
:10308000D0F820C02CEA03030362036A02FA01F1BC
:10309000194301627047D0F808C02CF47F4C42EA13
:1030A0000322114341EA0C0181607047826822F0DB
:1030B0007002114341F007018160704710B4036A48
:1030C000026A22F0010202624268D0F818C02CF0B5
:1030D000700C2CF0030C0C6844EA0C0C23F0020377
:1030E0008C6823430E4CA04206D123F00803CC6821
:1030F00044EA030323F0040309D122F4807222F48A
:1031000000724C6944EA02028C6944EA020242609D
:10311000C0F818C049684163036210BC70470000E2
:10312000002C014010B4036A026A22F0100202620D
:103130004268D0F818C02CF4E04C2CF4407C0C68A9
:103140004CEA042C23F020038C6843EA04130E4C51
:10315000A04206D123F08003CC6843EA041323F095
:10316000400309D122F4806222F400624C6942EAF1
:1031700084028C6942EA84024260C0F818C049683F
:103180008163036210BC7047002C014010B4036AD5
:10319000026A22F4807202624268D0F81CC02CF0ED
:1031A000700C2CF0030C0C6844EA0C0C23F4007334
:1031B0008C6843EA04230E4CA04206D123F400633A
:1031C000CC6843EA042323F4806309D122F48052BB
:1031D00022F400524C6942EA04128C6942EA041259
:1031E0004260C0F81CC04968C163036210BC7047EC
:1031F000002C014010B4036A026A22F48052026279
:103200004268D0F81CC02CF4E04C2CF4407C0C68D4
:103210004CEA042C23F400538C6843EA0433A0F1F5
:103220008044B4F5963404D122F480424C6942EAD9
:1032300084124260C0F81CC049680164036210BC7B
:103240007047036AD0F820C02CF0010CC0F820C0F1
:10325000D0F818C02CF0F00C4CEA021223F00A034C
:103260001943826101627047036AD0F820C02CF0D4
:10327000100CC0F820C0D0F818C02CF4704C4CEAE8
:10328000023223F0A00343EA011182610162704718
:1032900010B54FF6FF710648FFF7FCFD0549C86001
:1032A000010004D0BDE810400148FFF745BE10BD45
:1032B000380200200C00002010B5406A0021C185B2
:1032C000C184FEF733FD10BD70B5446A20684069C3
:1032D000C0F3C01094F841100025212904D118B181
:1032E000E584204600F0C7F820684069C0F38010EC
:1032F00094F84210222904D118B1E585204600F047
:1033000086F8606C40F0100060642046FEF70EFD09
:1033100070BD10B50146486A096809684FF000039E
:1033200011F0200F32D1C38501680C3151E8002F14
:1033300022F4807241E8002CBCF1000FF4D1016846
:10334000143151E8002F22F0010241E8002CBCF1B9
:10335000000FF4D10168143151E8002F22F040022F
:1033600041E8002CBCF1000FF4D1202180F842107C
:10337000016B01290AD101680C3151E8002F22F0BC
:10338000100241E8002CBCF1000FF4D14363016B43
:10339000012902D0FEF7B0FE10BD818DFEF7C5FCFD
:1033A00010BD10B5406A01214163016B012902D0B3
:1033B000FEF7ACFE10BD818D4908FEF7B6FC10BDCE
:1033C00010B50146486A0968096811F0200F02D05B
:1033D000FEF7F0FE10BD0021C1840168143151E8F0
:1033E000002F22F0800241E80023002BF5D1016874
:1033F0000C3151E8002F42F0400241E80023002B3D
:10340000F5D110BD10B5406AFEF7DEFE10BD0168B3
:103410000C3151E8002F22F4907241E80023002B78
:10342000F5D10168143151E8002F22F0010241E882
:103430000023002BF5D1016B012909D101680C3162
:1034400051E8002F22F0100241E80023002BF5D1B3
:10345000202180F8421000210163704710B50168F7
:10346000CA6822F04002CA60202180F84110FEF7AD
:10347000A1FE002010BD01680C3151E8002F22F0A0
:10348000C00241E80023002BF5D1202180F8411033
:103490007047000008B500680168C9060BD50168CF
:1034A000416800910449884205D1FFF709FDBDE854
:1034B0000840FFF75DBD08BD0038014008B590F831
:1034C0004210222901D0022008BD8268B2F5805F37
:1034D00001D1016929B1816AB2F5805F1DD052B175
:1034E0000BE0816A02685268C2F308020A80816AAE
:1034F000891C816209E002697AB10268526802F0AF
:103500007F020A70816A491C8162C18D491E0904CB
:10351000090CC18505D0002008BD026852680A70F8
:10352000F0E70168CA6822F02002CA600168CA6830
:1035300022F48072CA6001684A6922F001024A617D
:10354000202180F8421000214163026B012A03D040
:10355000FEF7D2FD002008BD016301680C3151E87F
:10356000002F22F0100241E80023002BF5D1016862
:103570000A6812F0100F02D00A6849680091818D24
:10358000FEF7D3FBE6E7000070B50446206801694A
:10359000E26821F44051114301612169A0680843A8
:1035A000616901432068C26822F4037222F4A052C8
:1035B0001143C16020684169A26921F4407111433F
:1035C00041612068A0F18041B1F59C313AD0FDF70E
:1035D00019FE00EBC00101EB001061681B4A890075
:1035E000B0FBF1F3A2FB0353B0FBF1FC5B096FF0FE
:1035F00018056B430CEB83034FF0320C0CEB0313F9
:10360000A2FB03535B0903F0F005B0FBF1F3A2FB4F
:1036100003635B0905EB0313B0FBF1F5B0FBF1F0BD
:10362000A2FB001040096FF01801484305EB800031
:103630000CEB0010A2FB00102168C0F343101844EB
:10364000886070BDFDF7EEFDC3E700001F85EB51FC
:1036500017B581B004461346029AA262A3850020E2
:103660006064222184F84210D4F83CC01D49CCF893
:103670002810D4F83CC01C49CCF82C10D4F83CC01D
:103680001A49CCF83010E16B48632068011DE06BEB
:10369000FCF762FF2068016840680090206948B12B
:1036A00020680C3050E8001F41F4807140E800129F
:1036B000002AF5D12068143050E8001F41F00101C4
:1036C00040E80012002AF5D12068143050E8001FAD
:1036D00041F0400140E80012002AF5D104B000207A
:1036E00010BD000013330008A3330008C9320008DE
:1036F00090F84110212901D0022070478168B1F56E
:10370000805F01D1016961B1016A4A1C02620268ED
:1037100009785160C18C491E0904090CC1840AD082
:1037200013E0016A02680988C1F308015160016A67
:10373000891C0162EEE70168CA6822F08002CA6053
:103740000068C16841F04001C1600020704700007E
:1037500010B50448FFF79EFEBDE810400148FEF793
:10376000E7BA000068010020FEE7000001B584B060
:1037700001214FF4807204A88DE807000B46002257
:1037800078210248FDF7C4FA05B000BD840000208E
:1037900001B584B001214FF4807204A88DE80700C0
:1037A0000B46402278210248FDF7B2FA05B000BD71
:1037B0008400002002E008C8121F08C1002AFAD1C4
:1037C00070477047002001E001C1121F002AFBD1A1
:1037D0007047012800D9401EFCF7FCBEFDF7A6FB90
:1037E000FFF7D2FBFFF774F8FFF754F8FFF746F93D
:1037F000FFF7CEF8FFF7A6F9FFF70AF9FFF7E8F8A9
:103800001248FEF70BF800211148FEF72BFA0421AD
:103810000F48FEF727FA08210D48FEF723FA0C217E
:103820000B48FEF71FFAFFF715FBFFF7C7F9082350
:1038300008A201214020FFF787FA00BFFEF78CFFA6
:103840000028FBD1FFF724FDFCE70000D800002092
:103850002001002042593A434A483200000000004B
:1038600000000000002F0000000007000700001407
:103870007F147F1400242A7F2A1200626408132315
:1038800000364955225000000503000000001C22AC
:103890004100000041221C000014083E08140008EA
:1038A000083E0808000000A060000008080808089A
:1038B000000060600000002010080402003E514932
:1038C000453E0000427F40000042615149460021D0
:1038D00041454B31001814127F10002745454539EA
:1038E000003C4A4949300001710905030036494945
:1038F000493600064949291E0000363600000000FE
:103900005636000000081422410000141414141448
:1039100000004122140800020151090600324959F1
:10392000513E007C1211127C007F49494936003E0D
:1039300041414122007F4141221C007F49494941C8
:10394000007F09090901003E4149497A007F0808C2
:10395000087F0000417F4100002040413F01007F7F
:1039600008142241007F40404040007F020C027F4B
:10397000007F0408107F003E4141413E007F09095D
:103980000906003E4151215E007F09192946004683
:10399000494949310001017F0101003F4040403F5A
:1039A000001F2040201F003F4038403F00631408A4
:1039B000146300070870080700615149454300007F
:1039C0007F41410000552A552A55000041417F00A2
:1039D0000004020102040040404040400000010297
:1039E0000400002054545478007F48444438003880
:1039F0004444442000384444487F00385454541808
:103A000000087E0901020018A4A4A47C007F080419
:103A100004780000447D4000004080847D00007FE9
:103A2000102844000000417F4000007C0418047806
:103A3000007C0804047800384444443800FC242402
:103A400024180018242418FC007C080404080048EA
:103A50005454542000043F444020003C4040207C0B
:103A6000001C2040201C003C4030403C00442810FA
:103A70002844001CA0A0A07C004464544C441414AE
:103A800014141414000000000000000000000000E6
:103A900000000000000000F80000000000000033FB
:103AA0003000000000100C06100C060000000000A2
:103AB0000000000040C07840C0784000043F04048B
:103AC0003F040400007088FC08300000001820FF4C
:103AD000211E0000F008F000E018000000211C0387
:103AE0001E211E0000F00888700000001E21232403
:103AF0001927211010160E00000000000000000021
:103B000000000000000000E01804020000000007B0
:103B10001820400000020418E000000000402018B7
:103B200007000000404080F0804040000202010F8A
:103B300001020200000000F0000000000101011F6E
:103B400001010100000000000000000080B07000D2
:103B50000000000000000000000000000001010162
:103B600001010101000000000000000000303000F1
:103B700000000000000000008060180400601806CB
:103B80000100000000E010080810E000000F102005
:103B900020100F00001010F8000000000020203F4F
:103BA00020200000007008080888700000302824D9
:103BB000222130000030088888483000001820207A
:103BC00020110E000000C02010F80000000704249F
:103BD000243F240000F808888808080000192120E4
:103BE00020110E0000E0108888180000000F11203E
:103BF00020110E0000380808C83808000000003FF7
:103C0000000000000070880808887000001C222155
:103C100021221C0000E010080810E0000000312202
:103C200022110F00000000C0C000000000000030A2
:103C300030000000000000800000000000008060F4
:103C40000000000000008040201008000001020475
:103C5000081020004040404040404000040404045C
:103C60000404040000081020408000000020100818
:103C700004020100007048080808F000000000304D
:103C800036010000C030C828E810E00007182724DB
:103C900023140B000000C038E0000000203C230289
:103CA0000227382008F8888888700000203F2020EC
:103CB00020110E00C030080808083800071820201E
:103CC0002010080008F808080810E000203F202015
:103CD00020100F0008F88888E8081000203F2020F6
:103CE0002320180008F88888E8081000203F2000EA
:103CF00003000000C0300808083800000718202022
:103D0000221E020008F808000008F808203F2101E0
:103D100001213F20000808F8080800000020203F8B
:103D20002020000000000808F8080800C0808080FB
:103D30007F00000008F888C028180800203F2001F4
:103D40002638200008F8080000000000203F20204E
:103D50002020300008F8F800F8F80800203F003F65
:103D6000003F200008F830C00008F808203F20007D
:103D700007183F00E01008080810E0000F1020208E
:103D800020100F0008F808080808F000203F210163
:103D900001010000E01008080810E0000F182424BA
:103DA00038504F0008F8888888887000203F20002D
:103DB000030C3020007088080808380000382021E3
:103DC00021221C00180808F8080818000000203FED
:103DD0002000000008F808000008F808001F202054
:103DE00020201F000878880000C838080000073825
:103DF0000E010000F80800F80008F800033C070076
:103E0000073C0300081868808068180820302C03DD
:103E1000032C30200838C800C83808000000203FB4
:103E20002000000010080808C838080020382621A3
:103E300020201800000000FE020202000000007FA7
:103E400040404000000C30C00000000000000001B5
:103E50000638C00000020202FE00000000404040A0
:103E60007F000000000004020202040000000000C5
:103E70000000000000000000000000008080808042
:103E8000808080800002020400000000000000002A
:103E900000000000000080808080000000192422C3
:103EA00022223F2008F8008080000000003F1120FF
:103EB00020110E000000008080800000000E112004
:103EC00020201100000000808088F800000E1120E2
:103ED00020103F200000808080800000001F2222F0
:103EE00022221300008080F0888888180020203F5C
:103EF000202000000000808080808000006B94946F
:103F00009493600008F8008080800000203F21002A
:103F100000203F2000809898000000000020203FF3
:103F200020200000000000809898000000C08080E1
:103F3000807F000008F8000080808000203F24027D
:103F40002D302000000808F8000000000020203F6D
:103F5000202000008080808080808000203F200022
:103F60003F20003F8080008080800000203F2100B3
:103F700000203F200000808080800000001F202063
:103F800020201F00808000808000000080FFA12092
:103F900020110E000000008080808000000E1120A3
:103FA00020A0FF80808080008080800020203F2132
:103FB00020000100000080808080800000332424E5
:103FC00024241900008080E0808000000000001F91
:103FD000202000008080000000808000001F202042
:103FE00020103F20808080000080808000010E3003
:103FF0000806010080800080008080800F300C0364
:104000000C300F0000808000808080000020312E66
:104010000E312000808080000080808080818E7042
:104020001806010000808080808080000021302CF4
:104030002221300000000000807C0202000000000D
:10404000003F404000000000FF00000000000000B2
:10405000FF0000000002027C800000000040403FA2
:10406000000000000006010102020404000000003C
:1040700000000000008060F88780848484FE8283D2
:1040800082808000000000000000000000000000AE
:1040900000000000010000FF00404040407F404021
:1040A0004040000000000000000000000000000090
:1040B00000000000000090884C57A42454548C84C5
:1040C00000000000000000000000000000000000F0
:1040D0000000000001018042221A07024282423E93
:1040E00001010100000000000000000000000000CD
:1040F000000000001010D0FF901000FC24E42422E7
:1041000023E20000000000000000000000000000AA
:1041100000000000040300FF0083601F8041261898
:1041200026418000000000000000000000000000A8
:10413000000000001060028C00FE02F202FE00F897
:1041400000FF000000000000000000000000000070
:104150000000000004047E018047300F1027004754
:10416000807F000000000000000000000000000050
:1041700000000000404042CC009090909090FF10D2
:1041800011161000000000000000000000000000F8
:10419000000000000000003F1028603F1010010EDA
:1041A0003040F000000000000000000000000000AF
:1041B0000000000080809E9292929EE0809EB2D28B
:1041C000929E80000000000000000000000000003F
:1041D000000000000808F4949292F10001F2929419
:1041E00094F808000000000000000000000000003B
:1041F00000000000010202030405060708090A0B7B
:104200000C0D0E0F10100000000000000000010255
:10421000030406070809000000000102030400006F
:10422000404200080000002030000000B4370008C1
:104230007042000830000020680E0000C4370008FB
:10424000000000000000000000000000000000006E
:10425000000000000000000000000000000000005E
:104260000100000010000000000000000024F40025
:04000005080000ED02
:00000001FF
