:020000040800F2
:10000000400F00200101000845380008BF2D0008FE
:1000100041380008050C0008314B000800000000C2
:10002000000000000000000000000000194100086E
:10003000790C0008000000002D3B00085143000827
:100040001B0100081B0100081B0100081B01000820
:100050001B0100081B0100081B0100081B01000810
:100060001B0100081B0100081B0100081B01000800
:100070001B0100081B010008210C0008310C0008BE
:100080001B0100081B0100081B0100081B010008E0
:100090001B0100081B0100081B010008FD0C0008E3
:1000A0001B010008C14300081B0100081B010008D8
:1000B000D14300081B0100081B0100081B010008B8
:1000C0001B0100081B0100081B0100081B010008A0
:1000D0001B0100081D4B00081B0100081B01000844
:1000E000E10C00081B0100081B010008DFF80CD020
:1000F00000F044FC00480047696A0008400F0020F7
:100100000648804706480047FEE7FEE7FEE7FEE7B1
:10011000FEE7FEE7FEE7FEE7FEE7FEE7BF43000877
:10012000ED0000082DE9F0410024061B254671F181
:10013000000605DA01240027D0EB070067EB010178
:10014000161E73F1000605DA0027D2EB070201251F
:1001500067EB030300F014FB86460E4617469C46E9
:10016000AC4204D00025D0EB050E65EB010624B1AE
:100170000020D2EB000760EB030C704631463A4694
:100180006346BDE8F081202A04DB203A21FA02F020
:100190000021704721FA02F3D040C2F120029140C1
:1001A000084319467047D2B201E000F8012B491EFE
:1001B000FBD270470022F6E710B513460A46044604
:1001C0001946FFF7F0FF204610BD30B50446002069
:1001D000034600E05B1C934203D2E05CCD5C401B15
:1001E000F8D030BDF0B480EA0102D40F4200B2EB87
:1001F000410F02D20246084611464A0042D0C30DC2
:10020000DDB2C1F3C752AD1A202D35DAC1F31601A4
:1002100041F4000204B15242C5F1200602FA06F18F
:100220002A411044B3EBD05F23D0C4B1012DA0EB21
:10023000C35009DCF0BC4FF0004202EAC352DBB20B
:1002400000F5000000F0F7BA400000F1807000EB0C
:10025000C350A0F1807040EAD170490009E049081C
:1002600041EAC071A0EBC35000F50000400800EB6C
:10027000C350F0BC00F0D6BA6142012202EB41014A
:10028000001BF6E7F0BC704781F00041AAE780F060
:100290000040A7E780EA010210B502F000434000E9
:1002A00022D04A001FD0010E01EB1261C0F35600AC
:1002B000C2F3560240F4000042F40002A0FB022008
:1002C00000047F39140400D0401C50EA124001D4CD
:1002D0004000491EC2B20C0604EBD010401C40087E
:1002E000802A02D003E0002010BD20F00100002988
:1002F00000DA0020184310BD30B480EA010202F099
:10030000004530F0004221F0004013D090B1C30D01
:10031000D40DC2F31601C0F31600E41A41F4000133
:1003200040F400027D34914201D3641C00E0490096
:10033000002C02DA30BC002070474FF4000000238C
:10034000914201D3891A034340084FEA4101F7D192
:1003500051B1914202D14FF0004105E002D24FF07D
:10036000010101E06FF0010103EBC450284430BCEF
:1003700000F058BA2DE9FE4F804681EA0300C00F15
:100380000C46009021F0004123F00045B8EB02003C
:10039000A94105D24046214690461C460B460246DE
:1003A00023F00040104347D0270DC7F30A00C3F3E2
:1003B0000A510290401A019040286BDAC3F31300EF
:1003C00040F4801B0098924620B10023D2EB030A30
:1003D00063EB0B0B01985946C0F14002504600F008
:1003E00000FA06460D4650465946019A00F008FAB2
:1003F00010EB08006141002487EA115284EAE77398
:100400001A4340D0009A62B3019A012A4FEA075278
:1004100015DC001B61EB02014FF0004202EA0752BB
:10042000CDE90042001C41F5801132462B4600F018
:100430003FFA03B0BDE8F08F40462146F9E7001BC4
:1004400061EB0201001C41F5801300185B4120188C
:10045000A2F5001747EB030140EAD570B6196D41CC
:1004600011E06D084FEA360645EAC0754FEA0752BB
:10047000001B61EB0201001C41F5801149084FEAA5
:1004800030000019514132462B4603B0BDE8F04F11
:1004900000F0FFB90098012240000023D0EB0202D7
:1004A00063EBE073009821464FEAE074B8EB00007C
:1004B00061EB0401E9E783F000435BE781F0004171
:1004C00058E72DE9FE4F81EA030404F0004421F0CF
:1004D000004100944FF0000B23F0004350EA010468
:1004E0005ED052EA03045BD0C3F30A54C1F30A5549
:1004F0002C44A4F2F3340194A0FB0254C1F3130181
:1005000041F48011C3F3130343F4801301FB02444D
:1005100000FB034E840A970A44EA815447EA835752
:10052000A4FB076802958D0A05FB07854FEA932C0B
:1005300004FB0C542705029D4FEA065847EA16377C
:10054000B5EB08056EEB070C870E920E47EA811794
:1005500042EA8312A7FB0201B6EB0B0164EB000435
:100560002B0D43EA0C335E1844EB1C50DA4651461F
:10057000E7FB0201C5F313044FEA0B3343EA1453BC
:100580004FEA0432019C43EA0603A4F10C040294EE
:10059000009CCDE900B400F08BF903B0BDE8F08F0A
:1005A00000200146F9E72DE9F04D81EA030404F04B
:1005B000004B21F0004514464FF0000A23F00041A3
:1005C00050EA050220D054EA01021DD0C5F30A57B3
:1005D0000246C5F31303C1F31300C1F30A5640F4F6
:1005E000801543F48013A7EB0608101BD64608F2CB
:1005F000FD3873EB050002D308F1010801E0921801
:100600005B41B8F1000F03DA00200146BDE8F08D30
:1006100000204FF48011064684460EE0171B73EB52
:10062000050705D3121B63EB050306434CEA010CD7
:1006300049084FEA300092185B4150EA0107EDD1BA
:1006400052EA030012D082EA040083EA050108435B
:1006500005D0101BAB4106D20122002306E0002288
:100660004FF0004302E06FF0010253101AEB060056
:100670004CEB085110EB0A0041EB0B01BDE8F04DCB
:1006800000F007B9C10F80EAE0700844CA0796235A
:10069000002100F0D0B896230022114600F0CBB81C
:1006A00000F0004220F00040C10DC0F3160040F4FD
:1006B00000007F2901DA00207047962903DCC1F190
:1006C0009601C84001E096398840002AF4D04042A3
:1006D000704720F00040C10DC0F3160040F4000048
:1006E0007F2901DA00207047962903DCC1F19601C9
:1006F000C840704796398840704700F0004230F09B
:1007000000400AD0C10D01F56071C0F3160042EA45
:100710000151C2084007114370470020014670474D
:1007200001F0004330B421F0004150EA010206D04C
:100730000A0DA2F56072C1F31301002A02DC30BC7D
:1007400000207047440F44EAC104C100E01830BCE7
:1007500000EBC25000F066B8002801DBC0F1004099
:10076000002901DBC1F1004181427047002801DB13
:10077000C0F10040002901DBC1F10041884270470F
:100780002DE9F05F0546002092469B4688460646C6
:10079000814640241BE02846414647462246FFF753
:1007A000F2FC53465A46C01A914110D311461846DE
:1007B000224600F016F82D1A67EB01084F46224634
:1007C0000120002100F00DF817EB00094E41201E1A
:1007D000A4F10104DFDC484631462A464346BDE821
:1007E000F09F202A04DB203A00FA02F10020704733
:1007F0009140C2F1200320FA03F31943904070475F
:10080000202A06DBCB17203A41FA02F043EAE073D4
:1008100006E041FA02F3D040C2F1200291400843C1
:10082000194670470029A8BF7047401C490008BFFF
:1008300020F00100704710B4B0FA80FC00FA0CF010
:1008400050EA010404BF10BC704749B1CCF1200448
:1008500021FA04F411FA0CF118BF012121430843D5
:10086000A3EB0C01CB1D4FEA00614FEA102042BF01
:10087000002010BC704700EBC35010440029A4BFF7
:1008800010BC7047401C490008BF20F0010010BC9C
:10089000704710B5141E73F1000408DA401C41F1D2
:1008A000000192185B411A4301D120F0010010BDF4
:1008B0002DE9F04D92469B4611B1B1FA81F202E06A
:1008C000B0FA80F220329046FFF78BFF04460F46C5
:1008D00040EA0A0041EA0B0153465A46084313D046
:1008E000114653EA010019D0C8F140025046FFF703
:1008F0004AFC05460E46504659464246FFF771FFF0
:10090000084305D0012004E020463946BDE8F08DBB
:100910000020054346EAE0762C4337430A986305F6
:10092000E40AA0EB08000022FD0A44EA47540A301A
:1009300002D500200146E9E7010510196941DDE90A
:10094000084500196941BDE8F04DA2E770B521F0F6
:10095000004303430CD0C1F30A550024D5EB040532
:1009600064EB0403D617AD1AB34102DB0020014645
:1009700070BD201841EB025170BD0000064C074DC0
:1009800006E0E06840F0010394E80700984710345F
:10099000AC42F6D3FFF7AEFB608C0008808C0008F9
:1009A0002DE9F04D00231A461B1A8A4103DB002073
:1009B0000146BDE8F08DC1F30A52C1F3130141F4C1
:1009C00080154FF0000BD10702D100186D41521E67
:1009D0000027044640F2FF11384601EB620A3E460A
:1009E0008046024600204FF48011FFF7CCFBC2196D
:1009F0007141BB1846EB0100B4EB030C75EB000C26
:100A000004D3E41A65EB000517460E46241908F1D5
:100A100001006D4180463428E3DDF91946EB0600FC
:100A2000091BA84103D24FF0FF32134601E0002218
:100A300013461BEB070046EB0A51BDE8F04DFFF7EC
:100A400028BF00002DE9F04104460D460026002194
:100A50002046FFF781FE09D129460A480068FFF7C2
:100A600019FC0746FFF71CFE064608E00648016829
:100A70002046FFF70FFC0746FFF712FE06463046FA
:100A8000BDE8F08184000020800000202DE9F05FA7
:100A900005460E46144631462846FFF7F5FB8146CB
:100AA00021460A480068FFF7F5FB82464946084898
:100AB0000068FFF7EFFB83465146FFF793FB804644
:100AC000FFF7EEFD07463846BDE8F09F70000020B6
:100AD0006C0000202DE9F04104460D4616466119D0
:100AE0000846FFF7CFFD2B4908602B492B480068CB
:100AF000FFF7D0FB29490860294926480068FFF71D
:100B0000C9FB0746254801683846FFF76BFB2349B8
:100B100008600846016823480068FFF763FB214925
:100B2000086021491F480068FFF720FE03D21E48D5
:100B30001C49086008E01D491A480068FFF70CFED0
:100B400002D21A4817490860194801681548006818
:100B5000FFF7A0FB07461748016810480068FFF739
:100B600099FB80463946FFF73DFB1349086013495E
:100B70003046FFF7F1FD04D311493046FFF7F6FD8B
:100B800002D20020074908600B480068FFF788FD83
:100B9000BDE8F0818C0000203333333F900000200B
:100BA0009A99993E9400002000009644000096C453
:100BB0007C0000207800002088000020000020C277
:100BC000000020420648808900B205490968C863D0
:100BD0000348808900B20249096808647047000030
:100BE000A40100200648808900B2054909684863CD
:100BF0000348808900B20249096888637047000091
:100C0000A401002000BFFEE710B50246002002E06C
:100C1000535C0344D8B20B1EA1F10101F8D110BD01
:100C200010B5024800F024F910BD00007802002041
:100C300010B5024800F01CF910BD0000340200207D
:100C400010B490F840C0012404FA0CFCC46BC4F842
:100C500004C0D0F800C0CCF804304368102B05D095
:100C6000036899600068C26010BC704703689A60AE
:100C70000068C16010BC7047704710B50446012C75
:100C800001D9641E00E000BF204600F029FA10BD23
:100C900070B50346D3F8F00308B9002070BDD3F84F
:100CA000F003904201D2D3F8F02300200FE0D3F8F4
:100CB000E8431C5D0C54D3F8E843641C4FF47A7588
:100CC000B4FBF5F605FB1644C3F8E843401C90421C
:100CD000EDD3D3F8F003801AC3F8F0031046DDE734
:100CE00010B54FF4006000F015FA4FF4804000F0AA
:100CF00011FA4FF4004000F00DFA10BD10B54FF49A
:100D0000807000F007FA10BD70B50346D3F8F00309
:100D1000B0F57A7F00D20AB9002070BDD3F8F00395
:100D2000C0F57A70904203D2D3F8F003C0F57A721E
:100D300000200FE0D3F8EC43641C4FF47A75B4FB49
:100D4000F5F605FB1644C3F8EC430C5CD3F8EC5302
:100D50005C55401C9042EDD3D3F8F0031044C3F827
:100D6000F0031046D9E772B600BFFEE70148B0F9BC
:100D700000007047040000200148B0F900007047EF
:100D80000600002090F821100022022905D004213D
:100D9000816380F820200120704701680B6823F0F0
:100DA0000E030B6001680B6823F001030B6090F8E1
:100DB0004030D0F83CC0012101FA03F3CCF80430F4
:100DC00080F8211080F820201046704710B50024CC
:100DD00090F82110022903D004218163012437E017
:100DE00001680A6822F00E020A6001680A6822F0AF
:100DF00001020A60174A0168914201D101211CE0F9
:100E0000154A914201D1102117E0144A914201D1B3
:100E1000891512E0124A914201D189140DE0114A5C
:100E2000914202D14FF4803107E00F4A914202D142
:100E30004FF4801101E04FF080710C4A51600121A4
:100E400080F82110002180F82010416B01B1884703
:100E5000204610BD080002401C0002403000024045
:100E600044000240580002406C0002400000024072
:100E70002DE9F05FC16B0A6801680B68D0F840C0CB
:100E8000042404FA0CF414424E4C4F4D4F4E504F74
:100E9000DFF84081DFF8409131D013F0040F2ED0FD
:100EA0000A6812F0200F03D10A6822F004020A60D7
:100EB0000168A14201D1042119E0A94201D14021D8
:100EC00015E0B14202D14FF4806110E0B94202D185
:100ED0004FF480410BE0414502D14FF4802106E000
:100EE000494502D14FF4800101E04FF080613B4A57
:100EF0005160C16A002962D0BDE8F05F08474FF039
:100F0000020A0AFA0CFA1AEA020F4FF0000A4FF02E
:100F1000010B35D013F0020F32D00A6812F0200F07
:100F200005D10A6822F00A020A6080F821B001683F
:100F3000A14201D1022119E0A94201D1202115E0ED
:100F4000B14202D14FF4007110E0B94202D14FF426
:100F500000510BE0414502D14FF4003106E0494514
:100F600002D14FF4001101E04FF000711B4A5160B3
:100F700080F820A0816A002921D0BDE8F05F0847F1
:100F8000082404FA0CFC1CEA020F18D013F0080F16
:100F900015D00A6822F00E020A6090F84010C26B69
:100FA0000BFA01F15160C0F838B080F821B080F838
:100FB00020A0016B002902D0BDE8F05F0847BDE822
:100FC000F09F0000080002401C0002403000024078
:100FD00044000240580002406C0002400000024001
:100FE00010B4002834D01C4A01688B181B4AA2FB9D
:100FF0000332120992000264194AC263022280F885
:1010000021200A686FF30D12D0F808C04368046904
:1010100043EA0C03D0F80CC04CEA040C43EA0C037E
:10102000D0F814C043EA0C03D0F818C043EA0C030C
:10103000D0F81CC043EA0C031A430A600021816304
:10104000012280F8212080F8201010BC0020704779
:1010500010BC012070470000F8FFFDBFCDCCCCCC08
:101060000000024070B50446002594F820000128D5
:101070000DD0012084F8200094F821C00020BCF19C
:10108000010F06D084F820000225284670BD0220FA
:1010900070BD4FF0020C84F821C0A0632068D0F826
:1010A00000C02CF0010CC0F800C02046FFF7C8FDBE
:1010B000E06A28B12068016841F00E01016009E092
:1010C0002068016821F0040101602068016841F096
:1010D0000A0101602068016841F001010160D4E764
:1010E00070B5044600F02EF90546B4F1FF3F02D07A
:1010F00004480078044400F025F9401BA042FAD3CC
:1011000070BD00009C00002010B50446204602F08F
:101110009BFB10BD10B504490A68024202D008606A
:10112000FFF7F2FF10BD0000140401402DE9F84F55
:101130004FF0000C00230A68002A7DD0DFF8DC8124
:101140000F27A8F1040A08F10409AAF1040B0122EF
:1011500002FA0CF60A683240B2426ED1DFF8C0E102
:101160004C68A4EB0E0574452BD00DDC032C34D059
:1011700005DC34B3012C19D0022C2FD11BE0112C2B
:1011800016D0122C2AD119E0B5F5881F19D006DC2B
:10119000B5F5803F15D0B5F5801F1FD111E0B5F52D
:1011A000001F0ED0B5F5041F18D10AE0CB6815E07A
:1011B000CB681B1D12E0CB6808330FE0CB680C3303
:1011C0000CE08B6823B1012B04D00823466105E0B5
:1011D000042303E00823066100E00023B2F5807FCA
:1011E00001D2054601E000F1040502D24FEA8C0469
:1011F00003E0ACF108044FEA84042E6807FA04FE09
:1012000026EA0E0603FA04F446EA04042C604C684D
:1012100014F0805F79D0434CA56945F00105A561C4
:10122000A46904F0010400942CF0030404F1804448
:1012300004F58034A66801E06EE066E04FEA8C7544
:101240004FEA157507FA05FE26EA0E0EA0F1804654
:10125000B6F584361ED0A0F18046B6F586361BD092
:10126000A0F18046B6F5883618D0A0F18046B6F5D4
:101270008A3615D0042606FA05F545EA0E05A5605E
:101280004C6814F4801F0DD0D8F800401443C8F8FF
:1012900000400CE00026EEE70126ECE70226EAE734
:1012A0000326E8E7D8F800409443C8F800404C68AB
:1012B00014F4001F05D0D9F800401443C9F80040C9
:1012C00004E0D9F800409443C9F800404C6814F495
:1012D000003F05D0DAF800401443CAF8004004E0AB
:1012E000DAF800409443CAF800404C6814F4803F98
:1012F00005D0DBF800402243CBF8002005E0DBF806
:10130000004024EA0202CBF800200CF1010C0A682C
:1013100032FA0CF27FF41BAFBDE8F88F08040140ED
:1013200000001110001002408068084201D0012026
:10133000704700207047002A01D0016170470904FE
:101340000161704701488068704700009C000020E0
:1013500070B50446002C04D094F83D00002510B16F
:1013600006E0012070BD84F83C50204600F00CFBE4
:10137000242084F83D002068016821F0010101600B
:101380002068016841F4004101602068016821F48F
:101390000041016000F0F2FC544B6168994203D8AF
:1013A0005349884203D304E05249884201D20120C4
:1013B00070BD5149B0FBF1F12268D2F804C02CF0A5
:1013C0003F0C4CEA010CC2F804C062689A4201D892
:1013D0004A1C07E04FF4967251434FF47A72B1FB06
:1013E000F2F14A1C2168D1F820C02CF03F0C42EAEF
:1013F0000C020A626168994210D84900401EB0FB95
:10140000F1F2521CC2F30B02042A01D2042026E09E
:10141000B0FBF1F0401CC0F30B0020E0A268002AF2
:1014200050D001EBC10303EB0113A0F1010CBCFB95
:10143000F3F35B1C43F480431B051B0D4AD0002AC9
:101440004AD001EBC10202EB0111401EB0FBF1F0EA
:10145000401CC0F30B0040F4804040F40040216881
:10146000CA6922F0FF0222F44F421043C861216A88
:10147000E06901432068026822F0C0021143016064
:10148000E168206901432068826822F0FF0222F4AB
:10149000034211438160A169606901432068C26809
:1014A00022F0FF021143C1602068016841F0010190
:1014B00001602564202084F83D00256384F83E50B7
:1014C000002070BD01EB4103A0F1010CBCFBF3F364
:1014D0005B1CB1E70120C2E701EB4101401EB0FBFC
:1014E000F1F0401CC0F30B00B7E70000A08601003C
:1014F00080841E0000093D0040420F002DE9FF4F8F
:1015000083B00446DDF84490DDF84080129E8A46A0
:10151000934600270297FFF715FF054694F83D0014
:10152000202803D007B00220BDE8F08F1923012244
:10153000B4492046009501F0A2FD18B107B0022081
:10154000BDE8F08F94F83C00012808D0012084F811
:101550003C002068016811F0010F04D007E007B0DB
:101560000220BDE8F08F016841F0010101602068B0
:10157000016821F400610160222084F83D004020D0
:1015800084F83E002764C4F82480A4F82A90608D73
:1015900020859D48E062019500965A4651462046B6
:1015A000069B01F027FC18B107B00120BDE8F08FC1
:1015B000208D68B3012834D0022842D02068016809
:1015C00041F4806101602068416980690190208D4B
:1015D0004FF02008002800F00B81DFF830B2DFF870
:1015E000309246F2A81A208D032800F2D6800128F6
:1015F00037D002284DD03346002259462046009568
:1016000001F03DFD002872D007B00120BDE8F08F49
:101610002068416981690191016841F400710160AC
:10162000D5E72068016821F48061016072B6206806
:10163000416981690191016841F40071016062B6FC
:10164000C5E72068016841F40061016072B6206856
:10165000416981690191016821F48061016062B68C
:10166000B5E72A463146204601F0F4FD18B107B02F
:101670000120BDE8F08F20680069616A0870606A27
:10168000401C6062208D401E2085608D401E60855C
:10169000AAE03346002259462046009501F0EFFCAF
:1016A00018B107B00120BDE8F08F72B6206801685C
:1016B00041F40071016020680069616A0870606A25
:1016C000401C6062218D491E2185618D491E618506
:1016D00062B6216809690170606A401C6062208DF1
:1016E000401E2085608D401E60857DE0FFE72068FC
:1016F000016821F48061016072B620680069616A46
:101700000870606A401C6062208D401E2085608DDC
:10171000401E6085D9F80000B0FBFAF0C0EBC000B5
:1017200000EB800002900298401E0290029820B3C5
:101730002068406910F0040FF5D02068016841F47A
:101740000071016020680069616A0870606A401C6D
:101750006062218D491E2185618D491E618562B6B9
:10176000216809690170606A401C6062208D401E1A
:101770002085608D401E608536E0276384F83D80BB
:1017800084F83E70206C40F02000206462B684F83B
:101790003C7007B00120BDE8F08F2A463146204654
:1017A00001F058FD18B107B00120BDE8F08F2068A6
:1017B0000069616A0870606A411C6162208D401E88
:1017C0002085608D401E60852068426912F0040FFC
:1017D0000AD000690870606A401C6062208D401E5B
:1017E0002085608D401E6085208D00287FF4FBAE33
:1017F00084F83D8084F83E7084F83C7007B0002087
:10180000BDE8F08F020010000000FFFF040001009F
:10181000A80000202DE9FF4F83B004468A46934676
:10182000DDF84490DDF84080129EFFF78BFD054601
:1018300094F83D00202803D007B00220BDE8F08FC7
:10184000192301224E492046009501F018FC18B1D9
:1018500007B00220BDE8F08F94F83C00012808D0C2
:10186000012084F83C002068016811F0010F04D0C9
:1018700007E007B00220BDE8F08F016841F00101E8
:1018800001602068016821F400610160212084F872
:101890003D00402084F83E0000272764C4F82480DF
:1018A000A4F82A90608D20853648E0620195009664
:1018B0005A4651462046069B01F046FB18B107B038
:1018C0000120BDE8F08F208D002836D02A46314611
:1018D000204601F002FD58B1206C042804D1206894
:1018E000016841F40071016007B00120BDE8F08F8C
:1018F000606A216800780861606A00F1010CC4F830
:1019000024C0208D401E80B22085618D491E6185D6
:101910002368596911F0040F0CD058B19CF80000ED
:101920001861606A401C6062208D401E2085608DB9
:10193000401E6085208D0028C8D12A4631462046A9
:1019400001F06AFB58B1206C042804D120680168BA
:1019500041F40071016007B00120BDE8F08F2068FC
:10196000016841F400710160202084F83D0084F892
:101970003E7084F83C7007B00020BDE8F08F000096
:10198000020010000000FFFF10B586B004460020E2
:1019900002900390049005902B492068884225D13D
:1019A00000BF2A48806940F008002849886108463D
:1019B000806900F00800019000BF00BFC0200290C5
:1019C000122003900320059002A92148FFF7AEFBE7
:1019D00000BF1E48C06940F400101C49C861084699
:1019E000C06900F40010019000BF2AE01949206886
:1019F000884226D100BF1548806940F0080013498D
:101A000088610846806900F00800019000BF00BFAF
:101A10004FF440600290122003900320059002A929
:101A20000B48FFF783FB00BF0848C06940F4800003
:101A30000649C8610846C06900F48000019000BFF3
:101A400000BF06B010BD000000540040001002406E
:101A5000000C01400058004002488168027811449F
:101A6000816070479C00002010B50748016841F074
:101A700010010160032000F097F8002000F006F844
:101A800000F026F8002010BD0020024070B504468A
:101A90000D4D4FF47A712878B1FBF0F00B490968CD
:101AA000B1FBF0F000F0C8FB08B1012070BD102CB4
:101AB00007D200222146501E00F042F86C60002040
:101AC00070BD012070BD00009C000020A800002017
:101AD00008B500BF1148806940F001000F498861D6
:101AE0000846806900F00100009000BF00BF00BF01
:101AF0000846C06940F08050C8610846C06900F0DF
:101B00008050009000BF00BF00BF0549486820F02A
:101B1000E06040F00070486000BF08BD0010024067
:101B20000000014000280ADB00F01F01012202FA38
:101B300001F14009800000F1E020C0F80011704779
:101B400010B4184B1B68C3F30223C3F1070CBCF19C
:101B5000040F01D94FF0040C1C1D072C01D20023E7
:101B600000E0DB1E012404FA0CFCACF1010C0CEAD1
:101B70000101994004FA03F35B1E1A401143002847
:101B800006DB00F1E020090180F8001410BC70476A
:101B900000F00F0000F1E020090180F8141D10BCD6
:101BA000704700000CED00E000F00700064A1168E5
:101BB0004FF6FF03194041EA002040F0FD7040F06D
:101BC00080601060704700000CED00E0BFF34F8FA5
:101BD00005480168054A01F4E06111430160BFF363
:101BE0004F8F00BFFDE700000CED00E00400FA0598
:101BF0002DE9F04704460D46002C17D0DFF85C8134
:101C0000D8F8000000F00700A84212D2D8F800006F
:101C100020F007002843C8F80000D8F8000000F0C2
:101C20000700A84205D00120BDE8F0870120BDE8EB
:101C3000F08720684A4E10F0020F14D010F0040F05
:101C400003D0706840F4E0607060207810F0080FF6
:101C500003D0706840F460507060706820F0F0014C
:101C6000A06808437060207810F0010F3AD06068D7
:101C7000012806D002280BD0316811F0020F27D0BE
:101C80000AE0316811F4003F06D10120BDE8F08779
:101C9000316811F0007F18D0716821F0030108430A
:101CA0007060FFF74FFB07467068616800F00C003A
:101CB000B0EB810F16D041F28839FFF743FBC01B10
:101CC000484508D90320BDE8F0870120BDE8F0872A
:101CD0000120BDE8F0877068616800F00C00B0EB8F
:101CE000810FEAD1D8F8000000F00700A8420FD910
:101CF000D8F8000020F007002843C8F80000D8F802
:101D0000000000F00700A84202D00120BDE8F087E3
:101D1000207810F0040F05D07068E16820F4E060CE
:101D200008437060207810F0080F06D070682169B1
:101D300020F4605040EAC100706000F03FF8716824
:101D4000084AC1F30311515CC840074908600748BD
:101D50000068FFF79BFE0020BDE8F08700200240EE
:101D600000100240028B0008A8000020A000002004
:101D70000148006870470000A800002000B5FFF788
:101D8000F7FF04494968044AC1F30221515CC84085
:101D900000BD000000100240128B000800B5FFF7E4
:101DA000E7FF04494968044AC1F3C221515CC840B5
:101DB00000BD000000100240128B00080E4B596855
:101DC0000E4801F00C02042A11D0082A0FD10C4849
:101DD000C1F38342805C11F4803F09D05968094AFD
:101DE000C1F34041515C054A5043B0FBF1F07047EC
:101DF00005494843704700000010024000127A0075
:101E0000F28A0008F08A000800093D002DE9F84F29
:101E10000446002C0FD02078F84D10F0010F6CD044
:101E2000686800F00C0004280CD0686800F00C0012
:101E3000082803D010E00120BDE8F88F686810F48E
:101E4000803F09D0286810F4003F56D06068002811
:101E500053D10120BDE8F88F6068B0F5803F15D000
:101E6000C8B1B0F5A02F1FD0286820F480302860BA
:101E7000286820F480202860606858B3FFF762FA71
:101E80000646286810F4003F17D036E0286840F472
:101E900080302860F0E7286820F4803028602868C7
:101EA00020F480202860E7E7286840F4802028603C
:101EB000286840F480302860DEE7FFF743FA801B93
:101EC000642802D90320BDE8F88F286810F4003F89
:101ED000F3D012E0FFF736FA0646286810F4003F08
:101EE0000BD0FFF72FFA801B642802D90320BDE82E
:101EF000F88F286810F4003FF3D12078C04F10F01D
:101F0000020F4FF0010B4FF0000854D0686810F03A
:101F10000C0F14D0686800F00C00082803D1686822
:101F200010F4803F0BD0206978B3C7F800B0FFF7FA
:101F300009FA0646286810F0020F12D01DE0286842
:101F400010F0020F05D02069012802D00120BDE861
:101F5000F88F2868616920F0F80040EAC100286025
:101F600029E0FFF7EFF9801B022802D90320BDE822
:101F7000F88F286810F0020FF3D02868616920F00C
:101F8000F80040EAC100286015E0FFE7C7F80080CC
:101F9000FFF7D8F90646286810F0020F0BD0FFF7BC
:101FA000D1F9801B022802D90320BDE8F88F2868E8
:101FB00010F0020FF3D1207810F0080F30D09148C4
:101FC000A169C1B1C0F800B0FFF7BCF90646686A64
:101FD00010F0020F0BD1FFF7B5F9801B022802D9D0
:101FE0000320BDE8F88F686A10F0020FF3D00120DB
:101FF00002F07AF814E0C0F80080FFF7A3F9064673
:10200000686A10F0020F0BD0FFF79CF9801B0228C2
:1020100002D90320BDE8F88F686A10F0020FF3D1EF
:10202000207810F0040F6FD00026E86910F0805F70
:1020300008D1E86940F08050E861E86900F080501C
:1020400000900126DFF8C0A1DAF8000010F4807FCC
:102050001BD1DAF8000040F48070CAF80000FFF7E6
:1020600071F98146DAF8000010F4807F0DD1FFF796
:1020700069F9A0EB0900642802D90320BDE8F88FB4
:10208000DAF8000010F4807FF1D0E068012816D063
:10209000D0B1052821D0286A20F001002862286AE2
:1020A00020F004002862E06841F2883A68B3FFF744
:1020B00049F98146286A10F0020F17D03AE0286AE1
:1020C00040F001002862EEE7286A20F00100286253
:1020D000286A20F004002862E5E7286A40F004003E
:1020E0002862286A40F001002862DCE7FFF72AF93D
:1020F000A0EB0900504502D90320BDE8F88F286AFB
:1021000010F0020FF2D015E01AE0FFE7FFF71AF91E
:102110008146286A10F0020F0CD0FFF713F9A0EBEC
:102120000900504502D90320BDE8F88F286A10F055
:10213000020FF2D1012E03D1E86920F08050E8614E
:10214000E069E8B3696801F00C0108295ED0022853
:1021500010D0C7F86080FFF7F5F80446286810F043
:10216000007F66D0FFF7EEF8001B022841D903205C
:10217000BDE8F88FC7F86080FFF7E4F806462868E6
:1021800010F0007F0BD0FFF7DDF8801B022802D98A
:102190000320BDE8F88F286810F0007FF3D1206A93
:1021A000B0F5803F05D16868A16820F4003008438D
:1021B0006860616A206A0843696821F4741100E06C
:1021C00037E008436860C7F860B0FFF7BBF8044623
:1021D000286810F0007F2CD1FFF7B4F8001B02280C
:1021E00002D90320BDE8F88F286810F0007FF3D0F3
:1021F0001FE0286810F0007FB4D11AE00010024000
:1022000000004242800442420070004001280DD08C
:102210006868226A00F48031914204D1616A00F456
:102220007010884205D00120BDE8F88F0120BDE87C
:10223000F88F0020BDE8F88F401EB0F1807F01D3F9
:10224000012070474FF0E0214861044AF0201070EF
:1022500000208861072008610020704723ED00E01E
:102260007047704730B490F83C20012A30D00124E8
:1022700080F83C40022280F83D200268D2F804C079
:1022800093682CF0700C0D6845EA0C0CC2F804C081
:102290000268A2F1804CBCF5963C0CD0B2F1804FA4
:1022A00009D0A2F1804CBCF5806C04D0A2F1804C26
:1022B000BCF5006C04D123F0800349681943916098
:1022C00080F83D40002180F83C1030BC0020704771
:1022D00030BC0220704710B50446002C03D094F89F
:1022E0003D0010B107E0012010BD002084F83C0043
:1022F000204600F01FF8022084F83D00211D2068D0
:1023000002F06EF8012084F8460084F83E0084F85C
:102310003F0084F8400084F8410084F8420084F8CB
:10232000430084F8440084F8450084F83D00002010
:1023300010BD000038B504461A492068884216D1FD
:1023400000BF1948806940F4006017498861084659
:10235000806900F40060009000BF00BF00221146B9
:102360001920FFF7EDFB1920FFF7DCFB19E02068CF
:10237000B0F1804F15D100BF0B48C06940F001009B
:102380000949C8610846C06900F00100009000BF1B
:1023900000BF002211461C20FFF7D2FB1C20FFF7D4
:1023A000C1FB38BD002C01400010024090F83D10E8
:1023B000012901D001207047022180F83D100168F9
:1023C000CA6842F00102CA600068A0F18041B1F51C
:1023D000963112D0B0F1804F0FD0A0F18041B1F50D
:1023E00080610AD0A0F18041B1F5006105D001689B
:1023F00041F00101016000207047816801F0070190
:102400000629F8D0016841F001010160F3E770B5D9
:102410000446002594F83C00012818D0012684F8D1
:102420003C60022084F83D002068826822F0770238
:1024300022F47F4282600868502839D00EDC2028C0
:1024400054D006DC002851D0102811D14EE00220D3
:1024500070BD30284AD040280AD13DE0602831D0F4
:1024600070280DD0B0F5805F03D0B0F5005F13D0B9
:10247000012584F83D60002084F83C00284670BDAA
:10248000CB684A688968206801F0F5FF2068816898
:1024900041F077018160ECE7CB684A688968206881
:1024A00001F0E9FF2068816841F480418160E0E744
:1024B000CA684968206802F0B4F85021206801F029
:1024C000E5FFD6E7CA684968206802F0BDF86021D8
:1024D000206801F0DBFFCCE7CA684968206802F099
:1024E000A0F84021206801F0D1FFC2E72268014630
:1024F000104601F0CBFFBCE7704770B5044620687A
:1025000001694FF0000511F0020F17D0C16811F0FA
:10251000020F13D0E91E0161012020772068806935
:1025200010F0030F03D02046FFF7E6FF05E020463A
:1025300000F0C8F8204600F061F9257720680169AD
:1025400011F0040F18D0C16811F0040F14D06FF00F
:1025500004010161022020772068806910F4407F27
:1025600003D02046FFF7C8FF05E0204600F0AAF898
:10257000204600F043F925772068016911F0080F23
:1025800018D0C16811F0080F14D06FF00801016174
:10259000042020772068C06910F0030F03D0204684
:1025A000FFF7AAFF05E0204600F08CF8204600F077
:1025B00025F925772068016911F0100F18D0C1683E
:1025C00011F0100F14D06FF0100101610820207776
:1025D0002068C06910F4407F03D02046FFF78CFFCD
:1025E00005E0204600F06EF8204600F007F9257758
:1025F0002068016911F0010F09D0C16811F0010FC5
:1026000005D06FF001010161204600F051F920680A
:10261000016911F0800F09D0C16811F0800F05D059
:102620006FF0800101612046FFF71AFE2068016902
:1026300011F0400F09D0C16811F0400F05D06FF0C4
:1026400040010161204600F041F92068016911F064
:10265000200F0BD0C16811F0200F07D06FF02001C0
:1026600001612046BDE87040FFF7FBBD70BD000072
:1026700010B586B0044600200290039004900590A7
:102680002068B0F1804F16D100BF0C48806940F03F
:1026900004000A4988610846806900F0040001903E
:1026A00000BF00BF0F20029002200390059002A9F6
:1026B0000348FEF73BFD06B010BD000000100240CD
:1026C00000080140704770B504460D46002694F896
:1026D0003C0001280FD0012084F83C006AB1042A94
:1026E0001FD0082A32D00C2A44D00126002084F8BA
:1026F0003C00304670BD022070BD2946206801F0C4
:10270000CDFE2068816941F00801816120688169FE
:1027100021F004018161206881692A691143816186
:10272000E4E72946206801F0EDFE2068816941F464
:10273000006181612068816921F480618161206884
:1027400081692A6941EA02218161CFE7294620682F
:1027500001F00CFF2068C16941F00801C1612068E7
:10276000C16921F00401C1612068C1692A6911436E
:10277000C161BBE72946206801F02CFF2068C169D0
:1027800041F40061C1612068C16921F48061C161C7
:102790002068C1692A6941EA0221C161A6E710B532
:1027A0000446002C03D094F83D0010B107E001204E
:1027B00010BD002084F83C00204600F01EF80220E6
:1027C00084F83D00211D206801F00AFE012084F8F4
:1027D000460084F83E0084F83F0084F8400084F806
:1027E000410084F8420084F8430084F8440084F8EF
:1027F000450084F83D00002010BD70477047000080
:1028000010B50446002909D004290AD008290BD0A4
:1028100094F8410001280AD0012010BD94F83E0030
:10282000F8E794F83F00F5E794F84000F2E702205B
:1028300089B3042933D0082934D084F84100012217
:10284000206801F009FE19492068884203D1426CD2
:1028500042F4004242642068884212D0B0F1804FB6
:102860000FD0A0F18041B1F580610AD0A0F1804184
:10287000B1F5006105D0016841F00101016000205F
:1028800010BD816801F007010629F8D0016841F008
:1028900001010160F3E7FFE784F83E00CFE784F829
:1028A0003F00CCE784F84000C9E70000002C01405D
:1028B00010B5044604492068884204D1012001F083
:1028C000EDF801F083F810BD002C0140704770470F
:1028D00010B5044603492068884201D101F006F989
:1028E00010BD000000380140F8B5044622681068A9
:1028F000D168536900F00F0CBCF1000F0AD110F041
:10290000200F07D011F0200F04D02046BDE8F8407A
:1029100001F0BABF0025BCF1000F75D003F0010C27
:1029200001F490765CEA06066ED010F0010F06D036
:1029300011F4807F03D0626C42F00102626410F0F7
:10294000040F06D013F0010F03D0626C42F00202B4
:10295000626410F0020F06D013F0010F03D0626C16
:1029600042F00402626410F0080F08D001F0200267
:1029700052EA0C0203D0626C42F008026264626C9C
:10298000002A35D010F0200F05D011F0200F02D012
:10299000204601F079FF20684069C0F38010616C27
:1029A00011F0080F00D148B3204601F00CFF206859
:1029B000406910F0400F1CD02068143050E8001F10
:1029C00021F0400140E80012002AF5D1E06B60B12F
:1029D0005E494163E06BFEF7F9F9002808D0E06B2F
:1029E000416B01B0BDE8F04008472046FFF770FF9B
:1029F000F8BD2046FFF76CFFF8BD05E0FFE7204675
:102A0000FFF766FF6564F8BD236B012B7DD110F0E5
:102A1000100F7AD011F0100F77D010685068009026
:102A200050694FF0200310F0400F4FF0020643D0E2
:102A3000E16B0868406880B20028E4D0A28D824231
:102A4000E1D9E085886920282DD020680C3050E835
:102A5000001F21F4807140E80012002AF5D120689F
:102A6000143050E8001F21F0010140E80012002A54
:102A7000F5D12068143050E8001F21F0400140E8F3
:102A80000012002AF5D184F84230256320680C300A
:102A900050E8001F21F0100140E80012002AF5D193
:102AA000E06BFEF76FF96663A08DE18D401A81B28D
:102AB0002046FFF70CFFF8BDA08DE18D401A81B2D2
:102AC000E08D0028F7D00029F5D020680C3050E8C0
:102AD000002F22F4907240E8002CBCF1000FF4D1DA
:102AE0002068143050E8002F22F0010240E8002C4A
:102AF000BCF1000FF4D184F84230256320680C301B
:102B000050E8002F22F0100200E008E040E8002327
:102B1000002BF3D166632046FFF7D9FEF8BD10F015
:102B2000800F07D011F0800F04D02046BDE8F84098
:102B300001F0C4BF10F0400FF0D011F0400FEDD005
:102B40002046BDE8F84001F065BE0000714600086F
:102B500070B50446002C04D094F84100002510B153
:102B600006E0012070BD84F84050204600F024F8B3
:102B7000242084F841002068C16821F40051C1601C
:102B8000204601F0E7FE2068016921F490410161CF
:102B90002068416921F02A0141612068C16841F43F
:102BA0000051C1606564202084F8410084F842002F
:102BB0006563002070BD000010B586B0044600209B
:102BC00002900390049005903849206888426BD1A8
:102BD00000BF3748806940F4804035498861084625
:102BE000806900F48040019000BF00BF00BF08462C
:102BF000806940F0040088610846806900F00400A4
:102C0000019000BF00BF48150290022003900320EE
:102C1000059002A92748FEF789FA4FF480600290D8
:102C200000200390049002A92248FEF77FFA224870
:102C300022490860002048600021204881608021EE
:102C4000C160002101614161202181610021C161D8
:102C5000FEF7C6F908B1FEF786F800BF1748E06333
:102C6000446200BF144814381549086010204860B9
:102C70000021134881608021C16000210161416110
:102C80008161C161FEF7ACF908B1FEF76CF800BFD5
:102C90000B48A063446200BF002211462520FEF7C6
:102CA0004FFF2520FEF73EFF06B010BD0038014063
:102CB0000010024000080140580002403402002089
:102CC0007802002090F84230202B01D0022070477B
:102CD00021B11AB10023036301F0A0BE01207047A7
:102CE00010B5044603492068884201D101F062FA18
:102CF00010BD00000038014010B5044603492068AB
:102D0000884201D101F056FA10BD000000380140A0
:102D100037B5044694F84100202802D003B00220C1
:102D200030BD0199002933D0002A31D02162A2841C
:102D3000E28400206064212384F84130D4F838C054
:102D4000154BCCF82830D4F838C0144BCCF82C30C4
:102D5000D4F838C0124BCCF83030A36B58632068DD
:102D6000134600F1040C6246A06BFEF77BF9216864
:102D70006FF0400008602068143050E8001F41F0F8
:102D8000800140E80012002AF5D103B0002030BDD8
:102D900003B0012030BD000079470008BD4700089E
:102DA0008146000810B5044603492068884201D1D5
:102DB00000F0B2FE10BD000000380140704700BFB7
:102DC000FEE701684A6912F4806F11D06FF48062E7
:102DD0004A6100210163202280F83D2080F83E10E6
:102DE000026C42F00402026480F83C10012070473B
:102DF000002070472DE9F84F0446DDF828A00B9D10
:102E00000F4690461E462068016841F480610160CB
:102E10002068016841F480710160534600224FF040
:102E200001112046009500F02AF94FF4007948B1CD
:102E30002068006810F4807F01D0C4F8409003201F
:102E4000BDE8F88F216807F0FE000861DFF8F4B0F4
:102E50002B4652465946204600F086F910B1012013
:102E6000BDE8F88F20684169806900902A46514684
:102E7000204600F032FA50B1206C042804D12068BA
:102E8000016841F4007101600120BDE8F88F30460F
:102E900008F0FF0601280DD021684FEA18200861CC
:102EA0002A465146204600F018FA70B1206C0428DA
:102EB00003D007E02068066109E02068016841F45A
:102EC000007101600120BDE8F88F206806612A4684
:102ED0005146204600F001FA50B1206C042804D17C
:102EE0002068016841F4007101600120BDE8F88F9D
:102EF0002068016841F480710160534600224FF060
:102F000001112046009500F0BAF848B12068006829
:102F100010F4807F01D0C4F840900320BDE8F88F02
:102F20002168F8B240F0010008612B46524659462C
:102F3000204600F019F910B10120BDE8F88F0020FB
:102F4000BDE8F88F020001002DE9F8430446DDF8E2
:102F50002090099F0D46164698462068016841F466
:102F6000807101604B4600224FF00111204600970E
:102F700000F085F850B12068006810F4807F02D01E
:102F80004FF4007020640320BDE8F883216805F049
:102F9000FE0008613B464A461E49204600F0E4F820
:102FA00010B10120BDE8F883206841698069009074
:102FB0003A464946204600F090F950B1206C04286A
:102FC00004D12068016841F4007101600120BDE86E
:102FD000F883F5B2B8F1010F0CD02168300A08610E
:102FE0003A464946204600F078F970B1206C042832
:102FF00003D007E02068056109E02068016841F41A
:10300000007101600120BDE8F8832068056100209F
:10301000BDE8F8830200010070B504460D4616466F
:103020002068406910F0040F18D12046FFF7C9FE50
:1030300008B1012070BDB5F1FF3F0AD0FEF782F95B
:10304000801BA84200D825B92068406910F0040F01
:1030500006D02068406910F0040FE6D0002070BD53
:1030600000202063202184F83D1084F83E00216C6C
:1030700041F02001216484F83C00012070BD2DE95D
:10308000F0470446DDF820900D4617461E46C5F36E
:1030900007482068B8F1010F13D0806925EA0000C5
:1030A0000004000C17D00020B8424DD1B6F1FF3F0C
:1030B0003DD0FEF747F9A0EB0900B0420DD866B14C
:1030C00035E0406925EA00000004000C01D0002032
:1030D000EAE70120E8E70120E6E7B8F1010F19D09F
:1030E0002068806925EA00000004000C1DD0002043
:1030F000B8421CD100202063202184F83D1084F8C0
:103100003E00216C41F02001216484F83C00012044
:10311000BDE8F0872068406925EA00000004000C43
:1031200001D00020E4E70120E2E70120E0E7B8F168
:10313000010F0CD02068806925EA00000004000C13
:1031400010D00020B842B1D00020BDE8F087206840
:10315000406925EA00000004000C01D00020F1E7DE
:103160000120EFE70120EDE72DE9F04704460D4689
:1031700016469846C5F307472068012F26D0806978
:1031800025EA00000004000C59D04FF000094FF070
:10319000200A2068406910F4806F1ED02068016802
:1031A00041F40071016021686FF480604861C4F8E7
:1031B000309084F83DA084F83E90206C40F00400EC
:1031C000206484F83C900120BDE8F087406925EA3E
:1031D00000000004000C32D0D7E7B6F1FF3F25D045
:1031E000FEF7B0F8A0EB0800B04200D8F6B9012F06
:1031F00015D02068806925EA00000004000C15D075
:10320000C4F8309084F83DA084F83E90206C40F0E3
:103210002000206484F83C900120BDE8F0872068FD
:10322000406925EA00000004000CE9D1012F09D013
:103230002068806925EA00000004000CA9D1002064
:10324000BDE8F0872068406925EA00000004000C12
:103250009FD1F4E72DE9F04104460D46164620685B
:10326000406910F0400F27D100274FF02008206858
:10327000406910F0100F0FD020686FF0100141610D
:10328000276384F83D8084F83E70206C206484F8C5
:103290003C700120BDE8F081FEF754F8801BA84285
:1032A00000D825B92068406910F0400F07D0206889
:1032B000406910F0400FDAD00020BDE8F0812763AC
:1032C00084F83D8084F83E70206C40F0200020643B
:1032D00084F83C700120BDE8F08170B504460D46CD
:1032E00016462068406910F0800F18D12046FFF77D
:1032F00068FD08B1012070BDB5F1FF3F0AD0FEF7AF
:1033000021F8801BA84200D825B92068406910F038
:10331000800F06D02068406910F0800FE6D00020B2
:1033200070BD00202063202184F83D1084F83E0009
:10333000216C41F02001216484F83C00012070BD23
:103340000021C0F8E813491EC0F8EC130021C0F8B2
:10335000F01370472DE9FC4104460D4616466B46B6
:1033600006223B21682000F09FF80746BFB99DF870
:1033700001009DF8001040EA012000B220809DF875
:1033800003009DF8021040EA012000B228809DF859
:1033900005009DF8041040EA012000B23080384654
:1033A000BDE8FC8108B56B4602223B21682000F095
:1033B0007BF89DF801009DF8001040EA012000B262
:1033C00008BD08B56B4602223D21682000F06CF86C
:1033D0009DF801009DF8001040EA012000B208BDF0
:1033E00008B56B4602223F21682000F05DF89DF889
:1033F00001009DF8001040EA012000B208BD2DE94F
:10340000FC4104460D4616466B46062243216820C1
:1034100000F04AF80746BFB99DF801009DF800107A
:1034200040EA012000B220809DF803009DF80210C0
:1034300040EA012000B228809DF805009DF80410A4
:1034400040EA012000B230803846BDE8FC8108B572
:103450006B4602224321682000F026F89DF8010007
:103460009DF8001040EA012000B208BD08B56B4687
:1034700002224521682000F017F89DF801009DF810
:10348000001040EA012000B208BD08B56B460222D8
:103490004721682000F008F89DF801009DF8001011
:1034A00040EA012000B208BDFEB504460D461646AE
:1034B0001F464FF48070CDE900760290012000EBAA
:1034C000440103462A460448FEF718F808B10120D3
:1034D000FEBD0020FCE70000B4000020FEB504465D
:1034E0000D4616461F464FF48070CDE900760290D7
:1034F000002040EA440101232A460448FEF78AF9E5
:1035000008B10120FEBD0020FCE70000B40000204F
:1035100008B500BF0E48406940F001000C49486101
:103520000846406900F00100009000BF00BF002283
:1035300011460E20FEF704FB0E20FEF7F3FA0022E0
:1035400011460F20FEF7FCFA0F20FEF7EBFA08BD3C
:103550000010024000B585B0002001900290039059
:10356000049000BF3548806940F0200033498861ED
:103570000846806900F02000009000BF00BF00BF37
:103580000846806940F0040088610846806900F0C0
:103590000400009000BF00BF00BF0846806940F0F3
:1035A000080088610846806900F00800009000BFAC
:1035B00000BF002289142248FDF7BDFE4FF4805061
:1035C000019001200290002003900320049001A9A3
:1035D0001B48FDF7ABFD4FF44040019019480290A5
:1035E0000020039001A91648FDF7A0FD4FF41060DC
:1035F0000190144802900020039001A91248FDF7A1
:1036000095FD4FF44070019000200290012003903E
:1036100001A90B48FDF78AFD002211461720FEF78D
:103620008FFA1720FEF77EFA002211462820FEF7B7
:1036300087FA2820FEF776FA05B000BD0010024098
:10364000000C0140000031100008014010B50B488B
:103650000B4908600B484860002109488160C1603F
:103660004FF480410161002141618161C1610162CA
:10367000FDF76EFE08B1FDF776FB10BD005400406B
:10368000B4000020A086010010B50B480B4908606B
:103690000B484860002109488160C1604FF48041B7
:1036A0000161002141618161C1610162FDF750FE4C
:1036B00008B1FDF758FB10BD00580040080100207C
:1036C000801A060000B587B0002003900490059092
:1036D00006900190029015481549086047204860FF
:1036E00000211348816040F2E731C160002101618F
:1036F000416180218161FEF7EEFD08B1FDF733FBEA
:103700004FF48050039003A90948FEF780FE08B1EA
:10371000FDF729FB00200190029001A90448FEF763
:10372000A1FD08B1FDF71FFB07B000BD002C014053
:103730005C01002000B58DB0002009900A900B902C
:103740000C90079008901C216846FCF733FD4FF061
:1037500080402C490860472048600021294881604A
:1037600040F2E731C1600021016180218161FEF7F3
:10377000B2FD08B1FDF7F7FA4FF48050099009A99E
:103780002048FEF744FE08B1FDF7EDFA1D48FFF7AB
:1037900006F808B1FDF7E7FA00200790089007A99E
:1037A0001848FEF75FFD08B1FDF7DDFA60200090D4
:1037B0000020019002900490002269461148FEF713
:1037C00082FF08B1FDF7CFFA042269460D48FEF7E3
:1037D0007AFF08B1FDF7C7FA082269460948FEF7E3
:1037E00072FF08B1FDF7BFFA0C2269460548FEF7E3
:1037F0006AFF08B1FDF7B7FA0248FEF739FF0DB0CE
:1038000000BD0000A401002010B50B480B49086062
:103810004FF461204860002108488160C160016167
:103820000C21416100218161C161FFF791F908B16B
:10383000FDF799FA10BD000000380140EC010020AE
:1038400000BFFEE700BFFEE770B50446B4F5807F19
:103850005AD0B4F5006F21D0B4F5804F03D0B4F541
:10386000004F6CD135E04FF480413648FDF75CFDE8
:1038700005464FF400613448FDF756FD854206D1F8
:1038800032480088401C00B23049088005E02F48CB
:103890000088401E00B22D49088070BD4FF4804161
:1038A0002848FDF741FD05464FF400612648FDF725
:1038B0003BFD854206D025480088401C00B22349C4
:1038C000088005E021480088401E00B21F4908809A
:1038D000E3E74FF480711C48FDF726FD05464FF4E1
:1038E00000411848FDF720FD854206D118480088A0
:1038F000401C00B21649088005E015480088401EAB
:1039000000B213490880C8E74FF480710E48FDF7F4
:103910000BFD05464FF400410A48FDF705FD8542C1
:1039200006D00B480088401C00B20949088005E019
:1039300007480088401E00B205490880ADE700BF77
:10394000ABE70000000C014000080140000000202F
:10395000020000203EB5174A1749184803F0FCF84A
:103960000546FFF783FD16490880FFF78EFD1549D0
:1039700008801548008864281BDB00201249088055
:103980000E4804680F208DF8000001208DF801001A
:10399000200E8DF80200200C8DF80300200A8DF80F
:1039A0000400E0B28DF805000621684600F068FBCF
:1039B00000BF3EBD600000205C00002058000020D9
:1039C0006400002066000020680000202DE9F04718
:1039D0002B480088401C2A4908802A480088401C3F
:1039E00080B228490880012848DB0020088026484A
:1039F000B0F90000FCF746FE8046424623480168C5
:103A000023480068FDF742F88246FDF7B5F900EB60
:103A100080004FEA4008FDF7A9F900EB80004FEA6B
:103A200040091B48414602684846FDF753F8504498
:103A300004B21848B0F90000FCF724FE8046414665
:103A40000020FCF7FFFF05B2601906B2601B07B249
:103A50004FF085410E480068FCF788FE05D90E49F5
:103A60000B480068FCF778FE01D800260027304696
:103A700000F014FC384600F039FC00BFBDE8F087C8
:103A800068000020980000206400002074000020DE
:103A90005800002066000020000080C20E490988FE
:103AA000491C0D4A118011460988052912DB0021A5
:103AB000118001200949B1F90010094A1180002143
:103AC000064A11800749B1F90010074A1180002108
:103AD000044A118070470000080000200000002008
:103AE00004000020020000200600002010B5074856
:103AF0000068406C40B10020054908601422054967
:103B000002480068FFF7DEF810BD00004400002006
:103B10004C000020B40A002010B5002002490870B3
:103B200000F07CFB10BD000050000020704700003A
:103B30002DE9F04F8FB0342102A8FCF73BFB322176
:103B400002A800F015FB074617B90FB0BDE8F08FCB
:103B5000002479E202A8005D7D2800D073E2641C95
:103B6000254605E002A8405D7D2800D102E06D1CDD
:103B7000BD42F7D300BF6D1E02AE10E002A8005D8B
:103B80007E2807D1601C044602A9085C203006F894
:103B9000010B03E002A8005D06F8010B641CAC42B7
:103BA000ECD92C4602A8311A00F05AFB9DF8080007
:103BB0000B2876D2DFE800F006090A172E4850B02D
:103BC000FDFCFB00FEF702F83BE23AE29DF809003B
:103BD00010B9FCF7F7FF05E09DF80900012801D1B5
:103BE000FDF700F82DE29DF80B009DF80A1040EA61
:103BF00001200FFA80F89DF8090018B9404600F03E
:103C00004DFB06E09DF80900012802D1404600F076
:103C10006DFB16E29DF8090018B9FDF7A7F80190B1
:103C200006E09DF80900012802D1FDF7A5F80190F2
:103C3000BDF8041088B200F069FA00B201900221C8
:103C400001A800F00DFBFCE103F09EF801900121BA
:103C500001A800F005FBF4E19DF8090010BB01AAE2
:103C6000911E6846FFF776FBBDF8001088B200F0A1
:103C70004DFA00B2ADF80000BDF8021088B200F0B5
:103C800045FA00B2ADF80200BDF8041088B200F0A9
:103C90003DFA00B2ADF804000621684600F0E0FAF3
:103CA00039E0CDE19DF8090001280ED1FFF77AFB3C
:103CB0000190BDF8041088B200F028FA00B201901B
:103CC000022101A800F0CCFA25E09DF809000228A5
:103CD0000ED1FFF776FB0190BDF8041088B200F01A
:103CE00015FA00B20190022101A800F0B9FA12E021
:103CF0009DF8090003280ED1FFF772FB0190BDF873
:103D0000041088B200F002FA00B20190022101A86A
:103D100000F0A6FA00BF94E19DF8090008BB01AAD3
:103D2000911E6846FFF76BFBBDF8001088B200F0EB
:103D3000EDF900B2ADF80000BDF8021088B200F055
:103D4000E5F900B2ADF80200BDF8041088B200F049
:103D5000DDF900B2ADF804000621684600F080FAF3
:103D60003BE09DF8090001280ED1FFF770FB0190A0
:103D7000BDF8041088B200F0C9F900B20190022128
:103D800001A800F06DFA28E09DF80900022811D181
:103D9000FFF76CFB0190BDF8041088B200F0B6F993
:103DA00000B20190022101A800F05AFA15E0DAE011
:103DB0006CE013E09DF8090003280ED1FFF765FBC6
:103DC0000190BDF8041088B200F0A0F900B2019093
:103DD000022101A800F044FA00BF32E19D499E484B
:103DE0000068FCF757FA8346FCF75AFC0FFA80F894
:103DF00098499A480068FCF74DFA8346FCF750FC56
:103E00000FFA80F9934996480068FCF743FA834615
:103E1000FCF746FC0FFA80FA9DF8090018B19DF8EE
:103E2000090001280BD14FEA18208DF8040008F092
:103E3000FF008DF80500022101A800F011FA9DF89D
:103E4000090018B19DF8090002280BD14FEA19208A
:103E50008DF8040009F0FF008DF80500022101A88B
:103E600000F0FEF99DF8090018B19DF8090003283B
:103E70000BD14FEA1A208DF804000AF0FF008DF8EC
:103E80000500022101A800F0EBF9DAE09DF8090035
:103E900068BB9DF80B109DF80A2041EA022108B288
:103EA000FCF7F0FB80466B49FCF726FA6D49086089
:103EB0009DF80D109DF80C2041EA022108B2FCF794
:103EC000E1FB80466849FCF717FA684908609DF8ED
:103ED0000F109DF80E2041EA022108B2FCF7D2FB38
:103EE00080466149FCF708FA614908603AE09DF8AC
:103EF000090001280FD19DF80B109DF80A2041EA16
:103F0000022108B2FCF7BEFB80465249FCF7F4F9E7
:103F10005449086026E09DF8090002280FD19DF859
:103F20000B109DF80A2041EA022108B2FCF7AAFB17
:103F300080464D49FCF7E0F94C49086012E09DF8D5
:103F4000090003280ED19DF80B109DF80A2041EAC4
:103F5000022108B2FCF796FB80464349FCF7CCF9F6
:103F6000434908606DE09DF8090068BB9DF80B109F
:103F70009DF80A2041EA022108B2FCF783FB804643
:103F80003949FCF7B9F93B4908609DF80D109DF8D7
:103F90000C2041EA022108B2FCF774FB804632494A
:103FA000FCF7AAF9344908609DF80F109DF80E201F
:103FB00041EA022108B2FCF765FB80462A49FCF77A
:103FC0009BF92E4908603AE09DF8090001280FD1BD
:103FD0009DF80B109DF80A2041EA022108B2FCF777
:103FE00051FB80462049FCF787F92249086026E00A
:103FF0009DF8090002280FD19DF80B109DF80A20AA
:1040000041EA022108B2FCF73DFB80461649FCF765
:1040100073F91949086012E09DF8090003280ED1D0
:104020009DF80B109DF80A2041EA022108B2FCF726
:1040300029FB80460C49FCF75FF91049086000E055
:1040400000BF00BF00BF641CBC42FFF483AD00BFD3
:104050007BE5000000002041580000205C000020AB
:10406000600000206C0000200000C84274000020A6
:1040700070000020780000207C00002084000020D8
:10408000F0B58DB005460F462E2101A8FCF792F839
:104090001448006800900DF10104002011E0295C33
:1040A0007D2902D0295C7E2907D17E2104F8011BDD
:1040B000295C203904F8011B02E0295C04F8011B8B
:1040C000401CB842EBD36846261A3146401CFCF728
:1040D0009BFD0DF80600711C684600F0C1F80DB09C
:1040E000F0BD0000EC8A000881B007494FF4FA5295
:1040F0000968B1FBF2F14843009000BF0098411EEF
:104100000091FAD201B07047A80000200146080AC9
:10411000CAB240EA022070477047000010B50E484E
:10412000FFF70EF90D48FFF70BF90D480D49086030
:1041300000200D4908600B4800680068C06840F026
:104140001000084909680968C86014220749054831
:104150000068FEF7B7FD10BDCC020020C0060020AD
:10416000EC010020440000204C000020B40A002094
:1041700030B505460C461DB114B10C48006808B9AD
:10418000002030BD09480068A04201D207480468F9
:1041900006480068001B0549086022462946044875
:1041A000FCF776FD04462046EBE7000048000020BF
:1041B000CC02002010B515480068C06B006840684C
:1041C000C0F1140412480068844200D110BD1048A8
:1041D000006884420BD20E480068C0F114020D48FA
:1041E0000B4B1B68C1180C48FCF78EFD09E0084812
:1041F0000068221A0748064B1B68C1180648FCF7DE
:1042000083FD0348046000BFE0E700004400002095
:104210004C000020B40A0020CC02002010B50C484D
:10422000D0F8F04304B910BD142C00D91424012097
:1042300008490870224608490548FCF729FDA2B242
:10424000054906480068FEF763FD00BFEBE7000084
:10425000C006002050000020C80A002044000020B2
:1042600070B505460C4635B12CB10A48D0F8F003BC
:10427000B0F57A7F01D3002070BD2246294605485B
:10428000FCF742FD04460448007808B9FFF7C6FF72
:104290002046F1E7C006002050000020124989891D
:1042A00009B2814203DA1049898908B209E00E494E
:1042B000898909B24942814203DD0B498989494212
:1042C00008B2002807DB0021074A1268D1630649BB
:1042D0000968086407E04142034A1268D16300217B
:1042E000014A126811647047A401002012498989AB
:1042F00009B2814203DA1049898908B209E00E49FE
:10430000898909B24942814203DD0B4989894942C1
:1043100008B2002807DB0849096848630021064AFB
:104320001268916307E00021034A12685163414219
:10433000014A126891637047A40100200248D0F836
:10434000F003024908607047CC02002048000020BA
:1043500010B5FDF781FB10BD00B58FB0282105A871
:10436000FBF728FF14216846FBF724FF0120059086
:1043700000040690002007900120099002200C9074
:10438000C1030D914FF4E0110E9105A8FDF73EFD1C
:1043900008B1FCF7E8FC0F200090022001900020FB
:1043A00002904FF480600390002004900221684640
:1043B000FDF71EFC08B1FCF7D6FC0FB000BD70473E
:1043C00010B50248FEF799F810BD00005C0100200E
:1043D00010B50248FEF791F810BD0000A4010020BE
:1043E00030B40268194B1A4CDFF868C0984206D006
:1043F000B0F1804F03D0A04201D0604503D122F03C
:1044000070024D682A43984206D0B0F1804F03D025
:10441000A04201D0604505D122F44072D1F80CC011
:104420004CEA0202D1F814C022F0800242EA0C02E7
:1044300002608A68C2620A688262984201D1096990
:1044400001630121416130BC70470000002C014034
:10445000000400400008004001F01F0101238B40D0
:10446000D0F820C02CEA03030362036A02FA01F1C8
:10447000194301627047D0F808C02CF47F4C42EA1F
:104480000322114341EA0C0181607047826822F0E7
:104490007002114341F007018160704710B4036A54
:1044A000026A22F0010202624268D0F818C02CF0C1
:1044B000700C2CF0030C0C6844EA0C0C23F0020383
:1044C0008C6823430E4CA04206D123F00803CC682D
:1044D00044EA030323F0040309D122F4807222F496
:1044E00000724C6944EA02028C6944EA02024260AA
:1044F000C0F818C049684163036210BC70470000EF
:10450000002C014010B4036A026A22F01002026219
:104510004268D0F818C02CF4E04C2CF4407C0C68B5
:104520004CEA042C23F020038C6843EA04130E4C5D
:10453000A04206D123F08003CC6843EA041323F0A1
:10454000400309D122F4806222F400624C6942EAFD
:1045500084028C6942EA84024260C0F818C049684B
:104560008163036210BC7047002C014010B4036AE1
:10457000026A22F4807202624268D0F81CC02CF0F9
:10458000700C2CF0030C0C6844EA0C0C23F4007340
:104590008C6843EA04230E4CA04206D123F4006346
:1045A000CC6843EA042323F4806309D122F48052C7
:1045B00022F400524C6942EA04128C6942EA041265
:1045C0004260C0F81CC04968C163036210BC7047F8
:1045D000002C014010B4036A026A22F48052026285
:1045E0004268D0F81CC02CF4E04C2CF4407C0C68E1
:1045F0004CEA042C23F400538C6843EA0433A0F102
:104600008044B4F5963404D122F480424C6942EAE5
:1046100084124260C0F81CC049680164036210BC87
:104620007047036AD0F820C02CF0010CC0F820C0FD
:10463000D0F818C02CF0F00C4CEA021223F00A0358
:104640001943826101627047036AD0F820C02CF0E0
:10465000100CC0F820C0D0F818C02CF4704C4CEAF4
:10466000023223F0A00343EA011182610162704724
:1046700010B5406A0021C185C184FEF729F910BD3B
:1046800070B5446A20684069C0F3C01094F84110C6
:104690000025212904D118B1E584204600F0C7F88F
:1046A00020684069C0F3801094F84210222904D198
:1046B00018B1E585204600F086F8606C40F01000E7
:1046C00060642046FEF704F970BD10B50146486AE3
:1046D000096809684FF0000311F0200F32D1C3853B
:1046E00001680C3151E8002F22F4807241E8002C5F
:1046F000BCF1000FF4D10168143151E8002F22F011
:10470000010241E8002CBCF1000FF4D10168143122
:1047100051E8002F22F0400241E8002CBCF1000FCC
:10472000F4D1202180F84210016B01290AD10168DF
:104730000C3151E8002F22F0100241E8002CBCF1AE
:10474000000FF4D14363016B012902D0FEF7C8FAD0
:1047500010BD818DFEF7BBF810BD10B5406A012178
:104760004163016B012902D0FEF7C6FA10BD818DAD
:104770004908FEF7ACF810BD10B50146486A096853
:10478000096811F0200F02D0FEF70CFB10BD0021CC
:10479000C1840168143151E8002F22F0800241E801
:1047A0000023002BF5D101680C3151E8002F42F0B5
:1047B000400241E80023002BF5D110BD10B5406A3E
:1047C000FEF7FCFA10BD01680C3151E8002F22F40D
:1047D000907241E80023002BF5D10168143151E8B3
:1047E000002F22F0010241E80023002BF5D1016BDC
:1047F000012909D101680C3151E8002F22F0100283
:1048000041E80023002BF5D1202180F8421000213F
:104810000163704710B50168CA6822F04002CA609F
:10482000202180F84110FEF7BDFA002010BD01687C
:104830000C3151E8002F22F0C00241E80023002B88
:10484000F5D1202180F841107047000038B50446AA
:104850002068006800F01000102812D100BF00206E
:10486000009020680068009020684068009000BFB9
:1048700000BF04492068884203D1FFF79BFCFFF783
:104880005DFD38BD0038014008B590F8421022297E
:1048900001D0022008BD8268B2F5805F01D10169B4
:1048A00029B1816AB2F5805F1DD052B10BE0816AF7
:1048B00002685268C2F308020A80816A891C816218
:1048C00009E002697AB10268526802F07F020A7058
:1048D000816A491C8162C18D491E0904090CC18588
:1048E00005D0002008BD026852680A70F0E7016830
:1048F000CA6822F02002CA600168CA6822F4807285
:10490000CA6001684A6922F001024A61202180F8E8
:10491000421000214163026B012A03D0FEF7E0F947
:10492000002008BD016301680C3151E8002F22F01E
:10493000100241E80023002BF5D101680A6812F04B
:10494000100F02D00A6849680091818DFDF7BFFF02
:10495000E6E7000070B5044620680169E26821F4CA
:104960004051114301612169A06808436169014315
:104970002068C26822F4037222F4A0521143C1607D
:1049800020684169A26921F44071114341612068A6
:10499000A0F18041B1F59C313AD0FDF7EFF900EB81
:1049A000C00101EB001061681B4A8900B0FBF1F304
:1049B000A2FB0353B0FBF1FC5B096FF018056B43DE
:1049C0000CEB83034FF0320C0CEB0313A2FB0353ED
:1049D0005B0903F0F005B0FBF1F3A2FB03635B0995
:1049E00005EB0313B0FBF1F5B0FBF1F0A2FB0010F7
:1049F00040096FF01801484305EB80000CEB0010F4
:104A0000A2FB00102168C0F343101844886070BDF9
:104A1000FDF7C4F9C3E700001F85EB5117B581B05E
:104A200004461346029AA262A385002060642221F4
:104A300084F84210D4F83CC01D49CCF82810D4F8B2
:104A40003CC01C49CCF82C10D4F83CC01A49CCF816
:104A50003010E16B48632068011DE06BFCF702FB3E
:104A60002068016840680090206948B120680C30D7
:104A700050E8001F41F4807140E80012002AF5D18F
:104A80002068143050E8001F41F0010140E8001296
:104A9000002AF5D12068143050E8001F41F0400191
:104AA00040E80012002AF5D104B0002010BD00003B
:104AB000CB4600085B4700088146000890F841108B
:104AC000212901D0022070478168B1F5805F01D1B2
:104AD000016961B1016A4A1C026202680978516089
:104AE000C18C491E0904090CC1840AD013E0016A73
:104AF00002680988C1F308015160016A891C0162DA
:104B0000EEE70168CA6822F08002CA600068C168E6
:104B100041F04001C16000207047000010B503481B
:104B2000FFF794FE0148FDF7DFFE10BDEC01002009
:104B300000BFFEE70FB4054B10B503A9044A029865
:104B400000F09AF810BC5DF814FB0000AD6300089B
:104B5000AC000020490050EAC12018BF04204A0DD3
:104B600018BF40F0010040F2FF72B2EB515F08BF86
:104B700040F00200012808BF052070472DE9F041F0
:104B80004F1E00EBC7010446D1E9000115461E4641
:104B900037F006020DD02A463346FBF792FC7F1E03
:104BA00004EBC703D3E90023FBF7E4FB37F006026D
:104BB000F1D1022F25D0042F13D0062F18BFBDE846
:104BC000F0812A463346FBF77CFCD4E90A23FBF745
:104BD000D1FB2A463346FBF774FCD4E90823FBF7E4
:104BE000C9FB2A463346FBF76CFCD4E90623FBF7E6
:104BF000C1FB2A463346FBF764FCD4E90423FBF7E8
:104C0000B9FB2A463346FBF75CFCD4E90223FBF7E9
:104C1000B1FB2A463346FBF754FCD4E90023BDE838
:104C2000F041FBF7A7BB0122FBF790BEFBF7A2BB4D
:104C30000022134610461146FBF7B5BC024A00207D
:104C40001107FBF783BE000001FDFFFF02E008C86B
:104C5000121F08C1002AFAD170477047002001E0F6
:104C600001C1121F002AFBD17047000001490860F2
:104C700070470000B00000202DE9FF4F8DB00F46B7
:104C80000546002606E025280BD0DDE90F129047E7
:104C90006D1C761C28780028F5D111B03046BDE88F
:104CA000F08F0024A246A1460122EC4900E0044313
:104CB00015F8013F203B02FA03F00842F7D12878AB
:104CC0002A2810D06FF02F022878A0F1300109298E
:104CD00014D80AEB8A0102EB410144F0020400EB14
:104CE000010A6D1CF0E701CF5FEA000A03D544F426
:104CF0000054CAF1000A44F002046D1C28782E28E2
:104D000017D115F8010F44F004042A280ED06FF0D3
:104D10002F022878A0F1300109290AD809EB89016E
:104D200002EB410100EB01096D1CF2E757F8049B0F
:104D30006D1C28786C280FD006DC4C2817D068280A
:104D40000DD06A2814D104E0742810D07A280FD12D
:104D50000DE044F400140AE044F4801401E044F44B
:104D600040146978814202D104F580146D1C6D1CD9
:104D70002A786E2A1FD00CDC632A31D004DC002A8A
:104D80008BD0582A11D1A3E0642A68D0692A0CD1AB
:104D900065E0732A2ED004DC6F2A73D0702A04D108
:104DA0009BE0752A6FD0782A6ED01046DDE90F128D
:104DB0009047761C50E1C4F30250022806D0032825
:104DC00009D0042801CF09D0066045E101CFF117D1
:104DD000C0E9006140E101CF06803DE106703BE1A2
:104DE00017F8040B8DF8000000208DF80100EB4649
:104DF000012003E057F804BB4FF0FF3061074FF08C
:104E0000000102D40DE008F10101884649450FDA9E
:104E10008045F8DB1BF808100029F4D108E008F100
:104E2000010188468142FADB1BF808100029F6D1FF
:104E3000DDE90F23AAEB08008146214600F036F990
:104E4000304400EB080604E0DDE90F121BF8010B0B
:104E50009047B8F10108F7D221464846F7E00A2109
:104E6000C4F302534FF0000B0891022B04D001CF82
:104E7000C117032B09D00AE0FF1D27F00707F7E849
:104E8000020108E032E01FE020E000B2C117042B6D
:104E900001D140B2C117031E71F1000307DA4FF0D0
:104EA000000CD0EB0C006CEB01012D2302E023057C
:104EB00004D52B238DF82430012303E0E30701D030
:104EC0002023F7E7984658E00A2110E010210EE071
:104ED00010204FF0000B08900CE010214FF0000B59
:104EE00044F004044FF00809089103E008214FF052
:104EF000000B0891C4F30253022B04D001CF002110
:104F0000032B06D006E0FF1D27F00707F7E8020194
:104F100003E080B2042B00D1C0B24FF00008230799
:104F20002BD5702A07D0DDF820C08CF0100C5CEA7D
:104F30000B0C05D00EE040238DF82430012308E04F
:104F400050EA010306D030238DF824308DF8252057
:104F500002239846DDF820C08CF0080C5CEA0B0CAC
:104F60000BD150EA010301D1630706D530238DF838
:104F700024304FF00108A9F10109582A04D038A2C1
:104F80000B9208AA0A920BE03AA2F9E75B46089A4C
:104F9000FBF7F6FB0B9B9B5C0A9A521E0A9213705E
:104FA00050EA0102F2D10A98ADEB000000F1200BAB
:104FB000600702D524F4803401E04FF00109D9459F
:104FC00002DDA9EB0B0000E0002000EB0B014144E7
:104FD0000890AAEB010AE00306D4DDE90F2321467D
:104FE000504600F063F806444FF0000908E009A9B4
:104FF00011F80900DDE90F12904709F10109761C4B
:10500000C145F4DBE0030CD5DDE90F232146504612
:1050100000F04CF8064404E0DDE90F123020904720
:10502000761C0899481E08900029F5DC08E00A98CB
:105030000A990078491C0A91DDE90F129047761C05
:10504000BBF10001ABF1010BF1DC21465046DDE97B
:105050000F2300F019F806446D1C1BE60928010017
:1050600030313233343536373839616263646566DE
:1050700000000000303132333435363738394142A0
:1050800043444546000000002DE9F0410446002558
:105090001E461746880404D405E039462020B04750
:1050A0006D1C641EF9D52846BDE8F0812DE9F0415C
:1050B000044600251E469046C80301D5302700E06F
:1050C0002027880404D505E041463846B0476D1CCA
:1050D000641EF9D52846BDE8F08100002DE9FE4F99
:1050E00006460F460025684601F068F9002442E0B4
:1050F00056F8240057F82410A0EB010ABAF1000F6B
:1051000001DB514601E0CAF100010846FBF7BAFA9B
:1051100083464FF08F41FBF7EFF880465DF824009F
:105120000021FBF719FB16D05DF824104046FBF771
:10513000E3F882464FF07E51FBF7A6F8814629F04E
:10514000004A0F48416A5046FBF710FB12D201207B
:10515000A04005430EE00A48C1694046FBF7FCFA4F
:1051600005D30748016A4046FBF700FB02D2012045
:10517000A0400543641C032CBADB2846BDE8FE8F23
:10518000CC7E00082DE9F04D8D4F21F0004A86B00D
:1051900005460C46BA452ADBAAEB070028430AD08D
:1051A0008848824501DC1AD1CDB106B02846BDE859
:1051B000F04DFFF738BD844A844B2846FBF781F950
:1051C00007460E46824A834B28462146FBF779F96B
:1051D00006B03A463346BDE8F04DFBF7CBB80120A8
:1051E000FFF744FD06B0BDE8F04DFFF721BD7A485A
:1051F000824542DABAF1795F0BDA2846FFF7AAFC5A
:10520000042808BFFFF71AFD284606B02146BDE86E
:10521000F08D2A460B461046FBF753F983460246AB
:105220006E480E460B4606217844FFF7A7FC5A4607
:105230003346FBF746F9804669488A465A46334664
:1052400004217844FFF79AFC5A463346FBF739F9B4
:1052500000223B46FBF78EF802460B46404651467D
:10526000FBF7A1F92A462346FBF72BF906B02A469D
:105270002346BDE8F04DFBF77DB8284624F00041F9
:1052800000223D463B46FBF719F94FF0FF32FBF792
:105290005DFB0646024653480F460B4606217844FE
:1052A000FFF76CFC32463B46FBF70BF9CDE90001FA
:1052B0004D4832463B4604217844FFF75FFC3246B6
:1052C0003B46FBF7FEF800222B46FBF753F88346DC
:1052D00002913046394602F0BFFD804643480D46F4
:1052E000504517DCDDE900015A46029BFBF75BF9EC
:1052F00042462B46FBF7E5F842462B46FBF73AF8C9
:105300000122FBF723FB304A304BFBF7D4F8304A3D
:10531000304B4CE04FF0000A52460B464046FBF73C
:1053200029F8CDE9031052462B4610461946FBF7E3
:10533000C8F832463B46FBF7C1F8DDE90332FBF71C
:1053400032F906460F46DDE900015A46029BFBF79B
:105350002AF983460091012230463946FBF7F6FAD6
:10536000194A1A4BFBF7AAF806460F460122404697
:105370002946FBF7EBFA5A46009BFBF7A2F83246A8
:105380003B46FBF798F806460F4601225046294651
:10539000FBF7DCFA0E4DDFF858802A464346FBF750
:1053A0008DF832463B46FBF789F82A464346FBF721
:1053B00085F8002CD8BF81F0004106B0BDE8F08D23
:1053C0000000F03F0000F07F075C143326A6913CFC
:1053D000182D4454FB21F93F0000E03FF438000051
:1053E0000A3900007E380000943800003333EF3F64
:1053F000FB21E93F2DE9F84F04460D4621F000401E
:1054000000917349814211DC7249884201DC06D166
:105410002CB120462946BDE8F84FFFF704BC6E4882
:10542000002DCCBF6D496E49BDE8F88F6D498142B2
:1054300011DD6D498142D8BF4FF0FF366DDD20464A
:105440002946FFF787FB042808BFFFF7F7FB204634
:105450002946BDE8F88F6549654F25F00045814232
:1054600033DD6449814219DD002632464FF0804326
:1054700020462946FAF77EFF80468A4601222046CA
:105480002946FBF763FA00223B46FBF714F8424635
:105490005346FBF788F804460D463EE001260022FD
:1054A000BA463B4620462946FAF764FF80460F4637
:1054B0000022534620462946FAF7FDFF42463B4666
:1054C000FBF771F804460D4627E04B4981421BDD8E
:1054D000DFF828A102260022534620462946FAF783
:1054E000F0FF00223B46FAF745FF80460F460022B8
:1054F000534620462946FAF7DEFF42463B46FBF775
:1055000052F804460D4608E0032622462B460020AA
:105510003B49FBF748F804460D4622462B46104609
:105520001946FAF7CEFF8B46824602460B46FAF73B
:10553000C8FF07460246334888460B460621784492
:10554000FFF71CFB52465B46FAF7BBFF82462E482C
:105550008B463A46434605217844FFF70FFB3A460F
:105560004346FAF7AEFF02460B46002E5046594618
:105570000CDAFAF7FFFE22462B46FAF7A2FF01B03B
:1055800022462B46BDE8F04FFAF798BFFAF7F2FE35
:1055900022462B46FAF795FF1C4A7A4402EBC603D3
:1055A000D3E90023FAF787FF22462B46FAF783FF59
:1055B000174A7A4402EBC603D3E90023FAF77EFFC9
:1055C000009A002AB8BF81F00041BDE8F88F0000C2
:1055D000000010440000F07F182D4454FB21F93FD7
:1055E000FB21F9BF0000DC3F0000203E0000F33F3C
:1055F0000000F03F0000E63F008003400000F83F5D
:105600000000F0BF9636000054360000F23500006E
:10561000BA3500002DE9F04D9446CCF1000423F09A
:1056200000464CEA0404524F46EAD4749A4688462F
:1056300021F00042BC4206D8454240EA050442EA55
:10564000D474BC4204D9BDE8F04D6246FFF7EEBA0F
:10565000AAF14055A5F17F6555EA0C040BD0022450
:1056600004EAAA74434DDFF810E144EAD87452EA20
:10567000000B04D00CE0BDE8F04DFFF7BBBE002CE2
:1056800014BF012CBDE8F08D022C30D0032C32D099
:1056900056EA0C0B0AD0BE4220D1BA4209D126F0FC
:1056A000804622F080423346114617E000291ADB7B
:1056B00025E0DFF8C8B0FB44002C04BFDBE90001A3
:1056C000BDE8F08D012C02BFDBE9000181F0004153
:1056D000BDE8F08D022C0AD0032C0CD0BA4212D1B6
:1056E000B8F1000F0BDA23482549BDE8F08D2846B4
:1056F0002449BDE8F08D28467146BDE8F08D1D486F
:105700002149BDE8F08D921B12153C2AC4BF1948EF
:105710001D490EDCBAF1000FBEBF12F13C0F002094
:10572000014606DB6246FAF73EFF21F00041FFF733
:1057300061FE002C08BFBDE8F08D012C04BF81F094
:105740000041BDE8F08D114A114B022C07D0FAF749
:10575000B2FE2A46BDE8F04D0A4BFAF7ACBEFAF7A6
:10576000AAFE2A46BDE8F04D064BFAF7A7BE000098
:105770000000F07F182D4454FB2109C04E35000075
:10578000FB21F9BFFB210940FB21F93F075C1433E2
:1057900026A6A13C2DE9F0410446E07800F0C006C1
:1057A000E07800F03F05607800F0010098B1EF105C
:1057B0002846E91705EB5171C910A5EBC101491C39
:1057C00001F0FF080B48006820B10A484146026812
:1057D0003846904700BF607800F0080030B10548B7
:1057E000406818B1B011034A516888470020BDE8ED
:1057F000F0810000BC02002038B5044664B12020CE
:105800008DF8000028208DF8010030208DF802006E
:1058100038208DF8030004E0A32204216846FAF73B
:10582000C2FC6A46042140F69E2002F04BFA01F0C9
:1058300035FE38BD3EB5044602208DF80000CA2072
:105840008DF80100E3208DF8020009208DF8030097
:105850006A460421682002F035FAA3208DF8000082
:1058600004F0400048B1C0208DF80100C8208DF838
:105870000200C2208DF8030006E0A3208DF801008D
:105880008DF802008DF8030004F4C07048B1C42004
:105890008DF80400CC208DF80500C6208DF8060098
:1058A00006E0A3208DF804008DF805008DF80600B1
:1058B000A3208DF807008DF808008DF809006A46CE
:1058C0000A2140F6A72002F0FDF904F0030018B108
:1058D00020208DF8000002E0D8208DF800006A46F4
:1058E000012140F6B62002F0EDF904F0200018B1D5
:1058F000012000F0ADF802E0002000F0A9F804F467
:10590000C07008B304F4807060B1B2208DF800005C
:105910008B208DF80100B6208DF802009B208DF8B9
:1059200003000BE0B0208DF8000080208DF801000E
:10593000B4208DF8020090208DF803006A460421FF
:1059400040F6A22002F0BEF904F0010020B3F820D6
:105950008DF800006A4601214FF40B6002F0B2F9A5
:10596000FA21072000F02CFC072000F0F3FB0120B7
:1059700000F013FC642000F0F3FC4FF4FA7000F028
:1059800002FDC821304800F0A3FB282000F0BCFB3A
:105990000A2000F0CCFB08E0D8208DF800006A4611
:1059A00001214FF40B6002F08DF904F0020018B1F0
:1059B000D9208DF8000002E0D8208DF800006A465A
:1059C000012140F23D7002F07DF904F0040018B1AD
:1059D000012000F069F802E0002000F065F804F012
:1059E000100018B10120FFF707FF02E00020FFF7C9
:1059F00003FF44F008001549488101F04FFD0020E5
:105A00001249887304F0400018B10846807B801D5D
:105A1000887304F4C07020B10C48807B801D0B4952
:105A2000887304F0140020B10848807B10300749C7
:105A3000887304F0030020B10448807B001D0349F3
:105A4000887300203EBD000009E3CA02BC020020AA
:105A50003EB504466CB10EA1D1E900208968CDE9BC
:105A6000002002916A4609214FF4976002F02AF95A
:105A70003EBD0AA2D2E900109268CDE90102009170
:105A80006A4609214FF4976002F01CF9F0E7000024
:105A9000B8AAB38DB4980D355D000000B8AAAAAAC3
:105AA000B088C3C5C700000038B5044664B1C02043
:105AB0008DF80000C2208DF80100C4208DF802008E
:105AC000C6208DF8030004E08B2204216846FAF713
:105AD0006AFB6A46042140F6982002F0F3F801F0D0
